:1000000000800020BD010000AD9900007199000042
:1000100071990000719900007199000071990000B8
:10002000719900007199000071990000AD9900006C
:10003000AD99000071990000AD9900006199000030
:10004000AD990000AD990000AD990000AD99000098
:10005000AD990000AD990000AD990000AD99000088
:10006000AD990000AD990000AD990000AD99000078
:10007000AD990000AD990000AD990000AD99000068
:10008000AD990000AD990000AD990000AD99000058
:10009000AD990000AD990000AD990000AD99000048
:1000A000897F0000997F0000AD990000AD990000A4
:1000B000AD990000AD990000AD990000AD99000028
:1000C000AD990000AD990000AD990000AD99000018
:1000D000AD990000AD990000AD990000AD99000008
:1000E000AD990000AD990000AD990000AD990000F8
:1000F000AD9900009DC20000AD99000001CA00004A
:10010000AD9900007DCF0000AD990000AD990000D1
:10011000AD990000AD990000AD990000AD990000C7
:10012000AD990000AD990000AD990000AD990000B7
:10013000AD990000AD990000AD990000AD990000A7
:10014000AD990000AD990000AD990000AD99000097
:1001500045B300005DB3000075B300008DB300002F
:10016000AD99000065A30000AD990000AD990000B5
:10017000AD990000AD990000AD990000AD99000067
:10018000AD990000AD990000AD990000AD99000057
:10019000AD990000AD990000AD990000AD99000047
:1001A000AD990000AD990000AD990000AD99000037
:1001B000AD990000AD990000AD990000574B4CF28D
:1001C000205210B51A804DF628121A8000BF00BFC9
:1001D00009F0F0FB524B4FF010621A60514A9A60DE
:1001E000514ADA60A3F53043203B1A6812F480725A
:1001F00004D14E490A604FF4A8521A604C4B1A7849
:10020000110703D51A7842F008021A70494B4A4C7C
:100210004A482A221A704A4A00239918A14203D256
:10022000195899500433F8E7464B474900228B424E
:1002300002D243F8042BFAE74448454900235A58B0
:100240001A500433B3F5DE7FF9D1424B424A802184
:1002500003F8011B9342FBD1404B3C4A1A60404BD0
:100260008A221A70A3F5805324225A70A0221A7091
:100270009A799207FCD59A79D406FCD4394A9379B5
:1002800003F00C03082B374BF9D103221A714022DB
:100290005A719A799006FCD5324A9179314B4906C8
:1002A000FBD5314A314911600221516020221A7078
:1002B0009A7902F00C020C2AFAD12D4B2D4A1A60C1
:1002C0002D4B2E4A1A6000225A60072243F8042C54
:1002D0002B4AC3F80C2D62B609F004FF134B1B68C0
:1002E000DA0705D5274809F033FE274B274A1A605D
:1002F000274B1B785B0609D5234C244A236893427D
:1003000004D1204809F024FE002323600DF01AFFD9
:1003100009F056FB0BF0C2FBFEE700BF0E200540C4
:1003200030800440823F04000100002B14D00340C1
:1003300002D0074000E00740A095FF1F18690100A8
:100340006087FF1FA095FF1F20B6FF1F0082FF1FC1
:100350000000000000E400E05FE400E008ED00E0E1
:100360000050064000400640448004400000030165
:1003700004800440C010050014E000E0FF76010096
:1003800000002020DE7BF5571CE00340A5C3945AF3
:1003900000F00740FFFFFFFFFFFFFFFFFFFFFFFF32
:1003A000FFFFFFFFFFFFFFFFFFFFFFFFFFFFFFFF5D
:1003B000FFFFFFFFFFFFFFFFFFFFFFFFFFFFFFFF4D
:1003C000FFFFFFFFFFFFFFFFFFFFFFFFFFFFFFFF3D
:1003D000FFFFFFFFFFFFFFFFFFFFFFFFFFFFFFFF2D
:1003E000FFFFFFFFFFFFFFFFFFFFFFFFFFFFFFFF1D
:1003F000FFFFFFFFFFFFFFFFFFFFFFFFFFFFFFFF0D
:10040000FFFFFFFFFFFFFFFFFFFFFFFFDEF9FFFF23
:1004100010B5054C237833B9044B13B10448AFF33E
:1004200000800123237010BDA095FF1F0000000075
:100430001069010008B5064B1BB106480649AFF329
:1004400000800648036813B1054B03B1984708BD07
:100450000000000010690100A495FF1FA095FF1F78
:100460000000000038B504460D4608460EF060FE58
:10047000024623685B682046294698470546204681
:100480000BF098F8284438BD10B4016042608360D6
:10049000019BC360029B03615DF8044B704700BF82
:1004A00070B500F5967604460D1A2046295D09F0D0
:1004B00035FA0134B442F8D14FF4967070BD00BFE4
:1004C000F8B50746406800214FF496720EF0A2F985
:1004D0007D6805F596762C46013404F22B10401BFE
:1004E00009F006FA04F8010CB442F5D1134C236864
:1004F0005B68204612491C22984720460BF05AF8A8
:100500007B681A680F4B9A4216D023685B682046B6
:100510000D491422984720460BF04CF84FF496747E
:100520007868002122460EF075F97B68054A1A604A
:1005300020467968FFF7B4FFF8BD00BF30B4FF1F55
:10054000584901000DF0FE5A784901002DE9F04F9D
:1005500083B005460E46B14C23685B682046B0491F
:100560000822984730460EF0E3FD024623685B6898
:1005700020463146984720460BF01CF8E868A94908
:1005800032462B690EF0C8FB2E68EC6820460EF050
:10059000CFFD024633685B6830462146984728689D
:1005A00003681B680D21984740F60A5428680368C1
:1005B0009B6898470028F9D028680368DB6898474B
:1005C000A04205D028680368DB6898470D28EDD164
:1005D000E86800212A690EF01DF900242646A0468D
:1005E0000127286803689B68984750B1741CD5F8A8
:1005F0000C9028680368DB68984709F806002646CF
:100600004446384609F058FD2B69B34203D0013403
:10061000B4F57A7FE5DB002E00F0FB840024DFF8E0
:1006200024B2A246E96801EB040E002304E0013382
:10063000DBB22A69A24207D001340A1912F8012C50
:100640000A2AF4D1274600E0274600220EF80320AC
:100650009EF80020002A00F0BD84232A00F0BA840E
:10066000022B40F2B784002204E00132D1B28B4267
:1006700000F0B084D1B21EF802002028F5D009287D
:10068000F3D088468B4200F0A5844FF0000C0CE0BC
:10069000202A03D002F0FB02092A01D180F800C011
:1006A0000131C9B28B4200F095840EEB01001EF8B7
:1006B00001203D2AECD18B4200F08C844A1CD2B23E
:1006C00000200EF8010004E00132D2B2934200F0A3
:1006D00081841EF802102029F6D00929F4D0934213
:1006E00000F07884F0440EEB0209404659460EF0C3
:1006F000B3FB08BB48460DF007FD0DF09BFA8146A1
:10070000D5F80480D8F8540049460DF07BFC002849
:1007100040F06084C8F85490DFF80081D8F80030C9
:100720005B68404640491E22984740460AF042FF17
:100730004FF0010A00F04EBC40463C490EF08CFBE5
:1007400008BB48460DF0E0FC0DF074FA8146D5F880
:100750000480D8F85C0049460DF054FC002840F0B5
:100760003984C8F85C90DFF8B480D8F800305B6852
:1007700040462F491E22984740460AF01BFF4FF083
:10078000010A00F027BC40462A490EF065FBF8B983
:100790006B68D3F8048048460DF0B6FC804500F045
:1007A0001984D5F8048048460DF0AEFCC8F8040062
:1007B000DFF86880D8F800305B6840461E49122296
:1007C000984740460AF0F6FE4FF0010A00F002BCDE
:1007D00040461A490EF040FB002835D16B68D3F82B
:1007E000108048460DF090FC804500F0F383D5F86A
:1007F000048048460DF088FCC8F81000DFF81C8023
:10080000D8F800305B6840460D49192298474046A9
:100810000AF0D0FE4FF0010ADCE300BF30B4FF1F46
:10082000904901009C490100B0490100D0490100F4
:10083000D4490100F4490100FC490100104A0100BB
:10084000184A0100AC4901004046A5490EF004FBDE
:10085000F0B96B68D3F8148048460DF055FC80451C
:1008600000F0B883D5F8048048460DF04DFCC8F878
:100870001400DFF89082D8F800305B684046994950
:100880001922984740460AF095FE4FF0010AA1E36D
:10089000404695490EF0E0FAF0B96B68D3F808804D
:1008A00048460DF031FC804500F09483D5F8048073
:1008B00048460DF029FCC8F80800DFF84882D8F84F
:1008C00000305B68404689491322984740460AF049
:1008D00071FE4FF0010A7DE3404685490EF0BCFAF7
:1008E000F0B96B68D3F80C8048460DF00DFC8045DC
:1008F00000F07083D5F8048048460DF005FCC8F878
:100900000C00DFF80082D8F800305B684046794977
:100910001422984740460AF04DFE4FF0010A59E371
:10092000404675490EF098FAE0B96B6803F1180873
:10093000404649460EF090FA002800F04B834046AE
:1009400049460EF097FBDFF8BC81D8F800305B68B1
:1009500040466A491322984740460AF02BFE4FF062
:10096000010A37E3404666490EF076FAB0B96B6883
:1009700093F8508048460DF0C7FB804500F02A836D
:10098000D5F8048048460DF0BFFB88F850005D485C
:100990005D49FFF767FD4FF0010A1BE340465B49E5
:1009A0000EF05AFAB0B96B6893F8588048460DF0CB
:1009B000ABFB804500F00E83D5F8048048460DF06F
:1009C000A3FB88F858004F485149FFF74BFD4FF003
:1009D000010AFFE240464F490EF03EFAA0B96B68AB
:1009E00003F13008404649460EF036FA002800F080
:1009F000F182404649460EF03DFB42484649FFF72A
:100A000031FD4FF0010AE5E2404644490EF024FA78
:100A1000A0B96B6803F14008404649460EF01CFA45
:100A2000002800F0D782404649460EF023FB3548A7
:100A30003B49FFF717FD4FF0010ACBE24046394929
:100A40000EF00AFAB0B96B6893F8608048460DF072
:100A50005BFB804500F0BE82D5F8048048460DF06F
:100A600053FB88F8600027482F49FFF7FBFC4FF045
:100A7000010AAFE240462D490EF0EEF9A0B96B68CD
:100A800003F16108404649460EF0E6F9002800F0FF
:100A9000A182404649460EF0EDFA1A482449FFF774
:100AA000E1FC4FF0010A95E2404622490EF0D4F9EC
:100AB000002843D16B6803F17508404649460EF0A3
:100AC000CBF9002800F08682404649460EF0D2FA63
:100AD0000C481949FFF7C6FC4FF0010A7AE200BF43
:100AE000344A01003C4A0100584A0100604A0100B2
:100AF000744A01007C4A0100944A0100984A0100AE
:100B0000AC4A010030B4FF1FB04A0100D44A0100D2
:100B1000D84A0100FC4A0100004B0100184B0100BB
:100B20001C4B0100344B0100384B0100584B0100B5
:100B30005C4B0100744B0100784B01004046A14919
:100B40000EF08AF9A0B96B6803F18908404649465E
:100B50000EF082F9002800F03D82404649460EF032
:100B600089FA99489949FFF77DFC4FF0010A31E273
:100B7000404697490EF070F9B0B96B68D3F88C8095
:100B800048460DF0C1FA804500F02482D5F8048073
:100B900048460DF0B9FAC8F88C008B488D49FFF72C
:100BA00061FC4FF0010A15E240468B490EF054F902
:100BB000B0B96B68D3F8908048460DF0A5FA80452F
:100BC00000F00882D5F8048048460DF09DFAC8F878
:100BD00090007D488149FFF745FC4FF0010AF9E19B
:100BE00040467F490EF038F9B0B96B6893F89480AD
:100BF00048460DF089FA804500F0EC81D5F8048074
:100C000048460DF081FA88F894006F487549FFF75F
:100C100029FC4FF0010ADDE1404673490EF01CF952
:100C2000B0B96B68D3F8988048460DF06DFA8045EE
:100C300000F0D081D5F8048048460DF065FAC8F878
:100C4000980061486949FFF70DFC4FF0010AC1E1C6
:100C5000404667490EF000F9A0B96B6803F19C08A3
:100C6000404649460EF0F8F8002800F0B3814046AF
:100C700049460EF0FFF954485E49FFF7F3FB4FF089
:100C8000010AA7E140465C490EF0E6F8A0B96B689E
:100C900003F19F08404649460EF0DEF8002800F0B8
:100CA0009981404649460EF0E5F947485349FFF718
:100CB000D9FB4FF0010A8DE1404651490EF0CCF8C6
:100CC000A0B96B6803F1AF08404649460EF0C4F87E
:100CD000002800F07F81404649460EF0CBF93A48A3
:100CE0004849FFF7BFFB4FF0010A73E14046464910
:100CF0000EF0B2F8A0B96B6803F1BF084046494650
:100D00000EF0AAF8002800F06581404649460EF032
:100D1000B1F92D483D49FFF7A5FB4FF0010A59E114
:100D200040463B490EF098F8A0B96B6803F1CF0834
:100D3000404649460EF090F8002800F04B814046AE
:100D400049460EF097F920483249FFF78BFB4FF0E8
:100D5000010A3FE1404630490EF07EF8A0B96B68C9
:100D600003F1D708404649460EF076F8002800F017
:100D70003181404649460EF07DF913482749FFF777
:100D800071FB4FF0010A25E1404625490EF064F859
:100D9000002849D16B6893F8DF8048460DF0B4F91C
:100DA000804500F01781D5F8048048460DF0ACF975
:100DB00088F8DF0004481B49FFF754FB4FF0010A95
:100DC00008E100BF904B010030B4FF1F984B0100B9
:100DD000B04B0100B44B0100D84B0100DC4B0100CB
:100DE000F44B0100FC4B0100204C0100244C01009D
:100DF000384C01003C4C01005C4C0100644C01008B
:100E0000804C0100844C0100A44C0100A84C01005E
:100E1000C84C0100CC4C0100EC4C0100F04C01002E
:100E2000104D0100144D0100404680490EF014F8A9
:100E3000B0B96B68D3F8FC8048460DF065F9804581
:100E400000F0C880D5F8048048460DF05DF9C8F878
:100E5000FC0077487749FFF705FB4FF0010AB9E03E
:100E6000404675490DF0F8FFB0B96B6893F8E08023
:100E700048460DF049F9804500F0AC80D5F8048073
:100E800048460DF041F988F8E00069486B49FFF7E2
:100E9000E9FA4FF0010A9DE0404669490DF0DCFF98
:100EA000A0B96B6803F1E108404649460DF0D4FF54
:100EB000002800F08F80404649460EF0DBF85C4881
:100EC0006049FFF7CFFA4FF0010A83E040465E49E0
:100ED0000DF0C2FF98B96B6803F1E408404649463B
:100EE0000DF0BAFF002875D0404649460EF0C2F812
:100EF0004F485649FFF7B6FA4FF0010A6AE04046FC
:100F000053490DF0A9FF98B96B6803F58A784046FC
:100F100049460DF0A1FF00285CD0404649460EF03E
:100F2000A9F843484B49FFF79DFA4FF0010A51E0F9
:100F3000404649490DF090FF98B96B6803F58478F5
:100F4000404649460DF088FF002843D040464946B8
:100F50000EF090F836484149FFF784FA4FF0010A45
:100F600038E040463E490DF077FF90B96B6803F5D5
:100F70009078404649460DF06FFF58B340464946C9
:100F80000EF078F82A483749FFF76CFA4FF0010A5B
:100F900020E0404634490DF05FFFD8B9A868002131
:100FA00014220DF037FCD5F8089009F114030193D1
:100FB000C84608F1010808F1C700C9EB000018F89D
:100FC000011C08F0ABFC019B9845F2D11848274959
:100FD000FFF748FABE423FF625AB154C23685B6825
:100FE000204623490A22984720460AF0E3FABAF13C
:100FF000000F18D023685B6820461E491E229847C0
:1010000020460AF0D7FA4FF496706968FFF748FA5D
:1010100009E0074C23685B68204615490A22984777
:1010200020460AF0C7FA03B0BDE8F08F344D010046
:1010300030B4FF1F384D0100544D0100584D0100E0
:10104000884D01007C4D0100984D01008C4D010040
:10105000AC4D0100A04D0100BC4D0100B04D0100A0
:10106000CC4D0100D04D0100E04D0100E84D0100E4
:10107000084E0100144E010008B508F0F5FB08BD4C
:10108000014A024B1A6070470400FA050CED00E0BB
:10109000024B1A6801321A60704700BFFC97FF1FAD
:1010A000024B1A6801321A60704700BF4496FF1F56
:1010B0000122014B1A707047119EFF1F0122014B44
:1010C0001A707047D19CFF1F0122014B1A707047A4
:1010D000129EFF1F0122014B1A707047139EFF1FC3
:1010E0000122014B1A707047149EFF1F08B508F0CB
:1010F00029FF08BD10B504460AF018FA204610BDB5
:1011000010B50446024B036005F0E2F9204610BD1D
:10111000685B0100F8B5194C23685B6820461849E4
:101120001222984720460AF045FA03251C2401277D
:10113000FA262046394608F01BFF2046394608F0BB
:1011400049FF304608F0B8FF2046002108F042FF72
:10115000304608F0B1FF013DEBD10A480A4907F0DB
:10116000E5FF50B9084B186805F0A8FA074805F0E4
:101170004BFB05F0C3FA08F0EBFEF8BD30B4FF1FDF
:10118000344E01004CB2FF1FE097FF1F7081FFFF3C
:10119000F8B5184C23685B68204617491722984712
:1011A00020460AF007FA03251C240127FA262046C8
:1011B000394608F0DDFE2046394608F00BFF304680
:1011C00008F07AFF2046002108F004FF304608F0BE
:1011D00073FF013DEBD140F6B83008F06DFF074CCE
:1011E000204607F0C9FA204607F06AFB044A054B7F
:1011F0001A60F8BD30B4FF1F484E01004CB2FF1F0B
:101200000400FA050CED00E010B50F490B1FEC319E
:10121000002053F8042F10448B42FAD10CF006FD45
:1012200004460A490CF05AFD01464FF07E500CF07E
:101230004BFC014620460CF005FE05490CF002FE71
:101240000CF038FF10BD00BFFC9CFF1FB2C5FC3581
:101250000000A04010B50F490B1FEC31002053F8DF
:10126000042F10448B42FAD10CF0E0FC04460A49EA
:101270000CF034FD01464FF07E500CF025FC014689
:1012800020460CF0DFFD05490CF0DCFD0CF012FFF0
:1012900010BD00BFE4A0FF1FB2C5FC350000A04098
:1012A0000278012907DD03460139084413F8011FBC
:1012B0004A408342FAD11046704700BF82B0064BC5
:1012C0001B680193019A054B1A600023044A1360BE
:1012D000044A136002B07047E4B2FF1F14A8FF1F56
:1012E000FC97FF1F4496FF1F82B0094B1B680193B8
:1012F0000198084B1B68834288BF00F1FF30C01A79
:10130000054B1A68904234BF0020012002B070479C
:10131000E4B2FF1F14A8FF1F6487FF1F10B582B03F
:1013200001200CF037FF04460CF03CFF01A8001B25
:1013300002B010BD2DE9F0478CB00C46924600215A
:101340000FF0C6F906460F46204600210FF0C0F9FF
:1013500004460D4630463946002200230CF004FBBB
:1013600060B930463946002200230CF0FDFA40B93E
:1013700007F100431F464FF0530804E04FF04E08BA
:1013800001E04FF05308304627F000410CF000FB1D
:1013900081460BF0FDFF02460B46304639460BF006
:1013A000A9FE0022244B0CF059F80CF039FB022165
:1013B000042206AB08F052FB2046294600220023F7
:1013C0000CF0D2FA58B920462946002200230CF02E
:1013D000CBFA30B905F100431D46572602E04526F9
:1013E00000E05726204625F000410CF0D1FA0746D0
:1013F0000BF0CEFF02460B46204629460BF07AFE44
:1014000000220D4B0CF02AF80CF00AFB09AC02216B
:101410000422234608F022FB06AB0093CDF804809B
:1014200002970394049650461921044A4B460DF046
:101430003FFC0CB0BDE8F08700004E40604E01005C
:1014400010B50446092804DC044803681B683021F1
:101450009847024821460AF00DF910BDE09CFF1F95
:1014600010B50446092804DC044803681B682021E1
:101470009847024821460AF0FDF810BDE09CFF1F86
:1014800082B0054B1B680193019B9842C3EB00009F
:1014900038BFC04302B07047E4B2FF1FF8B507463B
:1014A00000240E4D0A260134284604F039FF40B1CD
:1014B000284604F049FF002F0CBF3C233E23834203
:1014C00005D0304608F0F8FDB4F5FA7FEBD1B4F55D
:1014D000FA7FACBF00200120F8BD00BFB4A0FF1F01
:1014E00010B54B4B1B7813F0200F09D0494C2368E3
:1014F0005B68204648492E22984720460AF05AF851
:10150000434B1B7813F0080F09D0424C23685B68EB
:10151000204642491922984720460AF04BF83C4B96
:101520001B7813F0040F09D03A4C23685B682046FF
:101530003B491B22984720460AF03CF8344B1B7865
:1015400013F0020F09D0334C23685B6820463549FD
:101550002422984720460AF02DF8334B1B7813F0CD
:10156000800F09D02B4C23685B6820462F491B2233
:10157000984720460AF01EF82B4B1B7813F0400FBB
:1015800009D0244C23685B68204629491F229847CC
:1015900020460AF00FF8244B1B7813F0200F09D0D7
:1015A0001C4C23685B68204622492022984720462D
:1015B0000AF000F81C4B1B7813F0040F09D0154CEF
:1015C00023685B6820461C4929229847204609F079
:1015D000F1FF154B1B7813F0080F09D00D4C236851
:1015E0005B682046154926229847204609F0E2FF0D
:1015F0000D4B1B7813F0020F09D0064C23685B6873
:1016000020460F4925229847204609F0D3FF10BDF8
:1016100001F0074030B4FF1F744E0100A44E0100DA
:10162000C04E0100DC4E010000F00740044F0100F5
:10163000204F0100404F0100644F0100904F010016
:10164000B84F010008B5C0B208F074F80CF0F2FA17
:1016500004490CF0F7FB04490CF040FB03490CF083
:10166000F1FB08BD00C07F449A99993F8C2EBA3D8A
:10167000F0B589B0704C204606F00CFF204603A957
:1016800006F0BEFF204606F0CDFF204603A901224A
:1016900006F0EAFF70B9204606F0C4FF674C2368E5
:1016A0005B682046664918229847204609F082FF69
:1016B0006448BFE09DF80C30102B09D0282B13D0C4
:1016C0005E4803685B686049182298475D48B1E04E
:1016D0005A4C23685B6820465C4910229847204694
:1016E00009F068FF01270AE0544C23685B68204634
:1016F000574910229847204609F05CFF00274E4CBE
:10170000204606F0C7FE204603A906F079FF2046D2
:101710004421002206F042FF40F2EE2008F0CCFC0B
:10172000204606F0B7FE204603A906F069FF2046D2
:10173000BE21002206F032FF0DF1130407AE3E4D2C
:10174000284606F04DFF04F8010FB442F8D19DF889
:1017500015301D029DF81440002F48D09DF81B2025
:10176000102A66D19DF81A00C0F10C0045EA040366
:101770001BB2DB0023F00F03184400B20CF05AFA3E
:101780004FF076510CF0AAFA05462C4C23685B68A2
:10179000204630491022984728460BF00BFE02469F
:1017A0000B4602260096204609F06EFF23685B6810
:1017B000204629490A229847284628490CF08EFAE3
:1017C0004FF084410CF082F90BF0F4FD02460B4619
:1017D0000096204609F058FF23685B6820462049A0
:1017E0000B229847204609F0E5FE284622E01248E1
:1017F00006F018FF45EA04000CF01CFA4FF0765191
:101800000CF06CFA05460D4C23685B6820461149C4
:101810001022984728460BF0CDFD02460B460221C8
:101820000091204609F030FF204609F0C3FE28460B
:1018300000E0002009B0F0BD1098FF1F30B4FF1F7A
:10184000E04F010000007AC4FC4F01001850010075
:101850002C50010040500100545001006666E63FE4
:101860006050010070B582B0124A13680093009B6B
:1018700011490B6012680192019AD31A0F4A12683B
:1018800093420FD80E4E0B4D0C463078012108F0D4
:101890006FFB2B680193019A2368D31A074A1268D9
:1018A0009342F2D9064B1878002108F061FB02B090
:1018B00070BD00BFE4B2FF1FD8A0FF1F8887FF1FC5
:1018C0006C87FF1F08B5FFF7CDFF72B6044B4AF2D5
:1018D00002621A804BF280421A8062B608BD00BFD5
:1018E0000C20054038B5002425462046294608F03E
:1018F00015F80134B4F5006FF7D10F4C23685B681D
:1019000020460E4918229847204609F053FE0C4CF9
:1019100020460021012206F05DFC23685B6820461A
:101920000849112298474FF47A7008F0C5FB064A1F
:10193000064B1A6038BD00BF30B4FF1F7050010065
:10194000E09CFF1F8C5001000400FA050CED00E044
:1019500070B500F1140604460D1A2046295D07F003
:10196000DDFF0134B442F8D1142070BD2DE9F04FF1
:101970009BB082468846884B9E680836D3F898000C
:101980000CF058F951460CF047FBC0B10A251C2455
:101990004FF00109FA272046494608F0E9FA2046A7
:1019A000494608F017FB384608F086FB2046002120
:1019B00008F010FB384608F07FFB013DEBD1012415
:1019C000764B1C70FFF754FE002122460EAB08F048
:1019D00045F82520FFF736FE0B900021022210ABC0
:1019E00008F03CF86E48002107F0E0FC50B96D4C5F
:1019F00023685B6820466C490A229847204609F014
:101A0000D9FD09E0674C23685B68204667490722D7
:101A10009847204609F0CEFD5F4C4FF07E50616D37
:101A20000CF010FA0146624B186050460CF056F963
:101A30000746504600210A4612AB08F00FF8D4F8CA
:101A400000010CF0F7F8014650460CF003FB50B1D2
:101A500050460CF02FFBC4F80001524803685B6845
:101A600054490F2298474F4C23685B6820465249DF
:101A700008229847DFF820912046D9F800110A2261
:101A8000002309F0BBFD204609F094FD4FF07E5085
:101A9000D9F85C100CF0D6F9484B186041460CF0B0
:101AA0001DF90546404600210A4616AB07F0D6FF51
:101AB000D9F804010CF0BEF8014640460CF0CAFA11
:101AC00050B140460CF0F6FAC9F8040120462368EC
:101AD0005B683B490F229847324C23685B6820467D
:101AE00038490822984720462B4BD3F804110A2284
:101AF000002309F083FD204609F05CFD324C2046AE
:101B000006F05EFB204600210A4606F063FB2368D0
:101B10005B6820462D490322984750462C490CF01B
:101B20008FFA00285CD0504629490CF08BF9DFF879
:101B3000A890042103224B4607F090FF254C204635
:101B4000494604220DF07EFB20460DF0F1FA0138E3
:101B5000235C2E2B01D1002222541E4C20460DF076
:101B6000E7FA0246DFF86090D9F800305B68484633
:101B700021469847184C194B93E803002060A18038
:101B800020460DF0D5FA0246D9F800305B68484689
:101B90002146984746E000BF7896FF1FE497FF1F55
:101BA0004CB2FF1F30B4FF1FB0500100BC50010009
:101BB0006C96FF1FC4500100D4500100F8A1FF1F14
:101BC000E0500100F0500100E09CFF1FFC500100BC
:101BD00000007A44B897FF1F4896FF1F005101008C
:101BE000A14C504600210A46234607F037FF204605
:101BF0000DF09EFA0246DFF87892D9F800305B6863
:101C0000484621469847994B93E803002060A180FD
:101C100020460DF08DFA0246D9F800305B68484640
:101C200021469847924C38460BF0C4FB02460B46BF
:101C300002210091204609F027FD23685B682046B9
:101C40008C490322984720460021012206F0C2FA5F
:101C500023685B68204688490322984740468749A5
:101C60000CF0EEF9002833D0404684490CF0EAF835
:101C70007D4F042103223B4607F0F0FE804C2046B6
:101C8000394604220DF0DEFA20460DF051FA0138F3
:101C9000235C2E2B01D100222254794C20460DF0DA
:101CA00047FA0246724F3B685B68384621469847C0
:101CB0006D4C744B93E803002060A18020460DF02A
:101CC00037FA02463B685B683846214698471EE073
:101CD000654C404600210A46234607F0BFFE2046D9
:101CE0000DF026FA0246624F3B685B683846214693
:101CF00098475E4B93E803002060A18020460DF0DA
:101D000017FA02463B685B68384621469847584CAC
:101D100028460BF04FFB02460B4602250095204655
:101D200009F0B2FC23685B682046524903229847B9
:101D3000204600212A4606F04DFA534B93F8605096
:101D400023685B682046514A5149002D18BF11464F
:101D50000422984723685B6820464E49082298472A
:101D60004D484E4907F08EFA28BB4D4C23685B68FE
:101D700020464C4907229847484F2046396809F0C9
:101D800079FC2368484D5B68204629460322984722
:101D9000204609F00FFC364C20460D21032206F0A8
:101DA00019FA2046396809F065FC23685B6820460B
:101DB0002946032298473D4C8025204600212A468B
:101DC0000CF028FD04F01AFD804604F00DFD0746D6
:101DD00004F000FD834604F0DFFC824604F0E6FCDC
:101DE000814604F0EDFCCDF800B0CDF804A0CDF8AC
:101DF0000890039020462E4942463B460CF08CFF4B
:101E0000DFF88480DFF8C49008F1300008F1400169
:101E10004A46FFF78FFA274F384600212A460CF032
:101E2000F9FCD8F80830009412AA0192CDF8089075
:101E300038462149214A0CF06FFF38460DF078F9F9
:101E400004461F4B186000233B54781C2146FFF7C3
:101E500027FA02461B4B18700F2839D83846204401
:101E600019490CF059FF38E04896FF1F085101004E
:101E7000E09CFF1F105101001451010000007A4442
:101E8000B897FF1F005101007896FF1FA050010076
:101E9000A8500100185101004CB2FF1F8487FF1F9A
:101EA00030B4FF1F245101002C510100989EFF1FE8
:101EB00030510100189EFF1F505101006C5101006C
:101EC0004096FF1FDC97FF1F74510100D4A1FF1F34
:101ED0007148204471490CF01FFF6F4D28460DF0EA
:101EE00027F902466E4C23685B68204629469847CE
:101EF000204609F05FFB6B4C2046002180220CF04D
:101F000089FC694BDB68694A009216AA0192684A0B
:101F1000029220466749684A0CF0FEFE20460DF00A
:101F200007F90546654B186000232354601C2946B9
:101F3000FFF7B6F90246624B18700F2805D8204605
:101F4000284460490CF0E8FE04E056482844534910
:101F50000CF0E2FE534C594B1B6804EB03085A4B40
:101F60001F78514DD5F804B0584BD3F80CA0D3F8D6
:101F70000890FFF7D3F9564B0093CDF804B00EABA1
:101F8000029310AB0393CDF810A0CDF814900690F7
:101F900005F5847507954F4B1B68089340464E49DD
:101FA0003A464E4B0CF0B8FE20460DF0C1F8024602
:101FB0003B4D2B685B68284621469847284609F028
:101FC000F9FA474B1B78002B34D0334F38460DF0CD
:101FD000AFF80246434D2B685B6828463946984760
:101FE000284609F0E7FA38460DF0A2F802463E4CC2
:101FF00023685B68204639469847204609F0DAFA9C
:10200000284F38460DF094F802462B685B68284646
:1020100039469847284609F0CDFA38460DF088F839
:10202000024623685B68204639469847204609F0F7
:10203000C1FA1EE02D4C20460D21022206F0CAF8FE
:1020400023685B6820462A49072298471C20012103
:1020500007F08EFF1C20012107F0BCFFFA2008F0DA
:102060002BF81C20002107F0B5FF1A20012107F0F2
:102070007FFF40F201431F4A1360104A13601E4A5B
:102080001360094B93F86030002B3DD01B481C496E
:102090001C4A0CF041FE3CE0189EFF1F7C510100E1
:1020A00030B4FF1FC095FF1F7896FF1F989EFF1F3B
:1020B000D4A1FF1F505101006C5101006896FF1F11
:1020C000109EFF1F74510100DC97FF1FA497FF1F94
:1020D000A8510100B09EFF1F80510100A4510100D2
:1020E000049EFF1FB4A0FF1FA89CFF1FE09CFF1FC2
:1020F000B05101004096FF1FD897FF1F289CFF1F7B
:10210000B85101009096FF1F9D489E499E4A0CF0D1
:1021100003FEDFF8D8829D4C04F1400704F130053E
:10212000A368009312AB0193D4F8903002939848BF
:1021300041463A462B460CF0EFFDE368009316ABA0
:102140000193D4F890300293924841463A462B4688
:102150000CF0E2FD00960EAB0193D4F890300293A0
:102160008D488E493A462B460CF0D6FD8C4EDFF852
:1021700080828C4F30468C4B19680CF07BFF3046C8
:102180000CF0D6FF0246894C23685B682046314636
:102190009847204609F00EFA854B1B6800937C4B4C
:1021A0000193844B0293844B03930023049383484D
:1021B00031465022724B06F0EFFD002840F041817D
:1021C00023685B6820467E4920229847204609F014
:1021D000F1F923687B4F5B68204639460B2298470C
:1021E000744D28460CF0A4FF024623685B68204625
:1021F000294698472368744E5B6820463146012281
:102200009847204609F0D6F940F6B83007F054FF59
:10221000DFF8A8A1DFF88891DFF894B1DBF800308F
:1022200000935C4B0193DFF8CC81CDF80880674BBD
:10223000039300250495504649465022504B06F022
:10224000ABFD23685B682046614920229847204601
:1022500009F0B0F923685B68204639460B2298479D
:1022600040460CF065FF024623685B682046414605
:10227000984723685B6820463146012298472046EC
:1022800009F098F940F6B83007F016FFDBF8003097
:102290000093414B0193DFF86081CDF808804D4BEE
:1022A00003930495504649465022354B06F074FD81
:1022B00023685B682046484923229847204609F056
:1022C00079F923685B68204639460B2298474046D7
:1022D0000CF02EFF024623685B6820464146984773
:1022E00023685B682046314601229847204609F062
:1022F00061F91A20294607F03BFE384C20460D2193
:10230000022205F067FF23685B68204634490722F4
:10231000984720462946032205F05CFF20462946BF
:10232000032205F057FF23685B6820462D490422ED
:10233000984720460421032205F04CFF0EA80CF01C
:10234000F7FE024623685B6820460EA9984723687B
:102350005B68204624490122984720460A2103222F
:1023600005F038FF0B980BF025F802460B460225C6
:102370000095204609F088F923685B6820463DE017
:10238000289CFF1FDC5101009096FF1F7896FF1FCD
:1023900014A6FF1F10A2FF1F10A4FF1F7052010000
:1023A0004896FF1F0400FA057C87FF1F30B4FF1F0B
:1023B0007087FF1F2498FF1F4096FF1F4CB2FF1F1E
:1023C000E85201000C530100185301006896FF1FEA
:1023D0001C530100D897FF1F40530100E09CFF1FD2
:1023E000645301006C530100AC580100FC51010022
:1023F0000CED00E028A8FF1F2CACFF1F564901225E
:102400009847564B1B680C930C9A554B1A60204604
:1024100004212A4605F0DEFE04F0BEF9FFF710F8AD
:1024200023685B6820464F490122984704F0BEF9B3
:10243000FFF706F823685B6820464B49032298475C
:1024400087E04A480D21022205F0C4FE484C23686B
:102450005B682046474915229847204609F0AAF8AC
:1024600023685B682046444915229847204609F0B6
:10247000A1F8424A53780133DBB25370404A1268E4
:10248000934208DB3F4C204606F076F9204606F0E2
:1024900017FAC8F80070354D2B685B6828463A4932
:1024A00005229847DFF8F490D9F80C300133C9F8C9
:1024B0000C302F4C23685B68204634490A22984729
:1024C000204609F077F8C8204946FFF741FA304B1B
:1024D0001A6801321A601C20012107F049FD1C20F6
:1024E000012107F077FDFA2007F0E6FD1C2000210E
:1024F00007F070FD1A20012107F03AFDDFF87C900B
:10250000284699F801100A22002309F077F82B6871
:102510005B6828461F490122984723685B6820466C
:102520001D491122984799F80130154A1168204633
:10253000C91A09F09FF8204609F03CF8074B1B68C0
:102540000D930D9A064B1A604FF47A7007F0B4FDA4
:1025500010E61BB0BDE8F08F74530100E4B2FF1F1A
:10256000CC9CFF1FAC590100B4560100E09CFF1F3A
:1025700030B4FF1F7853010090530100EC9DFF1F02
:102580006887FF1F4CB2FF1FA8530100B053010022
:10259000D49CFF1FF8530100BC530100A497FF1FF8
:1025A0002DE9F04387B000256B4B1D706B4C204626
:1025B00005F006FE204629462A4605F00BFE236854
:1025C0005B682046664907229847664B1B78FBB933
:1025D00065484FF4165103F05BFF0320012107F01B
:1025E000F9FC0320294607F0C3FC642007F064FDD2
:1025F0000320012107F0BCFC0120FEF74FFF18B9B2
:1026000001225A4B1A7003E00122594B1A7047E01D
:10261000574B1B78002B43D1504C204608210022F9
:1026200005F0D8FD23685B6820465249042298478C
:1026300002A8514909F05AF9504C04F5847502A8D2
:1026400029460C22002309F0B9F94FF4967021466F
:10265000FDF726FF28460CF06BFD0246484C236828
:102660005B682046294698474FF4FA6007F024FD3E
:102670001A20012107F07CFC204608F09BFF23680C
:102680005B6820463F490D229847204608F092FF9C
:1026900002A809F0DFF8364B1B78002B00F06881A8
:1026A000394A13680193019B38490B601268029202
:1026B000029AD31A364A1268934200F25981354B76
:1026C0001B7813F0FF0F0AD1334B1B7813F0FF0F69
:1026D00068D025E02F4B1B7813F0FF0F1BD0284C40
:1026E00023685B6820462D4902229847204608F05F
:1026F00061FF284B1A7882F001021A700022264BE3
:102700001A70164805F05CFD40F6B832204B1A608E
:1027100003F02EF958E1204B1B7813F0FF0F45D042
:10272000174C23685B6820461D49042298472046C1
:1027300008F040FF184B1A7882F001021A7000224C
:10274000144B1A70054805F03BFD40F6B832104BAB
:102750001A6000F073F937E1E497FF1FE09CFF1F58
:10276000D0530100BC95FF1FB4A0FF1F7096FF1F40
:10277000049EFF1FD8530100E05301007896FF1F0D
:1027800030B4FF1FEC530100E4B2FF1FD8A0FF1FBD
:102790008087FF1FD19CFF1F119EFF1FFC5301006C
:1027A000005401008A4F8B4EDFF888823B7813F08B
:1027B000FF0F14D033685B683046414605229847C6
:1027C000304608F0F7FE3B7883F001033B700023AE
:1027D000814A1370814A1370814A824B1A60824B7E
:1027E0001B78002B74D1814C20460821002205F073
:1027F000F1FC23687E4D5B682046294605229847F8
:1028000020460021012205F0E5FC23685B68204694
:10281000784908229847304608F0CCFE33685B6858
:10282000304675490D229847304608F0C3FEDFF860
:10283000089248467149FDF789FE23685B68204687
:1028400029460522984720460021022205F0C2FCB5
:1028500023685B6820466A4908229847304608F09A
:10286000A9FE33685B6830466649152298473046B2
:1028700008F0A0FE48466449FDF768FE23685B68DF
:10288000204629460522984720460021032205F0CC
:10289000A1FC23685B6820465C49082298473046C3
:1028A00008F088FE33685B6830465949152298471E
:1028B000304608F07FFE48465649FDF747FE23683C
:1028C0005B6820462946052298470122464B1A702C
:1028D000464C20460821002205F07CFC2368444D2C
:1028E0005B682046294605229847204600210122A0
:1028F00005F070FC23685B6820463E490822984733
:1029000023685B6820462946052298472046002117
:10291000022205F05FFC23685B68204638490822E4
:10292000984723685B682046294605229847204639
:102930000021032205F04EFC23685B6820463349E2
:102940000822984723685B68204629460522984755
:1029500040F6B83007F0B0FB2F4B1B680293029A89
:102960002E4B1B68D21A1F4B1B689A427FF6B2AEE1
:102970002B4B93F8503083B14FF07E50284B596D5C
:102980000BF060FA274B18600E20022107F022FBA3
:102990000E202549022207F075FA214B93F8583092
:1029A00083B14FF07E501E4BD96D0BF04BFA1F4B8D
:1029B00018600F20022107F00DFB0F201C49022296
:1029C00007F060FA00F03AF807B0BDE8F08300BF06
:1029D000149EFF1F30B4FF1FD19CFF1F119EFF1FCD
:1029E000A08601008087FF1FBC95FF1FE09CFF1F92
:1029F0001054010018540100245401003454010003
:102A0000405401004C540100645401007054010012
:102A10007C54010094540100E4B2FF1FD8A0FF1FB2
:102A20007896FF1F6C96FF1F91100000F8A1FF1F02
:102A3000A110000008540100E897FF1F2DE9F041A4
:102A400088B00025754B1D70754C204605F0B8FB0D
:102A5000204629462A4605F0BDFB23685B682046D0
:102A600070491222984720462946012205F0B2FB00
:102A700023685B6820466C490F2298476B4B1B7894
:102A8000002B40F044816A48294605F081FEF0B9E8
:102A90006748294606F08AFCC8B9664D644829464D
:102AA00006F0F0FB644C23685B682046634907220C
:102AB00098472046296808F0DDFD23685B682046BA
:102AC0005F4904229847204608F074FD32E0544CD8
:102AD00020460021012205F07DFB23685B6820462B
:102AE00058491422984704A8574908F0FFFE574C4C
:102AF00004A804F584710C22002308F05FFF4FF452
:102B000096702146FDF7CCFC1C20012107F030FA1D
:102B10001C20012107F05EFAFA2007F0CDFA1C20F4
:102B2000002107F057FA1A20012107F021FA04A822
:102B300008F090FE3E48464906F0F8FA002840F0BA
:102B40009D80434B186803F0B9FD424803F05CFEDA
:102B500003F0D4FD07F0FCF93C4BD3F8FC30002B1C
:102B600022DD3D4A02FB03F1914206DC0323009380
:102B70003A483B4A002303F0F3FF2F4C23685B687D
:102B8000204638490E2298472046304BD3F8FC1097
:102B900008F070FD23685B6820463349052298479A
:102BA000204608F007FD15E0234C23685B682046AB
:102BB0002C490E22984723685B6820462B49012246
:102BC000984723685B682046274905229847204696
:102BD00008F0F0FC0323009320484AF6C871244A09
:102BE000002303F0BDFF144C23685B682046214995
:102BF0000F229847204608F0DDFC2046144B196848
:102C00000A22002308F0FAFC23685B6820461A4970
:102C100005229847204608F0CDFC4DE0E497FF1FC1
:102C2000E09CFF1FA4540100B8540100D89CFF1F72
:102C30004CB2FF1F8487FF1F30B4FF1F24510100D7
:102C4000C8540100D0540100E85401007896FF1FD9
:102C5000E097FF1F7081FFFF80510100A4B0FF1FAC
:102C600091110000F4540100045501000C550100BD
:102C7000151100001055010020550100934C2368E8
:102C80005B682046924912229847204608F092FC41
:102C900004A8904908F02AFE8F4C04A804F584711A
:102CA0000C22002308F08AFE4FF496702146FDF7AF
:102CB000F7FB04A808F0CEFD884C874B03F16102B6
:102CC000226075336360002006F034FD08F080FD5B
:102CD000022008F0B3FD824E54F8203033607B4C64
:102CE00023685B6820467F49192298477E4D284615
:102CF00031680CF0BFF928460CF01AFA0246236836
:102D00005B68204629469847204608F053FC7748E0
:102D100005F056FA764A13680393039B75490B60D6
:102D200012680492049AD31A734A12689A42C0F045
:102D3000C480724B1B7813F0FF0F0AD1704B1B78C5
:102D400013F0FF0F42D025E06C4B1B7813F0FF0F00
:102D50001BD05E4C23685B6820466A490222984774
:102D6000204608F027FC654B1A7882F001021A70A1
:102D70000022634B1A705D4805F022FA40F6B83223
:102D80005D4B1A60FFF70CFC9CE05D4B1B7813F069
:102D9000FF0F20D04D4C23685B6820465A4904221F
:102DA0009847204608F006FC554B1A7882F001023D
:102DB0001A700022514B1A704C4805F001FA40F687
:102DC000B8324D4B1A6000F0B5F87BE04F4FDFF89A
:102DD000088108F1E1063B7813F0FF0F15D03B4C5A
:102DE00023685B6820464A4905229847204608F038
:102DF000E1FB3B7883F001033B7000233F4A1370F3
:102E00003F4A1370434A3C4B1A60384C204600211D
:102E10000A4605F0DFF923685B6820463E490A222E
:102E2000984720460021012205F0D4F923685B6809
:102E300020463A49072298472046394B196808F03E
:102E400019FC23685B6820463649042298472046CF
:102E50000021022205F0BEF923685B682046324952
:102E60000822984730460CF063F9024623685B68F5
:102E700020463146984720460021032205F0AAF952
:102E800023685B68204629490722984708F58A7518
:102E900028460CF04DF9024623685B682046294617
:102EA0009847134B1B680493049A124B1B68D21A61
:102EB000114B1B689A427FF647AF01221C4B1A70D8
:102EC00000F038F808B0BDE8F08100BF30B4FF1F53
:102ED000285501003C5501007896FF1F0898FF1FF8
:102EE0007C87FF1F485501004896FF1FE09CFF1F8D
:102EF000E4B2FF1FD8A0FF1F8087FF1FD19CFF1FD8
:102F0000119EFF1FFC53010000540100149EFF1F7F
:102F100008540100A08601006455010070550100AD
:102F20008487FF1FC85401007855010084550100B3
:102F3000D89CFF1F2DE9F0418AB00026954B1E70EA
:102F4000954C20463146324605F044F923685B68CB
:102F5000204692490F22984720463146012205F02B
:102F600039F923685B6820468D4907229847204637
:102F70008C4B196808F07EFB23685B6820468A4901
:102F80000422984720463146022205F023F923689F
:102F90005B682046854908229847854D28460CF0F5
:102FA000C7F8024623685B682046294698472046B2
:102FB0003146032205F00EF923685B6820467D49FF
:102FC0000622984723685B6820467B490C22984775
:102FD000DFF83C8240F20143C8F80030774F3C46AE
:102FE000774D0FCD0FC40FCD0FC495E8030044F803
:102FF000040B217038460CF09BF80246714C236894
:103000005B68204639469847204608F0D3FA6E4B55
:103010000093D8F800300193029603966B48394626
:1030200050226B4B05F074FD002831D1694C2046CD
:10303000654908F0B5FC06A8674908F057FC20462A
:1030400006A908F0E5FC044606A808F003FC6CB9E4
:103050005C4C23685B68204660491B2298472046E9
:1030600008F0A8FA01225E4B1A702AE0554C23683A
:103070005B6820465B4902229847204608F09AFA8E
:103080000022574B1A701A20012106F071FF18E038
:103090004C4C23685B68204653491D229847534B8C
:1030A0001D6828460CF044F8024623685B682046F9
:1030B00029469847204608F07DFA1A20012106F09B
:1030C00057FF354805F07CF8494A13680493049B80
:1030D00048490B6012680592059AD31A464A12684D
:1030E000934200F23E81454B1B7813F0FF0F10D145
:1030F000434B1B7813F0FF0F2ED1424B1B7813F07C
:10310000FF0F00F0AA808AE03C4B1B7813F0FF0F02
:103110001DD02C4C23685B6820463B49022298470F
:10312000204608F047FA354B1A7882F001021A70EF
:103130000023334A1370334A1370174805F040F8E0
:1031400040F6B8322C4B1A60FFF778FC0EE12C4B9E
:103150001B7813F0FF0F5DD01A4C23685B68204684
:103160002A4904229847204608F024FA244B1A786A
:1031700082F001021A700023204A1370214A137052
:10318000054805F01DF840F6B8321B4B1A6000F0F8
:1031900021F9EBE0E497FF1FE09CFF1FBC55010005
:1031A000705501008487FF1FC85401007855010045
:1031B0005997FF1FCC550100D45501004896FF1FB9
:1031C0004056010030B4FF1F2498FF1F4CB2FF1F70
:1031D000289CFF1FF49DFF1FE4550100F4550100DA
:1031E000F0A1FF1F88580100105601007C87FF1FC7
:1031F000E4B2FF1FD8A0FF1F8087FF1FD19CFF1FD5
:10320000119EFF1F139EFF1FFC530100005401007D
:103210004096FF1F574B1B7813F0FF0F1FD0564CE3
:1032200023685B682046554905229847204608F0E8
:10323000C1F9504B1A7882F001021A700023504AEB
:103240001370504A1370504804F0BAFF41F28832AC
:103250004E4B1A6002F0E8F988E04D4F4D4E4E4B50
:103260001B7813F0FF0F16D0434C23685B68204691
:103270004A4905229847204608F09CF9464B1A789F
:1032800082F001021A7000233E4A13703C4A137008
:10329000434A3E4B1A603C4C204600210A4604F04B
:1032A00099FF23685B6820463E490F2298472046D5
:1032B0000021012204F08EFF23685B6820463A4912
:1032C000072298472046394B196808F0D3F923683C
:1032D0005B68204636490422984720460021022296
:1032E00004F078FF23685B6820463249082298473B
:1032F00038460BF01DFF024623685B6820463946BE
:10330000984720460021032204F064FF23685B688D
:103310002046294906229847284B1D783446284BD9
:10332000284A002D0CBF15461D460FCD0FC495E849
:10333000030044F8040B217030460BF0F9FE0246FE
:10334000114801684C683146A0471F4B1B68059324
:10335000059A1E4B1B68D21A0C4B1B689A427FF6CB
:10336000D3AE01221A4B1A7000F034F80AB0BDE84F
:10337000F08100BF139EFF1F30B4FF1F30560100C5
:10338000119EFF1FD19CFF1FE09CFF1F8087FF1F26
:103390005997FF1F4896FF1F149EFF1F08540100F6
:1033A000A0860100BC550100705501008487FF1FF5
:1033B000C85401007855010038560100F0A1FF1FE4
:1033C0008C550100A4550100E4B2FF1FD8A0FF1FD7
:1033D000D89CFF1FF0B585B000224D4B1A704D48A8
:1033E00003F022FA03F018FA022818D04A4C236896
:1033F0005B68204649491B229847204608F0DAF8C6
:10340000474B9B68474AA2FB0312520B4648474969
:1034100042F2107404FB12320BF07EFC18E03E4CBA
:1034200023685B682046424923229847204608F0DB
:10343000C1F803F0E3F9054603F0D6F9044603F0BA
:10344000C9F9009038483B492A4623460BF064FCF2
:10345000394804F0B5FE394A13680293029B384993
:103460000B6012680392039AD31A364A12689A4282
:10347000C0F0F080344B1B7813F0FF0F0AD1334BB0
:103480001B7813F0FF0F67D025E02F4B1B7813F04C
:10349000FF0F1BD0204C23685B6820462C4902227A
:1034A0009847204608F086F8274B1A7882F00102E8
:1034B0001A700022254B1A701F4804F081FE40F656
:1034C000B832204B1A60FFF735FDB6E11F4B1B7871
:1034D00013F0FF0F43D0104C23685B6820461D4952
:1034E00004229847204608F065F8184B1A7882F0B5
:1034F00001021A700022144B1A700F4804F060FE8B
:1035000040F6B8320F4B1A6000F0ACF995E100BFFD
:10351000E497FF1FED10000030B4FF1F6856010054
:103520007896FF1F5917B7D118A8FF1F84560100BE
:1035300094560100B8560100E09CFF1FE4B2FF1F43
:10354000D8A0FF1F8087FF1FD19CFF1F119EFF1F68
:10355000FC53010000540100664E674F674D3378FD
:1035600013F0FF0F14D03B685B68384664490522AE
:103570009847384608F01EF8337883F0010333701B
:103580000023604A1370604A1370604A604B1A60EF
:10359000604C204600210A4604F01CFE23685B684C
:1035A00020465D490A22984720460021012204F066
:1035B00011FE23685B68204658490522984703F0AE
:1035C00013F90146204608F055F823685B68204649
:1035D00053490122984703F0FDF80146204608F0C0
:1035E00049F820460021022204F0F4FD23685B68BC
:1035F00020464C490522984703F0CEF8FDF720FFFE
:1036000023685B68204648490122984703F0CEF8BA
:10361000FDF716FF20460021032204F0DBFD23689E
:103620005B68204641490522984728460BF080FDFB
:10363000024623685B682046294698473C4B1B6836
:103640000393039A3B4B1B68D21A314B1B689A4277
:103650007FF61BAF384B93F860304BB1264C236894
:103660005B682046354925229847204607F0A2FF8F
:103670000122334B1A70334B1B78002B36D1324B5F
:103680001B78002B32D0314B1A7031490B6913442F
:103690000B61C820FEF75CF92E4C2F4E2F4D23688E
:1036A0005B68204631460722984728460BF040FDCC
:1036B000024623685B6820462946984720460D212C
:1036C00002F04CFE0020FDF7E9FE002848D103205F
:1036D000002106F04DFC642006F0EEFC03200121E1
:1036E00006F046FC0120FDF7D9FED8E700F0BAF855
:1036F000A3E000BF149EFF1F30B4FF1F1497FF1FED
:1037000008540100D19CFF1F119EFF1FA0860100DD
:103710008087FF1FE09CFF1FCC560100D856010098
:10372000E0560100E4560100AC590100EC560100DE
:10373000E4B2FF1FD8A0FF1F7896FF1FF4560100C8
:10374000BC95FF1FD09CFF1F049EFF1F7096FF1F9C
:10375000A497FF1FB4A0FF1F1C57010018A8FF1F4C
:10376000374C2546374E0FCE0FC533682B602046A9
:103770000BF0DEFC0246344E33685B68304621466F
:10378000984720460BF0D4FC0246304D2B685B680E
:1037900028462146984720462D490BF0BDFA204681
:1037A0000BF0C6FC02462B685B682846214698470A
:1037B000284607F0FFFE20460BF0BAFC02463368AD
:1037C0005B6830462146984722490A69CB68896878
:1037D0000091204620490BF09FFA20460BF0A8FCF0
:1037E000024633685B6830462146984720460BF016
:1037F0009FFC02462B685B6828462146984728466E
:1038000007F0D8FE20461549154A0BF085FA2046E8
:103810000BF08EFC02462B685B68284621469847D1
:10382000284607F0C7FE20460BF082FC02463368AC
:103830005B6830462146984758E705B0F0BD00BFA9
:103840004896FF1F24570100B4A0FF1F30B4FF1F8C
:103850008C87FF1FA497FF1F385701005C5701009A
:103860008097FF1FF0B583B00025764B1D70764C16
:10387000204604F0A5FC204629462A4604F0AAFC6E
:1038800023685B68204671491022984720462946E4
:10389000012204F09FFC23685B6820466C490B22E0
:1038A00098474FF47A7006F007FC204604F088FC35
:1038B000684A13680093009B67490B601268019285
:1038C000019AD31A654A1268934200F2B680644B9B
:1038D0001B7813F0FF0F0AD1624B1B7813F0FF0F18
:1038E00046D027E05E4B1B7813F0FF0F1DD05E4CD7
:1038F00023685B6820465D4902229847204607F00E
:1039000059FE574B1A7882F001021A700023554A6B
:103910001370574A13704C4804F052FC40F6B8320A
:103920004E4B1A60FFF756FD89E04E4B1B7813F0A3
:10393000FF0F20D04C4C23685B6820464D49042281
:103940009847204607F036FE464B1A7882F001026F
:103950001A700023424A1370454A13703A4804F023
:103960002FFC40F6B8323D4B1A6000F095F866E047
:10397000414D3D4E414F2B7813F0FF0F14D033686B
:103980005B683046394605229847304607F012FEFC
:103990002B7883F001032B700023314A1370314AD6
:1039A0001370374A2D4B1A6002F036FF264C204622
:1039B00000210A4604F00EFC23685B68204631496A
:1039C0000422984720460021012204F003FC2368CA
:1039D0005B6820462C490A22984720460021022293
:1039E00004F0F8FB23685B682046284909229847C1
:1039F00020460021032204F0EDFB23685B6820468B
:103A000023490522984702F0C7FEFDF719FD2368F8
:103A10005B6820461F490122984702F0C7FEFDF768
:103A20000FFD0C4B1B680193019A0B4B1B68D21ABC
:103A30000A4B1B689A427FF655AF00F02DF803B091
:103A4000F0BD00BFE497FF1FE09CFF1F705701000F
:103A500084570100E4B2FF1FD8A0FF1F8087FF1F1B
:103A6000D19CFF1F119EFF1F30B4FF1FFC530100AC
:103A7000139EFF1F00540100149EFF1F08540100F5
:103A8000A08601009057010098570100A45701003B
:103A9000E4560100AC590100F0B583B000226B4B35
:103AA0001A706B4804F08CFB6A4A13680093009B01
:103AB00069490B6012680192019AD31A674A126829
:103AC000934200F2BE80664B1B7813F0FF0F0AD1C1
:103AD000644B1B7813F0FF0F42D025E0604B1B783E
:103AE00013F0FF0F1BD0604C23685B6820465F49D2
:103AF00002229847204607F05DFD594B1A7882F064
:103B000001021A700022574B1A70514804F058FBFA
:103B100040F6B832514B1A60FFF7A4FE93E0514BC8
:103B20001B7813F0FF0F1FD04F4C23685B682046B3
:103B30004F4904229847204607F03CFD494B1A782C
:103B400082F001021A700022454B1A70404804F0BE
:103B500037FB40F6B832414B1A6000F09DF872E036
:103B6000444F454D05F19C063B7813F0FF0F15D0EF
:103B70003D4C23685B682046404905229847204613
:103B800007F018FD3B7883F001033B700023344AB3
:103B90001370344A13703A4A304B1A602C4C20464A
:103BA00000210A4604F016FB23685B68204635496D
:103BB0000F22984720460021012204F00BFB2368C6
:103BC0005B682046304909229847204669680A22E6
:103BD000002307F013FD20460021022204F0FAFA28
:103BE00023685B68204629490922984730460BF034
:103BF0009FFA024623685B68204631469847204674
:103C00000021032204F0E6FA23685B68204620497D
:103C1000092298472046D5F8981007F02BFD236815
:103C20005B6820461B49032298470A4B1B68019397
:103C3000019A094B1B68D21A084B1B689A427FF6FF
:103C40004DAF00F029F803B0F0BD00BFE497FF1FAF
:103C5000E09CFF1FE4B2FF1FD8A0FF1F8087FF1F5B
:103C6000D19CFF1F119EFF1F30B4FF1FFC530100AA
:103C700000540100149EFF1F7896FF1F0854010096
:103C8000A0860100B0570100C0570100CC570100C9
:103C9000D8570100E4570100F0B583B000225D4B16
:103CA0001A705D4804F08CFA5C4A13680093009B1C
:103CB0005B490B6012680192019AD31A594A126843
:103CC000934200F2A280584B1B7813F0FF0F0AD1E9
:103CD000564B1B7813F0FF0F42D025E0524B1B7858
:103CE00013F0FF0F1BD0524C23685B6820465149EC
:103CF00002229847204607F05DFC4B4B1A7882F071
:103D000001021A700022494B1A70434804F058FA15
:103D100040F6B832434B1A60FFF7BEFE77E0434BE4
:103D20001B7813F0FF0F1ED0414C23685B682046C0
:103D3000414904229847204607F03CFC3B4B1A7847
:103D400082F001021A700022374B1A70324804F0D8
:103D500037FA40F6B832334B1A6000F07DF856E07F
:103D6000364D334E364F2B7813F0FF0F14D0336897
:103D70005B683046394605229847304607F01AFC02
:103D80002B7883F001032B700023274A1370274AF6
:103D900013702C4A234B1A601F4C204600210A4600
:103DA00004F018FA23685B68204627490B229847DD
:103DB00020460021012204F00DFA23685B682046AA
:103DC00022490D22984720460021022204F002FADF
:103DD00023685B6820461E4912229847204600212E
:103DE000032204F0F7F923685B6820461949122280
:103DF00098470A4B1B680193019A094B1B68D21A1A
:103E0000084B1B689A427FF669AF00F025F803B0B3
:103E1000F0BD00BFE497FF1FE09CFF1FE4B2FF1F4F
:103E2000D8A0FF1F8087FF1FD19CFF1F119EFF1F7F
:103E300030B4FF1FFC53010000540100149EFF1F0B
:103E400008540100A0860100E8570100F457010062
:103E500004580100185801002DE9F04182B00022F9
:103E60008D4B1A708D4804F0ABF98D4A136800939E
:103E7000009B8C490B6012680192019AD31A8A4AFE
:103E80001268934200F2C980884B1B7813F0FF0F31
:103E90000AD1874B1B7813F0FF0F42D025E0834BEC
:103EA0001B7813F0FF0F1BD0824C23685B68204601
:103EB000814902229847204607F07CFB7B4B1A7809
:103EC00082F001021A700022794B1A70734804F0D4
:103ED00077F940F6B832744B1A60FFF7DDFED8E090
:103EE000734B1B7813F0FF0F20D0724C23685B6874
:103EF0002046724904229847204607F05BFB6C4B32
:103F00001A7882F001021A700022684B1A70634816
:103F100004F056F940F6B832634B1A6000F0E2F84C
:103F2000B7E0DFF8BC81664E06F1400798F8003034
:103F300013F0FF0F17D05F4C23685B682046614980
:103F400005229847204607F035FB98F8003083F0AB
:103F5000010388F800300023544A1370544A137048
:103F6000594A514B1A604D4C204600210A4604F034
:103F700031F923685B68204654490C229847204653
:103F80000021012204F026F923685B68204650498D
:103F90000422984738460BF0CBF8024623685B684A
:103FA00020463946984720460021022204F012F9A3
:103FB00023685B68204647490422984706F130058C
:103FC00028460BF0B5F8024623685B682046294670
:103FD000984720460021032204F0FCF823685B6820
:103FE00020463D49042298472046D6F890100A22E0
:103FF000002307F003FB23685B6820463749012252
:104000009847274B1B680193019A264B1B68D21ACD
:10401000254B1B689A427FF642AF264C23685B68AB
:1040200020462B4904229847254D05F1400630468D
:104030000BF07EF8024623685B68204631469847BD
:10404000204607F0B7FA23685B682046214904221E
:10405000984705F1300630460BF06AF802462368AF
:104060005B68204631469847204607F0A3FA23684C
:104070005B6820461849042298472046D5F89010DE
:104080000A22002307F0BAFA204607F093FA00F05C
:1040900029F802B0BDE8F081E497FF1FE09CFF1F04
:1040A000E4B2FF1FD8A0FF1F8087FF1FD19CFF1F16
:1040B000119EFF1F30B4FF1FFC530100005401008C
:1040C0007896FF1F08540100A08601002C580100BB
:1040D0003C580100445801004C580100885F010021
:1040E000149EFF1F2DE9F04182B00022814B1A700F
:1040F000814804F065F8814A13680093009B804969
:104100000B6012680192019AD31A7E4A1268934298
:1041100000F2EB807C4B1B7813F0FF0F0AD17B4B36
:104120001B7813F0FF0F42D025E0774B1B7813F07C
:10413000FF0F1BD0764C23685B682046754902222E
:104140009847204607F036FA6F4B1A7882F0010242
:104150001A7000226D4B1A70674804F031F840F66F
:10416000B832684B1A60FFF777FEC0E0674B1B78E8
:1041700013F0FF0F20D0664C23685B682046664929
:1041800004229847204607F015FA604B1A7882F00F
:1041900001021A7000225C4B1A70574804F010F8A4
:1041A00040F6B832574B1A6000F0CEF89FE0DFF8C7
:1041B00094815A4D05F1CF0798F8003013F0FF0FA6
:1041C00017D0534C23685B68204655490522984711
:1041D000204607F0EFF998F8003083F0010388F8E3
:1041E00000300023484A1370484A13704D4A454B2B
:1041F0001A60414C204600210A4603F0EBFF236879
:104200005B68204648490822984795F8582095F859
:1042100050301A4206D0204623685B684349042286
:10422000984705E0344803685B684149062298478F
:10423000314C20460021012203F0CCFF23685B684B
:1042400020463C4903229847686D09F00DFF01465E
:10425000204607F00FFA2368374E5B682046314648
:104260000922984738460AF063FF024623685B68D4
:1042700020463946984720460021022203F0AAFF33
:1042800023685B6820462D4903229847E86D09F0B2
:10429000EBFE0146204607F0EDF923685B682046F7
:1042A00031460922984705F1D70630460AF040FF0B
:1042B000024623685B682046314698472046002125
:1042C000032203F087FF23685B6820461C4906220F
:1042D00098470A4B1B680193019A094B1B68D21A35
:1042E000084B1B689A427FF620AF00F02DF802B011
:1042F000BDE8F081E497FF1FE09CFF1FE4B2FF1FC1
:10430000D8A0FF1F8087FF1FD19CFF1F119EFF1F9A
:1043100030B4FF1FFC530100005401007896FF1FCA
:1043200008540100A08601005458010060580100A3
:10433000685801007058010074580100805801004D
:1043400084580100149EFF1FF0B583B00022764B05
:104350001A70764803F034FF754A13680093009B87
:1043600074490B6012680192019AD31A724A12685A
:10437000934200F2D580714B1B7813F0FF0F0AD1E6
:104380006F4B1B7813F0FF0F42D025E06B4B1B786F
:1043900013F0FF0F1BD06B4C23685B6820466A4903
:1043A00002229847204607F005F9644B1A7882F0FC
:1043B00001021A700022624B1A705C4803F000FF81
:1043C00040F6B8325C4B1A60FFF78CFEAAE05C4BFB
:1043D0001B7813F0FF0F1ED05A4C23685B682046F1
:1043E0005A4904229847204607F0E4F8544B1A78BB
:1043F00082F001021A700022504B1A704B4803F0F1
:10440000DFFE40F6B8324C4B1A6000F0BDF889E090
:104410004F4D4C4E4F4F2B7813F0FF0F14D0336895
:104420005B683046394605229847304607F0C2F8A7
:104430002B7883F001032B700023404A1370404A0D
:104440001370454A3C4B1A60384C204600210A46FE
:1044500003F0C0FE23685B68204640490B22984762
:1044600020460021012203F0B5FE3D4B93F8503069
:10447000A3B13C4B1B6853B9204623685B683A499B
:10448000072298471A20012105F072FD0CE0274809
:1044900003685B6835490722984705E023480368AD
:1044A0005B6833490522984720480021022203F027
:1044B00091FE2B4B93F85030A3B12E4B1B6853B990
:1044C0001A4803685B682C49072298471A20012183
:1044D00005F04EFD0CE0154803685B68274907228C
:1044E000984705E0114803685B682549052298470D
:1044F0000E4C20460021032203F06CFE23685B680B
:104500002046204906229847094B1B680193019ACF
:10451000084B1B68D21A084B1B689A427FF636AFCD
:1045200000F032F803B0F0BDE497FF1FE09CFF1FDE
:10453000E4B2FF1FD8A0FF1F8087FF1FD19CFF1F81
:10454000119EFF1F30B4FF1FFC53010000540100F7
:10455000149EFF1F08540100A08601008C58010022
:104560007896FF1FFC97FF1F98580100A058010084
:10457000A85801004496FF1FB0580100B858010028
:10458000C058010084580100F0B583B00022704B80
:104590001A70704803F014FE6F4A13680093009B72
:1045A0006E490B6012680192019AD31A6C4A126824
:1045B000934200F2C9806B4B1B7813F0FF0F0AD1B6
:1045C000694B1B7813F0FF0F42D025E0654B1B7839
:1045D00013F0FF0F1BD0654C23685B6820466449CD
:1045E00002229847204606F0E5FF5E4B1A7882F0DB
:1045F00001021A7000225C4B1A70564803F0E0FD6D
:1046000040F6B832564B1A60FFF79EFE9EE0564BBE
:104610001B7813F0FF0F1FD0544C23685B682046B3
:10462000544904229847204606F0C4FF4E4B1A789E
:1046300082F001021A7000224A4B1A70454803F0BA
:10464000BFFD40F6B832464B1A6000F0A7F87DE097
:10465000494F4A4D05F118063B7813F0FF0F15D06E
:10466000424C23685B68204645490522984720460E
:1046700006F0A0FF3B7883F001033B700023394A2A
:104680001370394A13703F4A354B1A60314C20463B
:1046900000210A4603F09EFD23685B6820463A49E4
:1046A0000322984720460521002203F093FD95F848
:1046B000603033B1204623685B6834490B22984749
:1046C00005E0244803685B6831490A229847214C79
:1046D00020460021012203F07DFD23685B6820460F
:1046E0002C49062298472046A9680A22002306F092
:1046F00085FF20460021022203F06CFD23685B68E1
:1047000020462549062298472046E9680A220023C8
:1047100006F074FF20460021032203F05BFD3046C3
:104720000AF006FD024623685B682046314698473A
:10473000094B1B680193019A084B1B68D21A084B5E
:104740001B689A427FF642AF00F028F803B0F0BD34
:10475000E497FF1FE09CFF1FE4B2FF1FD8A0FF1FDC
:104760008087FF1FD19CFF1F119EFF1F30B4FF1FCA
:10477000FC53010000540100149EFF1F7896FF1F98
:1047800008540100A0860100C8580100CC5801005F
:10479000D8580100E4580100EC5801002DE9F0411F
:1047A00082B000225E4B1A705E4803F009FD5E4A3B
:1047B00013680093009B5D490B6012680192019A97
:1047C000D31A5B4A1268934200F2A580594B1B78BA
:1047D00013F0FF0F0AD1584B1B7813F0FF0F45D091
:1047E00028E0544B1B7813F0FF0F1ED0534C236866
:1047F0005B682046524902229847204606F0DAFEBE
:104800004C4B1A7882F001021A7000224A4B1A703F
:10481000444803F0D5FC40F6B832454B1A600122FB
:10482000484B1A70FFF7B0FE77E0434B1B7813F04C
:10483000FF0F1FD0414C23685B6820464249042289
:104840009847204606F0B6FE3B4B1A7882F00102EC
:104850001A700022374B1A70324803F0B1FC40F650
:10486000B832334B1A6000F07FF856E0374E334FC2
:10487000DFF8F080337813F0FF0F14D03B685B68EB
:104880003846414605229847384606F093FE33786D
:1048900083F0010333700023264A1370264A1370F5
:1048A0002B4A234B1A601F4C204600210A4603F076
:1048B00091FC23685B68204626490B2298472046D6
:1048C0000021012203F086FC234D28460AF030FC2B
:1048D000024623685B6820462946984723685B6840
:1048E00020461E490122984720460021022203F05B
:1048F00071FC23685B68204619490C2298470A4BD3
:104900001B680193019A094B1B68D21A084B1B685C
:104910009A427FF666AF00F027F802B0BDE8F0815A
:10492000E497FF1FE09CFF1FE4B2FF1FD8A0FF1F0A
:104930008087FF1FD19CFF1F119EFF1F30B4FF1FF8
:10494000FC530100D89CFF1F00540100149EFF1F60
:10495000A0860100F458010018A8FF1FAC590100FF
:1049600000590100085401002DE9F04389B05A4B69
:104970001B782BB9594B1B680093009A584B1A604F
:10498000FCF79CFCFCF774FE0021012204AB05F04F
:1049900065F82520FCF756FE0021022206AB05F043
:1049A0005DF801224F4B1A704F4803F009FC4B4A47
:1049B00013680193019B4D490B604FF47A704C4989
:1049C000086012680392039AD31A834200F264814A
:1049D000424B1B680293029B464A12681A44464B9C
:1049E0001A60464B1B7813F0FF0F13D1444B1B7812
:1049F00013F0FF0F48D02EE0384B1B680293029A49
:104A00003C4B1B681A443C4B1A603C4B1B7813F020
:104A1000FF0F1BD03B4C23685B6820463A490222BB
:104A20009847204606F0C6FD344B1A7882F0010202
:104A30001A700022324B1A702B4803F0C1FB40F66B
:104A4000B8322B4B1A60FFF7A9FE25E12C4B1B78DF
:104A500013F0FF0F1DD02B4C23685B6820462B49B9
:104A600004229847204606F0A5FD254B1A7882F0CF
:104A700001021A700022214B1A704FF4FA721C4B7B
:104A80001A6000F07BFC07E1DFF88880164CDFF845
:104A9000889098F8003013F0FF0F3FD0194C23682E
:104AA0005B6820461A4905229847204606F082FD99
:104AB000184B1A7882F001021A700023104A137002
:104AC0000E4A1370084803F07BFB40F6B832084BDF
:104AD0001A6000F025FBDFE0D09CFF1FE4B2FF1F4F
:104AE000CC9CFF1FE497FF1FE09CFF1FD8A0FF1F77
:104AF0008087FF1FF4A1FF1FDC9CFF1FD19CFF1FBD
:104B0000119EFF1F30B4FF1FFC5301000054010031
:104B100030560100139EFF1FFC500100204600216B
:104B20000A4603F057FB23685B6820464946032288
:104B3000984723685A4D5B682046294601229847CA
:104B40002368584F5B6820463946052298472368FA
:104B50005B6820462946012298472368524E5B68CD
:104B6000204631460322984720460021012203F0C7
:104B700031FB23685B6820464C4903229847236831
:104B80005B68204629460122984723685B682046D7
:104B900039460522984723685B682046294601224A
:104BA000984723685B682046314603229847204691
:104BB0000021022203F00EFB3D4B93F86050236866
:104BC0005B6820463B4A3C49002D18BF1146042231
:104BD000984720460421022203F0FCFA01F0DCFD94
:104BE000FCF72EFC23685B68204634490122984775
:104BF00001F0DCFDFCF724FC23685B6820463049AB
:104C00000322984720460D21022203F0E3FA23688D
:104C10005B6820462B490722984720460021032243
:104C200003F0D8FA23685B68204627490422984796
:104C300020460421032203F0CDFA04A80AF078FAF2
:104C4000024623685B68204604A9984723685B688E
:104C500020461E490122984720460A21032203F0DC
:104C6000B9FA06A80AF064FA024623685B6820468F
:104C700006A9984723685B68204615490122984792
:104C8000144B1B680393039A134B1B68D21A134BE4
:104C90001B689A427FF6B0AE09B0BDE8F08300BF52
:104CA000E0560100085101001051010014510100AB
:104CB0007896FF1FA0500100A8500100AC590100D8
:104CC000B4560100105901006C530100AC580100AA
:104CD00074530100E4B2FF1FD8A0FF1F8087FF1F9D
:104CE000F0B583B000225A4B1A705A4803F068FAA4
:104CF000594A13680093009B58490B60126801924F
:104D0000019AD31A564A12689A42C0F09F80554BB6
:104D10001B7813F0FF0F0AD1534B1B7813F0FF0FD2
:104D200042D028E04F4B1B7813F0FF0F1ED04F4CA2
:104D300023685B6820464E4902229847204606F0C9
:104D400039FC484B1A7882F001021A700022464B57
:104D50001A70404803F034FA40F6B832404B1A60FB
:104D600001223B4B1A70FFF7FFFD6FE03E4B1B78B3
:104D700013F0FF0F1BD03D4C23685B6820463D4974
:104D800004229847204606F015FC374B1A7882F02B
:104D900001021A700022334B1A704FF4FA72304B32
:104DA0001A6000F073F851E02A4C334F334E20461E
:104DB00000210A4603F00EFA23685B682046394654
:104DC0000522984720460021012203F003FA2368B8
:104DD0005B682046314607229847294D2046D5F882
:104DE00000110A22002306F009FC204600210222BD
:104DF00003F0F0F923685B682046224907229847B0
:104E00002046D5F804110A22002306F0F7FB2046BD
:104E10000021032203F0DEF923685B6820461A496B
:104E200008229847FCF77AFA014620460A22002316
:104E300006F0E4FB084B1B680193019A074B1B68C3
:104E4000D21A074B1B689A427FF66CAF03B0F0BDD5
:104E5000E497FF1FE09CFF1FE4B2FF1FD8A0FF1FD5
:104E60008087FF1FD19CFF1F119EFF1F30B4FF1FC3
:104E7000FC530100005401001859010020590100A1
:104E80007896FF1F2859010030590100F0B587B00E
:104E90000022874B1A70874C23680393039B864E2E
:104EA0003360864D2B685B68284685491C229847ED
:104EB0003068844BA3FB00208009834B83FB006197
:104EC0000144491183FB01230B44CA17C2EB63134E
:104ED0007E4A82FB0362DE17C6EBA2027C4E326082
:104EE000A1EB011600EB86007A4E3060A3EB0310B5
:104EF00001EB800178480160A2EB820003EBC00364
:104F00007648036000912846754906F069FB7548AC
:104F100003F056F923680493049B734A13602268D4
:104F20000592059AD31A714A1268934200F2BE8024
:104F30006F4B1B7813F0FF0F0AD16E4B1B7813F0E9
:104F4000FF0F45D025E06A4B1B7813F0FF0F1BD0F5
:104F50005A4C23685B6820466749022298472046DE
:104F600006F028FB624B1A7882F001021A700022C8
:104F7000604B1A705B4803F023F940F6B8325B4B84
:104F80001A60FFF7ADFE91E05A4B1B7813F0FF0F4C
:104F900021D04A4C23685B68204658490422984730
:104FA000204606F007FB534B1A7882F001021A7074
:104FB00000224F4B1A704B4803F002F940F6B8320A
:104FC0004A4B1A6001223A4B1A70FFF7CDFC6DE094
:104FD000444C4B4F3E4E204600210A4603F0FAF85F
:104FE00023685B682046394603229847204631688B
:104FF00006F040FB23685B6820464249022298473E
:105000002046364B196806F035FB23685B6820465E
:105010003D490222984720462F4B196806F02AFB8B
:1050200023685B68204639490222984720460021C0
:10503000012203F0CFF823685B682046344906223A
:105040009847344D204629690A22002306F0D6FAF3
:1050500020460021022203F0BDF823685B68204649
:105060002D49062298472046E9680A22002306F0C7
:10507000C5FA20460021032203F0ACF823685B68E0
:10508000204626490A2298472046A9680A2200237A
:1050900006F0B4FA074B1B680593059A124B1B6880
:1050A000D21A124B1B689A427FF64DAF07B0F0BD83
:1050B000E497FF1FE4B2FF1F10A6FF1F30B4FF1FCD
:1050C0003C590100D34D621089888888ABAAAA2A6E
:1050D000F09DFF1F7496FF1F40B0FF1FAC9EFF1F87
:1050E0005C590100E09CFF1FD8A0FF1F8087FF1FB5
:1050F000D19CFF1F119EFF1FFC53010000540100B3
:105100007C5901008059010084590100885901002F
:105110008C590100A497FF1F945901009C5901006C
:105120002DE9F04FA3B00022844B1A70844803F09D
:1051300047F8844A13680093009B83490B60126808
:105140000192019AD31A814A1268934240F2DE809A
:10515000EEE07F4B1B7813F0FF0F1ED07D4C2368D1
:105160005B6820467C4902229847204606F022FAD6
:10517000774B1A7882F001021A700022774B1A706E
:105180006F4803F01DF840F6B832704B1A600122E8
:105190006A4B1A70FFF7E8FBCCE0704B1B7813F0FA
:1051A000FF0F1BD06B4C23685B6820466A490222C4
:1051B0009847204606F0FEF9684B1A7882F0010203
:1051C0001A700022624B1A704FF4FA725F4B1A6029
:1051D00001225A4B1A70FFF7C7FBABE002A85146F9
:1051E00006F084FB0AA8414606F080FB02A80AA943
:1051F00006F00EFC06460AA806F02CFB02A80021C9
:10520000721D06F02FFC0EA8394606F06FFB02A8AF
:105210000EA906F0FDFB83460EA806F01BFB06A8B0
:105220004F4906F063FB12A8414606F05FFB06A853
:1052300012A906F0EDFB054612A806F00BFB06A826
:1052400000216A1D06F00EFC16A8394606F04EFB3A
:1052500006A816A906F0DCFB814616A806F0FAFAA5
:10526000374C204600210A4602F0B4FF23685B68F1
:1052700020463C490922984720460021012202F09D
:10528000A9FF23685B682046374904229847B6F196
:10529000FF3F0CD01AA802A900225B4606F0BEFB15
:1052A00020461AA906F060F91AA806F0D3FA244C91
:1052B00020460021022202F08DFF23685B68204611
:1052C0002A4905229847B5F1FF3F0CD01EA806A930
:1052D00000224B4606F0A2FB20461EA906F044F928
:1052E0001EA806F0B7FA06A806F0B4FA02A806F05F
:1052F000B1FA144B1B680193019A134B1B68D21A25
:10530000124B1B689A427FF624AF11E0104B1B78BA
:1053100013F0FF0F7FF422AF104B1B7813F0FF0F39
:105320007FF440AFDFF84CA0DFF84C80104F55E71A
:10533000FFF71AFB23B0BDE8F08F00BFE497FF1F13
:10534000E09CFF1FE4B2FF1FD8A0FF1F8087FF1F54
:10535000D19CFF1F30B4FF1FFC530100119EFF1FA3
:1053600028A8FF1FB0590100BC590100C459010011
:10537000685101002498FF1FA859010070B501224F
:105380008D4B1A708D48002101F0CEFB8C4B1C68B0
:105390008C4B1868FCF774F88B4B1B7813B3201AEE
:1053A0008A4C84FB0014C017C0EBA414884D85FB05
:1053B00004352544E317C3EB6515864E30460F21AF
:1053C000032202F007FF2846FCF74AF833685B68BF
:1053D0003046814901229847A5EB051004EB800077
:1053E000FCF72EF8774B1868FCF74AF8744B1B68EB
:1053F000984280F0C180794B1B7813F0FF0F1FD0CB
:10540000774C23685B6820467649022298472046FD
:1054100006F0D0F8714B1A7882F001021A7000235E
:10542000714A1370714A1370714A1370694802F01F
:10543000C7FE4FF47A726F4B1A60FFF7AFF970BD79
:10544000694B1B7813F0FF0F1FD0654C23685B6816
:105450002046694904229847204606F0ABF8624B83
:105460001A7882F001021A700023604A13705B4AB6
:1054700013705F4A1370574802F0A2FE4FF47A721D
:105480005C4B1A60FFF72CFC70BD594B1B7813F076
:10549000FF0F19D0524C23685B68204657490522FC
:1054A0009847204606F086F8514B1A7882F00102A0
:1054B0001A7000214D4B1970484B19704A4B1970E6
:1054C0001A2004F055FD70BD484B1B7813F0FF0FF8
:1054D0001FD0434C23685B68204649490522984702
:1054E000204606F067F8414B1A7882F001021A70E4
:1054F00000243D4B1C70394B1C70364802F060FE96
:105500003B4B1C704FF47A723A4B1A60FFF708FE5F
:1055100070BDFBF7E9FE50B33A4B1C683A4B1D686F
:10552000FBF7CCFE394B1A68394941F82240013269
:10553000274CA4FB02014909C1EB0111A2EB810236
:105540001A60FBF761FE334B1860334B1A6833491E
:1055500041F822500132A4FB02146409C4EB041484
:10556000A2EB84021A60FBF775FE2D4B18601348FE
:10557000002101F0D9FA70BD194C23685B68204600
:1055800028490A229847FBF7C9FE014620460A220D
:10559000002306F033F8204606F00CF81D4B18687F
:1055A00008F044FB04461E4B186808F03FFB014618
:1055B0002046FCF7DBF970BDD09CFF1FA4B0FF1F95
:1055C000F4A1FF1FCC9CFF1FE497FF1FD34D621077
:1055D00089888888E09CFF1FAC590100D19CFF1F7F
:1055E00030B4FF1FFC530100119EFF1F139EFF1FCD
:1055F000149EFF1F8087FF1F005401000854010004
:1056000030560100FC97FF1F4496FF1F089EFF1FA6
:10561000FC9CFF1F0098FF1F0C9EFF1FE4A0FF1FB4
:105620000498FF1FCC5901002DE9F0418AB00026F3
:105630007A4B1E707A4C204602F0C2FD204631465D
:10564000324602F0C7FD23685B682046754909228F
:10565000984720463146012202F0BCFD23685B6872
:10566000204671490F229847DFF8148240F2014327
:10567000C8F800306D4F3C466D4D0FCD0FC40FCDB7
:105680000FC495E8030044F8040B2170384609F074
:105690004FFD0246674C23685B68204639469847B1
:1056A000204605F087FF644B0093D8F80030019343
:1056B00002960396614839465022614B03F028FA5E
:1056C000002831D15F4C20465B4906F069F906A8F5
:1056D0005D4906F00BF9204606A906F099F9044643
:1056E00006A806F0B7F86CB9524C23685B682046F0
:1056F00056491E229847204605F05CFF0122544B74
:105700001A702AE04B4C23685B68204651490222FC
:105710009847204605F04EFF00224D4B1A701A2084
:10572000012104F025FC18E0424C23685B68204608
:1057300049491D229847494B1D68284609F0F8FC45
:10574000024623685B68204629469847204605F0B4
:1057500031FF1A20012104F00BFC414A1368049325
:10576000049B40490B6012680592059AD31A3E4A81
:1057700012689A42C0F0D8803C4B1B7813F0FF0FA0
:105780000AD13B4B1B7813F0FF0F7BD027E0374B40
:105790001B7813F0FF0F1DD0264C23685B68204652
:1057A000344902229847204605F004FF2F4B1A780F
:1057B00082F001021A7000232D4A13702E4A1370D2
:1057C000174802F0FDFC40F6B832274B1A60FDF78F
:1057D000B1FBABE0264B1B7813F0FF0F54D0154CF8
:1057E00023685B682046254904229847204605F037
:1057F000E1FE1F4B1A7882F001021A7000231B4A47
:1058000013701D4A1370064802F0DAFC40F6B832F5
:10581000154B1A60FDF7DEFD88E000BFE497FF1F1F
:10582000E09CFF1FD8590100E45901004896FF1F72
:105830004056010030B4FF1F2498FF1F4CB2FF1FD9
:10584000289CFF1FF49DFF1FE4550100F45901003F
:10585000F0A1FF1F88580100105601007C87FF1F30
:10586000E4B2FF1FD8A0FF1F8087FF1FD19CFF1F3E
:10587000119EFF1FFC530100139EFF1F00540100E7
:105880004096FF1F2B4F2C4E3B7813F0FF0F15D087
:105890002A4C23685B682046294905229847204600
:1058A00005F088FE3B7883F001033B700023254A16
:1058B0001370254A1370254A254B1A60254C204643
:1058C00000210A4602F086FC23685B6820462249D4
:1058D0000A22984720460021022202F07BFC1F4B3F
:1058E0001D7834461E4B1F4A002D0CBF15461D4621
:1058F0000FCD0FC495E8030044F8040B2170304627
:1059000009F016FC0246134801684C683146A0476E
:10591000154B1B680593059A144B1B68D21A0C4B48
:105920001B689A427FF633AFFDF704FB0AB0BDE86F
:10593000F08100BF149EFF1F4896FF1F30B4FF1F69
:1059400008540100D19CFF1F119EFF1FA08601007B
:105950008087FF1FE09CFF1F145A0100F0A1FF1F6A
:105960008C550100A4550100E4B2FF1FD8A0FF1F11
:105970002DE9F04784B000229D4B1A702520FBF7DB
:1059800061FE0546FBF774FE06469A4802F018FCD5
:10599000994A13680293029B98490B60126803921C
:1059A000039AD31A964A12689A42C0F01C81954B0A
:1059B0001B7813F0FF0F0AD1934B1B7813F0FF0FE6
:1059C00042D025E08F4B1B7813F0FF0F1BD08F4C7C
:1059D00023685B6820468E4902229847204605F0DE
:1059E000E9FD884B1A7882F001021A700022864B7A
:1059F0001A70804802F0E4FB40F6B832804B1A601F
:105A000000F030F9F1E0804B1B7813F0FF0F20D04D
:105A10007E4C23685B6820467E49042298472046D6
:105A200005F0C8FD784B1A7882F001021A70002246
:105A3000744B1A706F4802F0C3FB40F6B832704BDB
:105A40001A60FCF7ADFDD0E0DFF80C92DFF80C82B5
:105A5000714F724B1B7813F0FF0F16D06B4C2368FD
:105A60005B6820466E4905229847204605F0A2FD56
:105A70006A4B1A7882F001021A700023614A13708F
:105A8000614A1370674A5E4B1A605A4C20460021E7
:105A90000A4602F09FFB23685B68204662490622A3
:105AA000984720460021012202F094FB23685B689E
:105AB00020465E49062298472846494608F0ACFA37
:105AC00030B1204623685B6859490322984705E0B6
:105AD000484803685B68574903229847454C20466D
