:1000000000800020BD01000051CC000015CC000094
:1000100015CC000015CC000015CC000015CC00005C
:1000200015CC000015CC000015CC000051CC000010
:1000300051CC000015CC000051CC000005CC0000D4
:1000400051CC000051CC000051CC000051CC00003C
:1000500051CC000051CC000051CC000051CC00002C
:1000600051CC000051CC000051CC000051CC00001C
:1000700051CC000051CC000051CC000051CC00000C
:1000800051CC000051CC000051CC000051CC0000FC
:1000900051CC000051CC000051CC000051CC0000EC
:1000A0003D7D00004D7D000051CC000051CC000092
:1000B00051CC000051CC000051CC000051CC0000CC
:1000C00051CC000051CC000051CC000051CC0000BC
:1000D00051CC000051CC000051CC000051CC0000AC
:1000E00051CC000051CC000051CC000051CC00009C
:1000F00051CC000071F2000051CC000011F800005A
:1001000051CC0000B5FC000051CC000051CC0000E7
:1001100051CC000051CC000051CC000051CC00006B
:1001200051CC000051CC000051CC000051CC00005B
:1001300051CC000051CC000051CC000051CC00004B
:1001400051CC000051CC000051CC000051CC00003B
:1001500001E5000019E5000031E5000049E5000077
:1001600051CC0000B1D5000051CC000051CC0000B2
:1001700051CC000051CC000051CC000051CC00000B
:1001800051CC000051CC000051CC000051CC0000FB
:1001900051CC000051CC000051CC000051CC0000EB
:1001A00051CC000051CC000051CC000051CC0000DB
:1001B00051CC000051CC000051CC0000574B4CF208
:1001C000205210B51A804DF628121A8000BF00BFC9
:1001D0000CF042FD524B4FF010621A60514A9A6087
:1001E000514ADA60A3F53043203B1A6812F480725A
:1001F00004D14E490A604FF4A8521A604C4B1A7849
:10020000110703D51A7842F008021A70494B4A4C7C
:100210004A482A221A704A4A00239918A14203D256
:10022000195899500433F8E7464B474900228B424E
:1002300002D243F8042BFAE74448454900235A58B0
:100240001A500433B3F5DE7FF9D1424B424A802184
:1002500003F8011B9342FBD1404B3C4A1A60404BD0
:100260000A221A70A3F5805324225A70A0221A7011
:100270009A799207FCD59A79D406FCD4394A9379B5
:1002800003F00C03082B374BF9D103221A714022DB
:100290005A719A799006FCD5324A9179314B4906C8
:1002A000FBD5314A314911600221516020221A7078
:1002B0009A7902F00C020C2AFAD12D4B2D4A1A60C1
:1002C0002D4B2E4A1A6000225A60072243F8042C54
:1002D0002B4AC3F80C2D62B60DF02CF8134B1B689B
:1002E000DA0705D527480CF08BFF274B274A1A6001
:1002F000274B1B785B0609D5234C244A236893427D
:1003000004D120480CF07CFF0023236010F098FDFE
:100310000CF0A8FC0EF03CFCFEE700BF0E200540F0
:1003200030800440823F04000100002B14D00340C1
:1003300002D0074000E00740E095FF1FDCA7010066
:100340006087FF1FE095FF1FE0A4FF1F0082FF1FD3
:100350000000000000E400E05FE400E008ED00E0E1
:100360000050064000400640448004400000030165
:1003700004800440C010050014E000E0FF76010096
:1003800000002020B4C4E5571CE00340A5C3945AE4
:1003900000F00740FFFFFFFFFFFFFFFFFFFFFFFF32
:1003A000FFFFFFFFFFFFFFFFFFFFFFFFFFFFFFFF5D
:1003B000FFFFFFFFFFFFFFFFFFFFFFFFFFFFFFFF4D
:1003C000FFFFFFFFFFFFFFFFFFFFFFFFFFFFFFFF3D
:1003D000FFFFFFFFFFFFFFFFFFFFFFFFFFFFFFFF2D
:1003E000FFFFFFFFFFFFFFFFFFFFFFFFFFFFFFFF1D
:1003F000FFFFFFFFFFFFFFFFFFFFFFFFFFFFFFFF0D
:10040000FFFFFFFFFFFFFFFFFFFFFFFFFEFFFFFFFD
:1004100010B5054C237833B9044B13B10448AFF33E
:1004200000800123237010BDE095FF1F0000000035
:10043000D4A7010008B5064B1BB106480649AFF327
:1004400000800648036813B1054B03B1984708BD07
:1004500000000000D4A70100E495FF1FE095FF1FF6
:100460000000000038B504460D46084611F00CFDAA
:10047000024623685B682046294698470546204681
:100480000EF076F9284438BD10B4016042608360F4
:10049000019BC360029B03615DF8044B704700BF82
:1004A00070B500F5967604460D1A2046295D0CF0CD
:1004B00091FB0134B442F8D14FF4967070BD00BF87
:1004C000F8B50746406800214FF4967211F020F805
:1004D0007D6805F596762C46013404F22B10401BFE
:1004E0000CF064FB04F8010CB442F5D1134C236802
:1004F0005B68204612491C22984720460EF038F9C6
:100500007B681A680F4B9A4216D023685B682046B6
:100510000D491422984720460EF02AF94FF496749C
:1005200078680021224610F0F3FF7B68054A1A60C4
:1005300020467968FFF7B4FFF8BD00BF08A3FF1F8E
:10054000608C01000DF0FE5A808C01002DE9F04F07
:1005500083B005460E46B14C23685B682046B0491F
:1005600008229847304611F08FFC024623685B68EA
:1005700020463146984720460EF0FAF8E868A94927
:1005800032462B6911F046FA2E68EC68204611F0CD
:100590007BFC024633685B683046214698472868F2
:1005A00003681B680D21984740F60A5428680368C1
:1005B0009B6898470028F9D028680368DB6898474B
:1005C000A04205D028680368DB6898470D28EDD164
:1005D000E86800212A6910F09BFF00242646A04607
:1005E0000127286803689B68984750B1741CD5F8A8
:1005F0000C9028680368DB68984709F806002646CF
:10060000444638460CF082FE2B69B34203D00134D5
:10061000B4F57A7FE5DB002E00F0FB840024DFF8E0
:1006200024B2A246E96801EB040E002304E0013382
:10063000DBB22A69A24207D001340A1912F8012C50
:100640000A2AF4D1274600E0274600220EF80320AC
:100650009EF80020002A00F0BD84232A00F0BA840E
:10066000022B40F2B784002204E00132D1B28B4267
:1006700000F0B084D1B21EF802002028F5D009287D
:10068000F3D088468B4200F0A5844FF0000C0CE0BC
:10069000202A03D002F0FB02092A01D180F800C011
:1006A0000131C9B28B4200F095840EEB01001EF8B7
:1006B00001203D2AECD18B4200F08C844A1CD2B23E
:1006C00000200EF8010004E00132D2B2934200F0A3
:1006D00081841EF802102029F6D00929F4D0934213
:1006E00000F07884F0440EEB02094046594611F0C0
:1006F0005FFA08BB484610F08BFB10F023F98146E7
:10070000D5F80480D8F85400494610F003FB0028BF
:1007100040F06084C8F85490DFF80081D8F80030C9
:100720005B68404640491E22984740460EF020F83C
:100730004FF0010A00F04EBC40463C4911F038FA37
:1007400008BB484610F064FB10F0FCF88146D5F871
:100750000480D8F85C00494610F0DCFA002840F02C
:100760003984C8F85C90DFF8B480D8F800305B6852
:1007700040462F491E22984740460DF0F9FF4FF0A2
:10078000010A00F027BC40462A4911F011FAF8B9D5
:100790006B68D3F80480484610F03AFB804500F0BF
:1007A0001984D5F80480484610F032FBC8F80400DC
:1007B000DFF86880D8F800305B6840461E49122296
:1007C000984740460DF0D4FF4FF0010A00F002BCFC
:1007D00040461A4911F0ECF9002835D16B68D3F87E
:1007E0001080484610F014FB804500F0F383D5F8E4
:1007F0000480484610F00CFBC8F81000DFF81C809D
:10080000D8F800305B6840460D49192298474046A9
:100810000DF0AEFF4FF0010ADCE300BF08A3FF1F9D
:10082000988C0100A48C0100B88C0100D88C0100C8
:10083000DC8C0100FC8C0100048D0100188D01008E
:10084000208D0100B48C01004046A54911F0B0F99B
:10085000F0B96B68D3F81480484610F0D9FA804597
:1008600000F0B883D5F80480484610F0D1FAC8F8F3
:100870001400DFF89082D8F800305B684046994950
:100880001922984740460DF073FF4FF0010AA1E38B
:100890004046954911F08CF9F0B96B68D3F808809F
:1008A000484610F0B5FA804500F09483D5F80480EE
:1008B000484610F0ADFAC8F80800DFF84882D8F8CA
:1008C00000305B68404689491322984740460DF046
:1008D0004FFF4FF0010A7DE34046854911F068F96A
:1008E000F0B96B68D3F80C80484610F091FA804557
:1008F00000F07083D5F80480484610F089FAC8F8F3
:100900000C00DFF80082D8F800305B684046794977
:100910001422984740460DF02BFF4FF0010A59E38F
:100920004046754911F044F9E0B96B6803F11808C5
:100930004046494611F03CF9002800F04B83404600
:10094000494611F043FADFF8BC81D8F800305B6803
:1009500040466A491322984740460DF009FF4FF080
:10096000010A37E34046664911F022F9B0B96B68D5
:1009700093F85080484610F04BFA804500F02A83E7
:10098000D5F80480484610F043FA88F850005D48D6
:100990005D49FFF767FD4FF0010A1BE340465B49E5
:1009A00011F006F9B0B96B6893F85880484610F01A
:1009B0002FFA804500F00E83D5F80480484610F0E9
:1009C00027FA88F858004F485149FFF74BFD4FF080
:1009D000010AFFE240464F4911F0EAF8A0B96B68FE
:1009E00003F130084046494611F0E2F8002800F0D3
:1009F000F1824046494611F0E9F942484649FFF77D
:100A000031FD4FF0010AE5E24046444911F0D0F8CB
:100A1000A0B96B6803F140084046494611F0C8F898
:100A2000002800F0D7824046494611F0CFF93548FA
:100A30003B49FFF717FD4FF0010ACBE24046394929
:100A400011F0B6F8B0B96B6893F86080484610F0C2
:100A5000DFF9804500F0BE82D5F80480484610F0EA
:100A6000D7F988F8600027482F49FFF7FBFC4FF0C3
:100A7000010AAFE240462D4911F09AF8A0B96B681F
:100A800003F161084046494611F092F8002800F051
:100A9000A1824046494611F099F91A482449FFF7C6
:100AA000E1FC4FF0010A95E24046224911F080F83E
:100AB000002843D16B6803F175084046494611F0A0
:100AC00077F8002800F086824046494611F07EF90A
:100AD0000C481949FFF7C6FC4FF0010A7AE200BF43
:100AE0003C8D0100448D0100608D0100688D010086
:100AF0007C8D0100848D01009C8D0100A08D010082
:100B0000B48D010008A3FF1FB88D0100DC8D01002A
:100B1000E08D0100048E0100088E0100208E01008E
:100B2000248E01003C8E0100408E0100608E010089
:100B3000648E01007C8E0100808E01004046A14938
:100B400011F036F8A0B96B6803F1890840464946B0
:100B500011F02EF8002800F03D824046494611F081
:100B600035F999489949FFF77DFC4FF0010A31E2C8
:100B70004046974911F01CF8B0B96B68D3F88C80E7
:100B8000484610F045F9804500F02482D5F80480ED
:100B9000484610F03DF9C8F88C008B488D49FFF7A6
:100BA00061FC4FF0010A15E240468B4911F000F854
:100BB000B0B96B68D3F89080484610F029F98045A9
:100BC00000F00882D5F80480484610F021F9C8F8F2
:100BD00090007D488149FFF745FC4FF0010AF9E19B
:100BE00040467F4910F0E4FFB0B96B6893F89480F9
:100BF000484610F00DF9804500F0EC81D5F80480EE
:100C0000484610F005F988F894006F487549FFF7D9
:100C100029FC4FF0010ADDE14046734910F0C8FF9E
:100C2000B0B96B68D3F89880484610F0F1F8804569
:100C300000F0D081D5F80480484610F0E9F8C8F8F3
:100C4000980061486949FFF70DFC4FF0010AC1E1C6
:100C50004046674910F0ACFFA0B96B6803F19C08EF
:100C60004046494610F0A4FF002800F0B3814046FA
:100C7000494611F0ABF854485E49FFF7F3FB4FF0DB
:100C8000010AA7E140465C4910F092FFA0B96B68E9
:100C900003F19F084046494610F08AFF002800F003
:100CA00099814046494611F091F847485349FFF76A
:100CB000D9FB4FF0010A8DE14046514910F078FF11
:100CC000A0B96B6803F1AF084046494610F070FFC9
:100CD000002800F07F814046494611F077F83A48F5
:100CE0004849FFF7BFFB4FF0010A73E14046464910
:100CF00010F05EFFA0B96B6803F1BF08404649469B
:100D000010F056FF002800F065814046494611F07A
:100D10005DF82D483D49FFF7A5FB4FF0010A59E169
:100D200040463B4910F044FFA0B96B6803F1CF087F
:100D30004046494610F03CFF002800F04B814046F9
:100D4000494611F043F820483249FFF78BFB4FF03A
:100D5000010A3FE14046304910F02AFFA0B96B6814
:100D600003F1D7084046494610F022FF002800F062
:100D700031814046494611F029F813482749FFF7C9
:100D800071FB4FF0010A25E14046254910F010FFA4
:100D9000002849D16B6893F8DF80484610F038F896
:100DA000804500F01781D5F80480484610F030F8EF
:100DB00088F8DF0004481B49FFF754FB4FF0010A95
:100DC00008E100BF988E010008A3FF1FA08E01005C
:100DD000B88E0100BC8E0100E08E0100E48E01009F
:100DE000FC8E0100048F0100288F01002C8F010070
:100DF000408F0100448F0100648F01006C8F01005F
:100E0000888F01008C8F0100AC8F0100B08F010032
:100E1000D08F0100D48F0100F48F0100F88F010002
:100E2000189001001C9001004046804910F0C0FE5F
:100E3000B0B96B68D3F8FC8048460FF0E9FF8045F5
:100E400000F0C880D5F8048048460FF0E1FFC8F8EC
:100E5000FC0077487749FFF705FB4FF0010AB9E03E
:100E60004046754910F0A4FEB0B96B6893F8E08075
:100E700048460FF0CDFF804500F0AC80D5F80480E7
:100E800048460FF0C5FF88F8E00069486B49FFF756
:100E9000E9FA4FF0010A9DE04046694910F088FEEA
:100EA000A0B96B6803F1E1084046494610F080FEA6
:100EB000002800F08F804046494610F087FF5C48CC
:100EC0006049FFF7CFFA4FF0010A83E040465E49E0
:100ED00010F06EFE98B96B6803F1E408404649468D
:100EE00010F066FE002875D04046494610F06EFFAF
:100EF0004F485649FFF7B6FA4FF0010A6AE04046FC
:100F0000534910F055FE98B96B6803F58A7840464E
:100F1000494610F04DFE00285CD04046494610F08E
:100F200055FF43484B49FFF79DFA4FF0010A51E046
:100F30004046494910F03CFE98B96B6803F5847847
:100F40004046494610F034FE002843D0404649460A
:100F500010F03CFF36484149FFF784FA4FF0010A90
:100F600038E040463E4910F023FE90B96B6803F527
:100F700090784046494610F01BFE58B3404649461B
:100F800010F024FF2A483749FFF76CFA4FF0010AA6
:100F900020E04046344910F00BFED8B9A868002183
:100FA000142210F0B5FAD5F8089009F11403019352
:100FB000C84608F1010808F1C700C9EB000018F89D
:100FC000011C0BF007FE019B9845F2D118482749F8
:100FD000FFF748FABE423FF625AB154C23685B6825
:100FE000204623490A22984720460DF0C1FBBAF15A
:100FF000000F18D023685B6820461E491E229847C0
:1010000020460DF0B5FB4FF496706968FFF748FA7B
:1010100009E0074C23685B68204615490A22984777
:1010200020460DF0A5FB03B0BDE8F08F3C90010019
:1010300008A3FF1F409001005C9001006090010038
:101040009090010084900100A09001009490010014
:10105000B4900100A8900100C4900100B890010074
:10106000D4900100D8900100E8900100F0900100B8
:10107000109101001C91010008B50BF05DFD08BD49
:10108000014A024B1A6070470400FA050CED00E0BB
:10109000024B1A6801321A60704700BF2898FF1F80
:1010A000024B1A6801321A60704700BF8496FF1F16
:1010B0000122014B1A707047559AFF1F0122014B04
:1010C0001A707047A498FF1F0122014B1A707047D5
:1010D000569AFF1F0122014B1A707047579AFF1F43
:1010E0000122014B1A707047589AFF1F08B50CF087
:1010F00081F808BD10B504460DF0F6FA204610BD83
:1011000010B50446024B03600AF09CFD204610BD5A
:1011100030A00100F8B5154C23685B6820461449DF
:101120001722984720460DF023FB03251C24012796
:10113000FA26204639460CF073F8204639460CF062
:10114000A1F830460CF0E2F8204600210CF09AF8A5
:1011500030460CF0DBF8013DEBD140F6B8300CF036
:10116000D5F8044A044B1A60F8BD00BF08A3FF1F5E
:101170003C9101000400FA050CED00E010B50F49A8
:101180000B1FEC31002053F8042F10448B42FAD18E
:101190000FF0D4FB04460A490FF028FC01464FF03B
:1011A0007E500FF019FB014620460FF0D3FC054995
:1011B0000FF0D0FC0FF006FE10BD00BFC898FF1F57
:1011C000B2C5FC350000A04010B50F490B1FEC3133
:1011D000002053F8042F10448B42FAD10FF0AEFBDD
:1011E00004460A490FF002FC01464FF07E500FF012
:1011F000F3FA014620460FF0ADFC05490FF0AAFCBA
:101200000FF0E0FD10BD00BFEC9DFF1FB2C5FC3527
:101210000000A0400278012907DD03460139084497
:1012200013F8011F4A408342FAD11046704700BFAD
:10123000044B1A68044B1A600023044A1360044AE2
:1012400013607047B0A1FF1F349FFF1F2898FF1F36
:101250008496FF1F074B1868074B1B68834288BFA3
:1012600000F1FF30C01A054B1A68904234BF0020CD
:1012700001207047B0A1FF1F349FFF1F6887FF1F29
:1012800010B582B001200FF003FE04460FF008FEF7
:1012900001A8001B02B010BD2DE9F0478CB00C4630
:1012A0009246002112F0C0F806460F462046002163
:1012B00012F0BAF804460D463046394600220023A3
:1012C0000FF0DAF960B930463946002200230FF0FA
:1012D000D3F940B907F100431F464FF0530804E02B
:1012E0004FF04E0801E04FF05308304627F0004120
:1012F0000FF0D6F981460EF0D3FE02460B4630467B
:1013000039460EF07FFD0022244B0EF02FFF0FF028
:101310000FFA0221042206AB0BF0FCFC2046294602
:10132000002200230FF0A8F958B9204629460022D0
:1013300000230FF0A1F930B905F100431D465726EF
:1013400002E0452600E05726204625F000410FF038
:10135000A7F907460EF0A4FE02460B462046294692
:101360000EF050FD00220D4B0EF000FF0FF0E0F9E3
:1013700009AC0221042223460BF0CCFC06AB0093FF
:10138000CDF8048002970394049650461921044A2C
:101390004B4610F00BFB0CB0BDE8F08700004E4050
:1013A0005491010010B50446092804DC0448036880
:1013B0001B6830219847024821460DF039FA10BDCC
:1013C000AC98FF1F10B50446092804DC04480368E4
:1013D0001B6820219847024821460DF029FA10BDCC
:1013E000AC98FF1F034B1B689842C3EB000038BF4B
:1013F000C0437047B0A1FF1FF8B5074600240E4D4B
:101400000A26013428460AF045FB40B128460AF076
:1014100055FB002F0CBF3C233E23834205D03046B2
:101420000BF074FFB4F5FA7FEBD1B4F5FA7FACBFE3
:1014300000200120F8BD00BFBC9DFF1F10B54B4B25
:101440001B7813F0200F09D0494C23685B682046B5
:1014500048492E22984720460DF08AF9434B1B78C5
:1014600013F0080F09D0424C23685B6820464249BC
:101470001922984720460DF07BF93C4B1B7813F05E
:10148000040F09D03A4C23685B6820463B491B2275
:10149000984720460DF06CF9344B1B7813F0020F7F
:1014A00009D0334C23685B6820463549242298478D
:1014B00020460DF05DF9334B1B7813F0800F09D0F7
:1014C0002B4C23685B6820462F491B2298472046F7
:1014D0000DF04EF92B4B1B7813F0400F09D0244C24
:1014E00023685B68204629491F22984720460DF053
:1014F0003FF9244B1B7813F0200F09D01C4C2368B4
:101500005B68204622492022984720460DF030F99A
:101510001C4B1B7813F0040F09D0154C23685B6833
:1015200020461C492922984720460DF021F9154BE9
:101530001B7813F0080F09D00D4C23685B68204618
:1015400015492622984720460DF012F90D4B1B78BD
:1015500013F0020F09D0064C23685B6820460F4940
:101560002522984720460DF003F910BD01F00740F1
:1015700008A3FF1F6891010098910100B491010038
:10158000D091010000F00740F89101001492010091
:10159000349201005892010084920100AC92010043
:1015A00008B5C0B20BF01EFA0FF0CCF904490FF0E9
:1015B000D1FA04490FF01AFA03490FF0CBFA08BD2B
:1015C00000C07F449A99993F8C2EBA3DF0B589B0FE
:1015D000704C204606F044FC204603A906F0F6FCB9
:1015E000204606F005FD204603A906F023FD70B94C
:1015F000204606F0FDFC684C23685B68204667497E
:101600001822984720460DF0B3F86548BFE09DF8D2
:101610000C30102B09D0282B13D05F4803685B686F
:101620006049182298475E48B1E05B4C23685B68CC
:1016300020465D491022984720460DF099F8012771
:101640000AE0554C23685B682046584910229847A9
:1016500020460DF08DF800274E4C204606F000FC89
:10166000204603A906F0B2FC20464421002206F0E1
:101670007BFC40F2EE200BF049FE204606F0F0FB2A
:10168000204603A906F0A2FC2046BE21002206F057
:101690006BFC0DF1130407AE3E4D284606F086FCA8
:1016A00004F8010FB442F8D19DF815301D029DF8E1
:1016B0001440002F48D09DF81B20102A66D19DF8B9
:1016C0001A00C0F10C0045EA04031BB2DB0023F052
:1016D0000F03184400B20FF035F94FF076510FF0B8
:1016E00085F905462C4C23685B682046304910225A
:1016F000984728460EF0E6FC02460B460226009666
:1017000020460DF0A1F823685B68204629490A228B
:101710009847284628490FF069F94FF084410FF0A7
:101720005DF80EF0CFFC02460B46009620460DF009
:101730008BF823685B68204620490B229847204697
:101740000DF016F8284622E0124806F051FC45EA52
:1017500004000FF0F7F84FF076510FF047F9054607
:101760000D4C23685B682046114910229847284693
:101770000EF0A8FC02460B460221009120460DF017
:1017800063F820460CF0F4FF284600E0002009B082
:10179000F0BD00BF5C98FF1F08A3FF1FD49201009B
:1017A00000007AC4F09201000C9301002093010024
:1017B00034930100489301006666E63F54930100AC
:1017C00070B50F4A13680F490B601268D31A0E4A9E
:1017D000126893420DD80D4E094D0C463078012108
:1017E0000BF01EFD2A682368D31A074A1268934239
:1017F000F4D9064B187800210BF012FD70BD00BF24
:10180000B0A1FF1FE09DFF1FA887FF1F8087FF1F5C
:1018100008B5FFF7D5FF72B6044B4AF202621A8090
:101820004BF280421A8062B608BD00BF0C20054012
:1018300038B500242546204629460BF0CBF9013463
:10184000B4F5006FF7D10F4C23685B6820460E4952
:101850001822984720460CF08BFF0C4C20460021A4
:1018600001220AF00DFE23685B6820460849112218
:1018700098474FF47A700BF049FD064A064B1A6000
:1018800038BD00BF08A3FF1F68930100AC98FF1F7D
:10189000849301000400FA050CED00E070B500F13E
:1018A000140604460D1A2046295D0BF093F9013405
:1018B000B442F8D1142070BD2DE9F04387B03A4B03
:1018C0003A4F1F6000245C600BF036F9009404234B
:1018D00001930523029306230393072304933448BB
:1018E0002721022201230AF08FFE3248202106F030
:1018F0008DFB314E30462146012223460AF03CF949
:10190000DFF8E8802D4D304641462A460FF07AFA3E
:10191000DFF8DC9048461921182223460AF02CF9FA
:10192000484641462A460FF06DFA254B00934FF486
:101930000073019323483146234A244BFEF7A4FD4C
:10194000DFF8B090DFF8B080484641460DF0B8F8B7
:101950001F4E484631462A460FF054FA1D4807F0FC
:101960007FFE1D4B1F60C0221A71A8225A7164228B
:101970009A712822DA71194808F032F8184F38465F
:1019800041460DF09DF8384631462A460FF03AFAA6
:10199000144804708023437313492A460FF032FA27
:1019A00007B0BDE8F08300BFE49DFF1FE8A201007F
:1019B000AC98FF1F5C98FF1FBC9DFF1F6087FF1F37
:1019C000BC9BFF1F1498FF1FC496FF1F1C9FFF1F87
:1019D00029EA0000B096FF1F989BFF1F3C98FF1F4D
:1019E000489FFF1F089FFF1FF51000000111000016
:1019F0007498FF1F389AFF1FC09801002DE9F04F1F
:101A00009DB0814688467A4B9A680B92D3F898002D
:101A10000EF098FF49460FF087F9B8B10A251C244B
:101A20000127FA26204639460BF0FAFB20463946B4
:101A30000BF028FC30460BF069FC204600210BF02F
:101A400021FC30460BF062FC013DEBD10122694BD9
:101A50001A70674C4FF07E50616D0FF07BF80146B5
:101A6000654B186048460EF0C1FF06464846002107
:101A70000A4610AB0BF04EF9D4F800010EF062FFED
:101A8000014648460FF06EF970B148460FF09AF9DA
:101A9000C4F80001594C23685B68204658490F225E
:101AA000984720460CF064FE544C23685B6820463F
:101AB0005449082298474E4F2046D7F800110A2271
:101AC00000230CF079FE20460CF052FE4FF07E50C1
:101AD000F96D0FF03FF84C4B186041460EF086FF51
:101AE0000546404600210A4614AB0BF013F9D7F81F
:101AF00004010EF027FF014640460FF033F968B1AC
:101B000040460FF05FF9C7F8040123685B68204680
:101B10003E490F22984720460CF02AFE374C236896
:101B20005B6820463A49082298472046304BD3F854
:101B300004110A2200230CF03FFE20460CF018FE90
:101B4000FFF744FD002101220CAB0BF0E3F8252048
:101B5000FFF726FD002102220EAB0BF0DBF82D4C27
:101B600020460AF083FC204600210A460AF088FC41
:101B700023685B682046284903229847484627493E
:101B80000FF0E6F8002851D0484624490EF0E2FF55
:101B9000234F042103223B460BF0BCF8214C204686
:101BA0003946042210F0FAF9204610F06DF9013898
:101BB000235C2E2B01D1002222541A4C204610F017
:101BC00063F90246134F3B685B68384621469847E5
:101BD000134C154B93E803002060A180204610F0C1
:101BE00053F902463B685B683846214698473CE01B
:101BF000C496FF1F1098FF1FAC96FF1F08A3FF1F7E
:101C0000A8930100B8930100A098FF1FC49301009E
:101C1000D4930100AC98FF1FE093010000007A44C8
:101C20008896FF1FF097FF1FE49301009F4C4846E2
:101C300000210A4623460BF06DF8204610F024F9E7
:101C400002469B4F3B685B68384621469847994B54
:101C500093E803002060A180204610F015F90246A9
:101C60003B685B68384621469847914C30460EF0F9
:101C700029FA02460B460221009120460CF0E4FDB1
:101C800023685B6820468C49032298472046002140
:101C900001220AF0F5FB23685B682046874903228E
:101CA0009847404686490FF053F8002833D0404605
:101CB00083490EF04FFF7D4E0421032233460BF083
:101CC00029F8804C20463146042210F067F920465E
:101CD00010F0DAF80138235C2E2B01D100222254B7
:101CE000784C204610F0D0F80246714E33685B689D
:101CF0003046214698476D4C734B93E803002060B3
:101D0000A180204610F0C0F8024633685B68304678
:101D1000214698471EE0654C404600210A4623466E
:101D20000AF0F8FF204610F0AFF80246604E336824
:101D30005B683046214698475E4B93E8030020607D
:101D4000A180204610F0A0F8024633685B68304658
:101D500021469847564C28460EF0B4F902460B46E9
:101D60000225009520460CF06FFD23685B68204635
:101D7000514903229847204600212A460AF080FB59
:101D8000524B93F860404A4803685B68504A514997
:101D9000002C18BF1146042298474C4C4E4D04F1BC
:101DA000300004F140012A46FFF776FA0AF0D6F82F
:101DB00080460AF0C9F807460AF0BCF883460AF0E4
:101DC0009BF882460AF0A2F881460AF0A9F8434E31
:101DD000CDF800B0CDF804A0CDF8089003903046BF
:101DE0003F4942463B460FF015FE3E4FA368009622
:101DF00010AA01920295D4F89020039238463A49ED
:101E00003A4A0FF007FE384610F03EF80446384BC9
:101E1000186000233B54781C2146FFF7FBF902466B
:101E2000344B18700F2805D83846204432490FF03B
:101E3000F1FD04E02B48204430490FF0EBFD294D23
:101E4000284610F021F802462D4C23685B68204696
:101E50002946984720460CF08BFC2A4D1B4AD36834
:101E60001E49009114A901911B490291D2F89020BA
:101E7000039228461C491D4A0FF0CCFD284610F05D
:101E800003F80446204B186000232B54681C21469D
:101E9000FFF7C0F902461D4B18700F2838D82846A6
:101EA000204415490FF0B6FD37E000BF8896FF1FAC
:101EB000AC98FF1FEC930100F4930100F89301002C
:101EC00000007A44F097FF1FE4930100C496FF1FBF
:101ED00098930100A0930100DC9EFF1FA09BFF1FB1
:101EE000FC9301005C9AFF1F1C94010038940100D0
:101EF0008096FF1F049FFF1F40940100489401003B
:101F000008A3FF1F0096FF1FA896FF1F549AFF1FEC
:101F10007B4820447B490FF07DFD794D7A4B1F684B
:101F20002F447A4B1E787A4CD4F80490794BD3F82E
:101F30000C80D3F808A0FFF7A3F9774B0093CDF8F6
:101F400004900CAB02930EAB0393CDF81080CDF848
:101F500014A0069004F584740794704B1B680893D2
:101F600038466F4932466F4B0FF054FD28460FF04C
:101F70008BFF02466C4C23685B68204629469847D5
:101F800020460CF0F5FB694B1B78002B33D0684DD5
:101F900028460FF079FF0246664C23685B682046AE
:101FA0002946984720460CF0E3FB28460FF06CFFCB
:101FB0000246614E33685B68304629469847504D6B
:101FC00028460FF061FF024623685B6820462946D9
:101FD000984720460CF0CCFB28460FF055FF0246F0
:101FE00033685B68304629469847544FDFF878914C
:101FF000DFF878812BE0524C20460D2102220AF0B6
:102000003FFA23684F4D5B682046294607229847D0
:1020100018A829460CF054FD434818A90CF082FB7F
:102020001C2001210BF0FCF81C2001210BF02AF9E7
:10203000FA200BF06BF91C2000210BF023F91A2079
:1020400001210BF0EDF818A80CF0EEFCCDE73846B6
:1020500007F030F93C4807F09BFB60B1324C236835
:102060005B68204639490D22984720460CF080FBDA
:10207000354807F061FB2C4C23685B6820463449E7
:102080000A22984720460CF073FB2F48314B196801
:10209000502207F06DFA00286AD023685B6820465A
:1020A0002D490922984720460CF062FB00272B4B54
:1020B0005F702B4E164DAB68009310AB0193D5F8B3
:1020C000903002933046274905F1400205F1300374
:1020D0000FF0A0FC30460FF0D7FE375430460FF01B
:1020E000D3FE024623685B68204631469847204667
:1020F0000CF03EFB95F86030002B40F09380A2E09E
:102100000096FF1F48940100A896FF1F049FFF1F21
:10211000C496FF1F1C9FFF1F74940100B89BFF1FF4
:102120004C9401007094010008A3FF1F489AFF1F00
:102130005C9AFF1FBC9DFF1F7498FF1F30A0FF1FFC
:10214000AC98FF1F7C940100B096FF1F849401009F
:10215000949401009487FF1FA09401007098FF1FC2
:10216000BC99FF1FAC9401000CED00E00400FA05DF
:102170009A4A53780133DBB25370994A12689342FA
:1021800005DB40F6B8300BF0C1F8C9F80080954C7B
:1021900020460D2102220AF073F923685B6820466D
:1021A000914905229847914EF3680133F360904DB1
:1021B0002B685B6828468F490A22984728460CF00E
:1021C000D7FAC8203146FFF769FB23685B682046D1
:1021D000894901229847284688490CF0A3FA1C2017
:1021E00001210BF01DF81C2001210BF04BF8FA2007
:1021F0000BF08CF81C2000210BF044F81A20012170
:102200000BF00EF82046754B59780A2200230CF08B
:10221000D3FA7B4B1A687B4B1A6040F6B8300BF050
:1022200075F814E7784803685B6878492422984772
:102230006F4C23685B68204675491B2298472046EF
:102240000CF096FA0FE0704803685B687149202231
:102250009847674C23685B6820466F491B22984764
:1022600020460CF085FA6D4D28460FF00DFE024613
:10227000654C23685B6820462946984723685B685D
:10228000204667490922984720460CF071FA2368D6
:102290005B68204663491822984720460CF068FA8C
:1022A00023685B6820466049052298475F4B1D689C
:1022B00028460FF0E9FD024623685B682046294660
:1022C000984720460CF054FA23685B68204658492A
:1022D00010229847574D28460FF0D6FD014620465C
:1022E0000A2200230CF068FA20460CF041FA236819
:1022F0005B68204650491E22984720460CF038FA69
:1023000020460CF035FA28460FF0BEFD0246236841
:102310005B6820462946984720460CF029FA344D40
:102320002B685B68284645490D22984728460CF0E3
:102330001FFA204607F02CFA58B12B685B68284634
:102340003E490D22984728460CF012FA2E4807F015
:10235000F3F9274C23685B68204639490A229847DD
:1023600020460CF005FA2848304B1968502207F037
:10237000FFF800286ED023685B68204631490922A7
:10238000984720460CF0F4F90027144B5F702E4E4E
:102390002E4DEB68009314AB0193D5F89030029367
:1023A00030462B4905F1400205F130030FF032FBB6
:1023B00030460FF069FD375430460FF065FD024698
:1023C00023685B6820463146984720460CF0D0F9D8
:1023D00095F86030002B40F09780C7E07098FF1FA1
:1023E0007C87FF1FAC98FF1F289501001C9FFF1FD3
:1023F00008A3FF1F30950100049D0100489FFF1FA7
:10240000B0A1FF1F9898FF1FB096FF1F3C950100D9
:102410006495010080950100A4950100DC96FF1FE2
:10242000C0950100CC950100E89501009487FF1F3D
:10243000F0950100BC99FF1F0496010084940100EF
:1024400094940100A09401000C9BFF1FC496FF1FF1
:10245000AC940100354A53780133DBB25370344AEF
:102460001268934206DB40F6B8300AF04FFF314A5B
:10247000314B1A60314C20460D2102220AF000F83F
:1024800023685B6820462E490522984718A82D49E5
:102490000CF016FB23685B6820462B490122984705
:1024A0002A4818A90CF03EF91C2001210AF0B8FEB8
:1024B0001C2001210AF0E6FEFA200AF027FF1C206A
:1024C00000210AF0DFFEC8202149FFF7E7F91A20B2
:1024D00001210AF0A5FE2046144B59780A22002358
:1024E0000CF06AF91B4806F0E5FE40F6B8300AF039
:1024F0000DFF104A104B1A60174B1A68174B1A60E1
:1025000018A80CF091FA80E2154803685B68154939
:10251000242298470D4C23685B68204612491B22F1
:10252000984720460CF024F930E000BF7098FF1F58
:102530007C87FF1F0400FA050CED00E0AC98FF1F3C
:102540002895010024960100049D010008A3FF1FA7
:102550001C9FFF1F30A0FF1FB0A1FF1F9898FF1FF7
:10256000B096FF1F3C9501006495010098480368F0
:102570005B68984920229847974C23685B682046FF
:1025800096491B22984720460CF0F2F8944D2846B5
:102590000FF07AFC02468E4C23685B682046294681
:1025A000984723685B6820468E4909229847204651
:1025B0000CF0DEF823685B6820468B4918229847A8
:1025C00020460CF0D5F823685B6820468749052231
:1025D0009847874B1D6828460FF056FC0246236833
:1025E0005B6820462946984720460CF0C1F82368CE
:1025F0005B6820467F49102298477F4D28460FF0A0
:1026000043FC014620460A2200230CF0D5F8204660
:102610000CF0AEF823685B68204678491E22984784
:1026200020460CF0A5F820460CF0A2F828460FF042
:102630002BFC024623685B682046294698472046C3
:102640000CF096F86E4D28460D21022209F018FF75
:102650002B685B6828466B49072298475E4D2B68BC
:102660005B68284668490D22984728460CF080F898
:102670001A2000210AF0D4FD204607F089F858B14D
:102680002B685B68284660490D22984728460CF065
:102690006FF84F4807F050F84F4C23685B682046AE
:1026A0005A490A22984720460CF062F84848504B95
:1026B0001968502206F05CFF00283DD023685B6853
:1026C000204653490922984720460CF051F8514BB7
:1026D0001A68514B1A600027504B5F70464D2846D0
:1026E000394678220EF014FF4D4E0B9A02F1080382
:1026F00000930CAB0193D6F89030029328464949D9
:1027000006F1400206F130030FF084F928460FF07D
:10271000BBFB2F5428460FF0B7FB024623685B68CB
:1027200020462946984720460CF022F896F860305B
:10273000002B40F0878096E0384D6B7801336B704A
:102740002F4C20460D21022209F09AFE23685B6877
:102750002046354905229847344EF3680133F3602B
:102760001D4F3B685B68384631490A229847384616
:102770000BF0FEFFC8203146FFF790F823685B6836
:1027800020462C49012298471C2001210AF048FDCF
:102790001C2001210AF076FDFA200AF0B7FD1C206A
:1027A00000210AF06FFD1A2001210AF039FD2046B0
:1027B00069780A2200230BF0FFFF1F4806F07AFD1C
:1027C00040F6B8300AF0A2FD1C4A1D4B1A601CE10D
:1027D000B096FF1F8095010008A3FF1FA49501007C
:1027E000DC96FF1FC0950100CC950100E895010023
:1027F0009487FF1FF09501000C9BFF1F04960100BA
:10280000AC98FF1F2C960100849401009494010061
:10281000A0940100B0A1FF1F9898FF1F7098FF1FA0
:10282000C496FF1F34960100289501001C9FFF1FCE
:1028300030950100049D010030A0FF1F0400FA053F
:102840000CED00E0724803685B68724924229847E7
:10285000714C23685B68204670491B2298472046CC
:102860000BF086FF0FE06A4803685B686C49202222
:102870009847694C23685B6820466A491B22984741
:1028800020460BF075FF684D28460FF0FDFA024612
:102890005F4C23685B6820462946984723685B683D
:1028A000204662490922984720460BF061FF2368C1
:1028B0005B6820465E491822984720460BF058FF77
:1028C00023685B6820465B49052298475A4B1D6880
:1028D00028460FF0D9FA024623685B68204629464D
:1028E000984720460BF044FF23685B682046534915
:1028F00010229847524D28460FF0C6FA014620464E
:102900000A2200230BF058FF20460BF031FF23680A
:102910005B6820464B491E22984720460BF028FF53
:1029200020460BF025FF28460FF0AEFA024623683A
:102930005B6820462946984720460BF019FF424C19
:1029400020460D21022209F09BFD23685B6820468A
:102950003E4907229847304D2B685B6828463C4922
:102960000D22984728460BF003FF20460021032242
:1029700009F086FD23685B682046364904229847A3
:1029800020460421032209F07BFD0CA80FF07CFAFD
:10299000024623685B6820460CA9984723685B6859
:1029A00020462D490122984720460A21032209F09A
:1029B00067FD0EA80FF068FA024623685B682046A0
:1029C0000EA9984723685B6820462449012298474E
:1029D00020460421022209F053FD09F08DFAFEF78A
:1029E000E1FC23685B6820461D490122984709F0F5
:1029F0008DFAFEF7D7FC23685B682046194903224D
:102A00009847194B1A68194B1A601DB0BDE8F08F32
:102A1000B096FF1F3C95010008A3FF1F64950100BD
:102A200080950100A4950100DC96FF1FC095010070
:102A3000CC950100E89501009487FF1FF0950100F7
:102A40000C9BFF1F04960100AC98FF1F2C96010001
:102A50008494010094960100409B01009C96010023
:102A6000749A010054990100B0A1FF1F9898FF1FAC
:102A70002DE9F04192B00025484B1D70484C20468E
:102A800009F0F4FC204629462A4609F0F9FC23689F
:102A90005B682046434914229847434B1B78002B20
:102AA00040F0CC8120462946012209F0E9FC236848
:102AB0005B6820463D49142298473D4C23685B687B
:102AC00020463C49132298473B4DAB1C0093EB1C1E
:102AD00001932B1D02936E1D0396384838492A46F0
:102AE0006B1C0EF0BDFF23685B682046354902224F
:102AF0009847013DB046344F012623685B68204665
:102B0000394632469847204615F8011F1022002307
:102B10000BF052FE4545F0D125480BF029FE2B481D
:102B2000254906F0B1F948B9294B0693294B5B6852
:102B300007932648204906AA06F0A6FB2648274BFD
:102B4000198806F083FE264809F016FA09F08CF978
:102B50000AF056FB234BD3F8FC30002B4EDD224805
:102B6000224901FB03F1224A09F0E0FB104C2368E3
:102B70005B6820461F490E2298472046194BD3F820
:102B8000FC100BF055FE23685B6820461A490522AD
:102B9000984720460BF0ECFD4BE000BF1098FF1F5C
:102BA000AC98FF1FA0960100A598FF1FB8960100E2
:102BB00008A3FF1FD09601008487FF1FA897FF1F5F
:102BC000E496010008970100749A010030A0FF1FED
:102BD000E8A20100989BFF1F3C98FF1F9887FF1FEA
:102BE00085650000C496FF1F90A0FF1F8051010063
:102BF000151100000C9701001C9701009648974999
:102C0000974A09F093FB974C23685B6820469649E6
:102C10000E22984723685B68204694490122984712
:102C200023685B68204692490522984720460BF0AE
:102C30009FFD904809F0B0F98F4B1B78002B40F0B6
:102C4000FD808E4C8E4B03F1610222607533636010
:102C5000002009F0C7FE0BF09BFE02200BF0CEFE19
:102C6000884E54F8203033607E4C23685B682046E1
:102C7000854919229847854D284631680FF0A6F8F6
:102C800028460FF001F9024623685B682046294672
:102C9000984720460BF06CFD23685B6820467C4912
:102CA0000922984708A87B4906F0AAFB089B1B68E5
:102CB00008A82146984720460BF05AFD6E4B1B781A
:102CC000002B40F0BB807348734906F0DDF840BB31
:102CD00023685B68204671490B22984720460BF019
:102CE00047FD01246E4B1C706E4B0A936E4B5B6864
:102CF0000B93684868490AAA06F0C6FA1C202146C8
:102D00000AF08EFA1C2021460AF0BCFAFA200AF0DA
:102D1000FDFA1C2000210AF0B5FA1A2021460AF01B
:102D20007FFA62486249502206F022FCB8B14D4C4D
:102D300023685B6820465F490922984720460BF0CC
:102D400017FD5A4C23685B6820465B494F22984721
:102D500020460BF00DFD20460BF00AFD09E0414C2A
:102D600023685B68204655491122984720460BF09E
:102D7000FFFC4E4C012502E028460AF0C7FA204627
:102D800006F006FD20B1204606F034FC0028F3D002
:102D9000464C4B4E4B4D07E0204606F035FCC1B289
:102DA000317028460BF0B4FE204606F0F1FC0028F6
:102DB000F2D1204606F01EFC0028EDD10CA84249B5
:102DC0000BF07EFE3F480CA90BF0DCFE04460CA87D
:102DD0000BF02AFE6CB9234C23685B6820463B4904
:102DE0001D22984720460BF0C3FC0122384B1A7075
:102DF00010E01C4C23685B68204636490222984745
:102E000020460BF0B5FC0022314B1A701A2001212C
:102E10000AF006FA254806F0BBFC60B9114C2046C2
:102E20000BF0A6FC23685B6820462B490E229847CE
:102E300020460BF09DFC1D4806F07EFC01220E4B47
:102E40001A70264B1A68264B1A60264809F00EFBAA
:102E5000224F234E244D0FE190A0FF1F803A09001E
:102E60001511000008A3FF1F0C9701002497010013
:102E70001C97010080510100A598FF1F3498FF1F87
:102E8000C496FF1F9487FF1F289701008896FF1F95
:102E90004497010030A0FF1F8487FF1F5097010057
:102EA000309FFF1FE8A20100989BFF1FB096FF1FF5
:102EB000589F01005C97010068970100B8970100D6
:102EC000B899FF1F389AFF1FCC970100F4970100B3
:102ED000FC9EFF1F1C9B010014980100B0A1FF1F66
:102EE000E09DFF1FAC98FF1FA487FF1F7B4B1B7843
:102EF00013F0FF0F1BD07A4C23685B68204679499A
:102F00000222984720460BF033FC744B1A7882F06B
:102F100001021A700022744B1A70744809F0A6FA64
:102F200040F6B832724B1A6002F0AEFCD3E06E4B42
:102F30001B7813F0FF0F1BD0694C23685B68204699
:102F40006C490422984720460BF012FC664B1A7815
:102F500082F001021A700022604B1A70634809F077
:102F600085FA40F6B832624B1A6000F0E9F8B2E038
:102F7000614B1B7813F0FF0F15D0594C23685B6829
:102F800020465E490522984720460BF0F1FB5A4B3C
:102F90001A7882F001021A700023504A1370524AC4
:102FA0001370574B2B60514C204600210A4609F004
:102FB00067FA23685B6820465249142298472046E6
:102FC0000021012209F05CFA4F4B1B78002B4DD1F8
:102FD00023685B6820464D490322984710A84C4956
:102FE00006F00EFA109B1B6810A821469847204651
:102FF0000021022209F044FA23685B682046454913
:1030000003229847444BD3F8008040460EF03CFF23
:10301000024623685B6820464146984720460021C7
:10302000032209F02DFA23685B6820463B490322FE
:103030009847DFF800813A4A1378517800919178E7
:103040000191D1780291117903915279049240460D
:103050001221344A0EF0AAFC40460EF015FF02463B
:1030600023685B6820464146984705E01F4803688F
:103070005B682D49062298473A683368D21A2B6854
:103080009A427FF633AF294B1B789BB9144C2368C7
:103090005B68204626490D229847264D28460EF0AB
:1030A000F3FE024623685B6820462946984720467F
:1030B0000BF05EFB0A4C23685B6820461E491D220C
:1030C000984720461D4B19780BF0B2FB20460BF0B9
:1030D0004FFB00F035F812B0BDE8F081A498FF1F57
:1030E00008A3FF1F24980100559AFF1FAC98FF1FEB
:1030F000A487FF1F28980100589AFF1F30980100ED
:10310000A0860100A0960100309FFF1F38980100A3
:1031100030A0FF1F3C9801009487FF1F40980100DA
:103120008487FF1F4498010064980100A598FF1F41
:103130006C980100849BFF1F7C980100A087FF1FF3
:103140002DE9F84300254C4B1D704C4C204609F0EE
:103150008DF9204629462A4609F092F923685B68D2
:103160002046474912229847464A136846490B6051
:103170001268D31A454A12689A42C0F02781444B1C
:103180001B7813F0FF0F10D1424B1B7813F0FF0F89
:103190002FD1414B1B7813F0FF0F00F087804CE0DC
:1031A0003B4B1B7813F0FF0F1ED03C4C23685B6831
:1031B00020463B490222984720460BF0D9FA344B6F
:1031C0001A7882F001021A700023324A1370324AD0
:1031D00013702A4809F04AF940F6B8322B4B1A60AE
:1031E000FFF746FCBDE8F8832A4B1B7813F0FF0F6E
:1031F0001ED02A4C23685B6820462A49042298473F
:1032000020460BF0B5FA234B1A7882F001021A70AF
:1032100000231F4A1370204A1370184809F026F93A
:1032200040F6B832194B1A6002F06EF9BDE8F88327
:10323000194B1B7813F0FF0F3DD0184C23685B68C7
:10324000204619490522984720460BF091FA124B67
:103250001A7882F001021A7000230E4A13700C4A89
:103260001370064809F002F941F28832074B1A60E0
:1032700002F04AF9BDE8F8831098FF1FAC98FF1FD1
:10328000DC980100B0A1FF1FE09DFF1FA487FF1F76
:10329000A498FF1F559AFF1F579AFF1F08A3FF1FEF
:1032A0002498010028980100F0980100554FDFF89C
:1032B000A881DFF8B0913B7813F0FF0F15D0D8F854
:1032C00000305B68404649460522984740460BF06F
:1032D0004FFA3B7883F001033B7000234A4A137096
:1032E0004A4A13704A4A4B4B1A604B4C2046002105
:1032F0000A4609F0C5F823685B6820464749122250
:10330000984720460021012209F0BAF823685B683B
:103310002046434907229847424B1978424D284698
:10332000424B434A00290CBF114619460EF04EFD90
:1033300028460EF0A9FD024623685B682046294610
:10334000984720460021022209F09AF823685B681A
:103350002046384903229847374B1D6828460EF00F
:1033600093FD024623685B6820462946984720461D
:103370000021032209F084F823685B6820462F4966
:10338000052298472E4B1D78274E34462D4B2E4A4A
:10339000002D0CBF15461D460FCD0FC495E8030048
:1033A00044F8040B217030460EF06EFD02461A48B8
:1033B00001684C683146A047244B1A68244B1B68AF
:1033C000D21A144B1B689A427FF6EAAE214B1B7847
:1033D0009BB9214C23685B68204620490D22984701
:1033E0001F4D28460EF050FD024623685B682046BC
:1033F0002946984720460BF0BBF900F035F8BDE8A8
:10340000F88300BF589AFF1FA498FF1F559AFF1F0B
:10341000A0860100A487FF1FAC98FF1FDC98010065
:10342000F8980100309FFF1F8896FF1F9C980100AD
:10343000A49801003C9801009487FF1F00990100A7
:10344000FC9EFF1FAC980100C4980100B0A1FF1FB3
:10345000E09DFF1FA598FF1F08A3FF1F6C980100A8
:10346000849BFF1F30980100F0B583B000224B4BC6
:103470001A704B4808F080FD08F076FD022818D03D
:10348000484C23685B68204647491B2298472046E2
:103490000BF06EF9454B9B68454AA2FB0312520B99
:1034A0004448454942F2107404FB12320EF0B2FA5D
:1034B00018E03C4C23685B6820464049232298472B
:1034C00020460BF055F908F049FD054608F03CFD93
:1034D000044608F02FFD0090364839492A46234615
:1034E0000EF098FA374808F0C1FF374A1368374999
:1034F0000B601268D31A364A1268934200F2EE80CB
:10350000344B1B7813F0FF0F0AD1334B1B7813F0A9
:10351000FF0F67D025E02F4B1B7813F0FF0F1BD058
:10352000204C23685B6820462C490222984720469D
:103530000BF01EF9274B1A7882F001021A70002254
:10354000254B1A701F4808F091FF40F6B832204B07
:103550001A60FFF7F5FDBFE11F4B1B7813F0FF0F5B
:1035600043D0104C23685B6820461D4904229847CD
:1035700020460BF0FDF8184B1A7882F001021A7001
:103580000022144B1A700F4808F070FF40F6B83252
:103590000F4B1A6000F0A2F99EE100BF1098FF1FC8
:1035A000ED10000008A3FF1F08990100C496FF1F3B
:1035B0005917B7D1389FFF1F249901003499010092
:1035C00058990100AC98FF1FB0A1FF1FE09DFF1F9D
:1035D000A487FF1FA498FF1F559AFF1F249801007E
:1035E000289801009B4E9C4F9C4D337813F0FF0FA1
:1035F00014D03B685B68384699490522984738469D
:103600000BF0B6F8337883F0010333700023954A4A
:103610001370954A1370954A954B1A60954C204645
:1036200000210A4608F02CFF23685B682046924977
:103630000A22984720460021012208F021FF236832
:103640005B6820468D490522984708F07DFC0146BD
:1036500020460BF0EDF823685B682046884901227C
:10366000984708F067FC014620460BF0E1F8204639
:103670000021022208F004FF23685B68204681498C
:103680000522984708F038FCFDF78CFE23685B683C
:1036900020467D490122984708F038FCFDF782FE5C
:1036A00020460021032208F0EBFE23685B682046D9
:1036B00076490522984728460EF0E6FB0246236825
:1036C0005B68204629469847714B1A68714B1B6806
:1036D000D21A674B1B689A427FF61DAF6E4B93F868
:1036E00060304BB15C4C23685B6820466B492522F7
:1036F000984720460BF03CF80122694B1A70694B41
:103700001B78002B35D1684B1B78002B31D0674BD1
:103710001A7067490B6913440B61C820FEF7BEF8A5
:10372000644C654E654D23685B6820463146072230
:10373000984728460EF0A8FB024623685B6820469F
:103740002946984720460D2108F0C2F90020FDF7D0
:1037500053FE88B90320002109F062FD642009F0BE
:10376000D5FD0320012109F05BFD0120FDF744FE9A
:10377000D9E700F0B3F8AFE0514C2546514E0FCEDB
:103780000FC533682B6020460EF07EFB0246494E83
:1037900033685B6830462146984720460EF074FB3C
:1037A00002462D4D2B685B682846214698472046E7
:1037B00045490EF02FF920460EF066FB02462B68B5
:1037C0005B6828462146984728460AF0D1FF2046E4
:1037D0000EF05AFB024633685B6830462146984734
:1037E00033490A69CB6889680091204637490EF051
:1037F00011F920460EF048FB024633685B683046FC
:103800002146984720460EF03FFB02462B685B6836
:1038100028462146984728460AF0AAFF20462C4908
:103820002C4A0EF0F7F820460EF02EFB02462B68CD
:103830005B6828462146984728460AF099FF2046AB
:103840000EF022FB024633685B68304621469847FB
:103850008FE700BF589AFF1F08A3FF1F6097FF1F45
:1038600030980100A498FF1F559AFF1FA086010001
:10387000A487FF1FAC98FF1F6C9901007899010085
:103880008099010084990100749A01008C990100CB
:10389000B0A1FF1FE09DFF1FC496FF1F9499010078
:1038A000FC95FF1F9C98FF1F489AFF1F9D98FF1FC4
:1038B0001C9FFF1FBC9DFF1FBC990100389FFF1F6D
:1038C0008896FF1FC4990100AC87FF1FD89901009B
:1038D000FC990100CC97FF1F03B0F0BD2DE9F0412A
:1038E0000025764B1D70764C204608F0BFFD204623
:1038F00029462A4608F0C4FD23685B6820467149C2
:103900001022984720462946012208F0B9FD236875
:103910005B6820466C490B2298474FF47A7009F097
:10392000F5FC204608F0A2FD684A136868490B6060
:103930001268D31A674A1268934200F2BB80664B42
:103940001B7813F0FF0F0AD1644B1B7813F0FF0FA5
:1039500048D028E0604B1B7813F0FF0F1ED0604C5E
:1039600023685B6820465F490222984720460AF098
:10397000FFFE594B1A7882F001021A700023574A51
:103980001370594A13704E4808F070FD40F6B83273
:10399000504B1A60FFF768FDBDE8F0814F4B1B7874
:1039A00013F0FF0F22D04E4C23685B6820464F492E
:1039B0000422984720460AF0DBFE484B1A7882F032
:1039C00001021A700023444A1370474A13703C489E
:1039D00008F04CFD40F6B8323E4B1A6000F098F803
:1039E000BDE8F081424E3E4FDFF82081337813F07E
:1039F000FF0F14D03B685B68384641460522984764
:103A000038460AF0B5FE337883F0010333700023A3
:103A1000314A1370314A1370364A2E4B1A6008F03F
:103A2000A3FA274C204600210A4608F029FD236806
:103A30005B68204630490422984720460021012235
:103A400008F01EFD23685B6820462C490A2298472F
:103A500020460021022208F013FD294D28460EF0D1
:103A600013FA024623685B68204629469847204699
:103A70000021032208F004FD23685B6820462149E9
:103A80000522984708F038FAFDF78CFC23685B683C
:103A900020461D490122984708F038FAFDF782FCBC
:103AA0000A4B1A680A4B1B68D21A0A4B1B689A42C7
:103AB0007FF650AF00F02CF8BDE8F0811098FF1FA2
:103AC000AC98FF1F109A0100249A0100B0A1FF1FBB
:103AD000E09DFF1FA487FF1FA498FF1F559AFF1F9B
:103AE00008A3FF1F24980100579AFF1F2898010080
:103AF000589AFF1FA0860100309A0100389A0100F1
:103B00006C87FF1F84990100749A010030980100AE
:103B1000F8B50022674B1A70674808F0A7FC674A9F
:103B2000136867490B601268D31A664A1268934299
:103B300000F2BC80644B1B7813F0FF0F0AD1634B7B
:103B40001B7813F0FF0F42D025E05F4B1B7813F07A
:103B5000FF0F1BD05E4C23685B6820465D49022244
:103B6000984720460AF004FE574B1A7882F001026B
:103B70001A700022554B1A704F4808F077FC40F637
:103B8000B832504B1A60FFF7A9FEF8BD4F4B1B78B7
:103B900013F0FF0F1FD04E4C23685B6820464E4940
:103BA0000422984720460AF0E3FD484B1A7882F039
:103BB00001021A700022444B1A703F4808F056FC6C
:103BC00040F6B8323F4B1A6000F09AF8F8BD434F08
:103BD000434D05F19C063B7813F0FF0F15D03C4C8C
:103BE00023685B6820463F490522984720460AF033
:103BF000BFFD3B7883F001033B700023324A137012
:103C0000324A1370384A2F4B1A602B4C2046002141
:103C10000A4608F035FC23685B68204633490F22CA
:103C2000984720460021012208F02AFC23685B689F
:103C300020462F4909229847204669680A22002316
:103C40000AF0BAFD20460021022208F019FC236880
:103C50005B68204627490922984730460EF014F940
:103C6000024623685B68204631469847204600217B
:103C7000032208F005FC23685B6820461E490922E0
:103C800098472046D5F898100AF0D2FD23685B6863
:103C900020461A4903229847084B1A68084B1B68AC
:103CA000D21A084B1B689A427FF64FAF00F028F8F3
:103CB000F8BD00BF1098FF1FAC98FF1FB0A1FF1FF9
:103CC000E09DFF1FA487FF1FA498FF1F559AFF1FA9
:103CD00008A3FF1F2498010028980100589AFF1F8D
:103CE000C496FF1F30980100A0860100449A01008D
:103CF000549A0100609A01006C9A0100789A0100C0
:103D0000F8B50022594B1A70594808F0AFFB594AD0
:103D1000136859490B601268D31A584A12689342C3
:103D200000F2A080564B1B7813F0FF0F0AD1554BC1
:103D30001B7813F0FF0F42D025E0514B1B7813F096
:103D4000FF0F1BD0504C23685B6820464F4902226E
:103D5000984720460AF00CFD494B1A7882F0010280
:103D60001A700022474B1A70414808F07FFB40F65A
:103D7000B832424B1A60FFF7CBFEF8BD414B1B78BF
:103D800013F0FF0F1ED0404C23685B68204640496B
:103D90000422984720460AF0EBFC3A4B1A7882F04E
:103DA00001021A700022364B1A70314808F05EFB8F
:103DB00040F6B832314B1A6000F07AF8F8BD354D54
:103DC000314E354F2B7813F0FF0F14D033685B68FA
:103DD000304639460522984730460AF0C9FC2B7810
:103DE00083F001032B700023254A1370254A1370BA
:103DF0002A4A224B1A601E4C204600210A4608F02F
:103E00003FFB23685B68204625490B2298472046E4
:103E10000021012208F034FB23685B682046214919
:103E20000D22984720460021022208F029FB236832
:103E30005B6820461C491222984720460021032235
:103E400008F01EFB23685B68204618491222984739
:103E5000084B1A68084B1B68D21A084B1B689A4219
:103E60007FF66BAF00F024F8F8BD00BF1098FF1F7D
:103E7000AC98FF1FB0A1FF1FE09DFF1FA487FF1F8D
:103E8000A498FF1F559AFF1F08A3FF1F2498010045
:103E900028980100589AFF1F30980100A086010061
:103EA0007C9A0100889A0100989A0100AC9A01005E
:103EB0002DE9F04100228B4B1A708B4808F0D6FA9E
:103EC0008A4A13688A490B601268D31A894A1268B1
:103ED000934200F2C980884B1B7813F0FF0F0AD180
:103EE000864B1B7813F0FF0F44D026E0824B1B78E3
:103EF00013F0FF0F1CD0824C23685B682046814979
:103F00000222984720460AF033FC7B4B1A7882F055
:103F100001021A700022794B1A70734808F0A6FA51
:103F200040F6B832734B1A60FFF7EAFEBDE8F08145
:103F3000724B1B7813F0FF0F21D0714C23685B6824
:103F4000204671490422984720460AF011FC6B4B29
:103F50001A7882F001021A700022674B1A706248C8
:103F600008F084FA40F6B832624B1A6000F0E0F8CC
:103F7000BDE8F081DFF8B481644E06F1400798F89F
:103F8000003013F0FF0F17D05D4C23685B682046AC
:103F90005F490522984720460AF0EAFB98F800306E
:103FA00083F0010388F800300023534A1370534A0A
:103FB0001370584A4F4B1A604B4C204600210A465A
:103FC00008F05EFA23685B68204653490C22984744
:103FD00020460021012208F053FA23685B6820463E
:103FE0004E490422984738460DF04EFF024623689A
:103FF0005B6820463946984720460021022208F097
:104000003FFA23685B68204645490422984706F139
:10401000300528460DF038FF024623685B682046CD
:104020002946984720460021032208F029FA2368F0
:104030005B6820463B49042298472046D6F89010FA
:104040000A2200230AF0B8FB23685B682046364941
:1040500001229847254B1A68254B1B68D21A254B1D
:104060001B689A427FF642AF254C23685B68204666
:104070002A4904229847254D05F1400630460DF0A7
:1040800003FF024623685B68204631469847204676
:104090000AF06EFB23685B6820462149042298479A
:1040A00005F1300630460DF0EFFE024623685B68EE
:1040B00020463146984720460AF05AFB23685B6841
:1040C00020461849042298472046D5F890100A2225
:1040D00000230AF071FB20460AF04AFB00F028F8A2
:1040E000BDE8F0811098FF1FAC98FF1FB0A1FF1F23
:1040F000E09DFF1FA487FF1FA498FF1F559AFF1F75
:1041000008A3FF1F2498010028980100C496FF1FF0
:1041100030980100A0860100C09A0100D09A0100E9
:10412000D89A0100E09A01003C8F0100589AFF1FC5
:104130002DE9F04100227F4B1A707F4808F096F974
:104140007E4A13687E490B601268D31A7D4A126852
:10415000934200F2EB807C4B1B7813F0FF0F0AD1E7
:104160007A4B1B7813F0FF0F44D026E0764B1B7878
:1041700013F0FF0F1CD0764C23685B68204675490E
:104180000222984720460AF0F3FA6F4B1A7882F021
:1041900001021A7000226D4B1A70674808F066F928
:1041A00040F6B832674B1A60FFF782FEBDE8F08137
:1041B000664B1B7813F0FF0F21D0654C23685B68BA
:1041C000204665490422984720460AF0D1FA5F4B01
:1041D0001A7882F001021A7000225B4B1A7056485E
:1041E00008F044F940F6B832564B1A6000F0CCF8AB
:1041F000BDE8F081DFF88C81584D05F1CF0798F8C4
:10420000003013F0FF0F17D0514C23685B68204635
:1042100053490522984720460AF0AAFA98F8003038
:1042200083F0010388F800300023474A1370474A9F
:1042300013704C4A434B1A603F4C204600210A46FB
:1042400008F01EF923685B68204647490822984712
:1042500095F8582095F850301A4206D02046236829
:104260005B6842490422984705E0334803685B686D
:104270003F4906229847304C20460021012208F091
:10428000FFF823685B6820463A4903229847686D27
:104290000CF072FD014620460AF0CAFA2368364E39
:1042A0005B68204631460922984738460DF0ECFD00
:1042B000024623685B68204639469847204600211D
:1042C000022208F0DDF823685B6820462B490322B0
:1042D0009847E86D0CF050FD014620460AF0A8FA18
:1042E00023685B68204631460922984705F1D706C6
:1042F00030460DF0C9FD024623685B682046314612
:10430000984720460021032208F0BAF823685B682A
:1043100020461B4906229847084B1A68084B1B6821
:10432000D21A084B1B689A427FF620AF00F02CF897
:10433000BDE8F0811098FF1FAC98FF1FB0A1FF1FD0
:10434000E09DFF1FA487FF1FA498FF1F559AFF1F22
:1043500008A3FF1F2498010028980100C496FF1F9E
:1043600030980100A0860100E89A0100F49A01004B
:10437000FC9A0100049B0100089B0100149B0100B2
:10438000189B0100589AFF1FF8B50022724B1A7053
:10439000724808F06BF8724A136872490B60126831
:1043A000D31A714A1268934200F2D3806F4B1B7884
:1043B00013F0FF0F0AD16E4B1B7813F0FF0F42D0A2
:1043C00025E06A4B1B7813F0FF0F1BD0694C236864
:1043D0005B68204668490222984720460AF0C8F9DF
:1043E000624B1A7882F001021A700022604B1A7038
:1043F0005A4808F03BF840F6B8325B4B1A60FFF7BA
:1044000097FEF8BD5A4B1B7813F0FF0F1ED0594C86
:1044100023685B68204659490422984720460AF0E1
:10442000A7F9534B1A7882F001021A7000224F4B01
:104430001A704A4808F01AF840F6B8324A4B1A6027
:1044400000F0BAF8F8BD4E4D4A4E4E4F2B7813F09F
:10445000FF0F14D033685B68304639460522984711
:1044600030460AF085F92B7883F001032B70002386
:104470003E4A13703E4A1370434A3B4B1A60374C16
:10448000204600210A4607F0FBFF23685B682046B0
:104490003E490B22984720460021012207F0F0FFF9
:1044A0003B4B93F85030A3B13A4B1B6853B92046AD
:1044B00023685B683849072298471A20012108F0D1
:1044C000AFFE0CE0254803685B6834490722984733
:1044D00005E0224803685B683149052298471F4878
:1044E0000021022207F0CCFF294B93F85030A3B1F2
:1044F0002C4B1B6853B9194803685B682A4907228B
:1045000098471A20012108F08BFE0CE0134803683D
:104510005B6826490722984705E0104803685B68F6
:104520002349052298470D4C20460021032207F01D
:10453000A7FF23685B6820461E4906229847084B60
:104540001A68084B1B68D21A074B1B689A427FF601
:1045500038AF00F031F8F8BD1098FF1FAC98FF1F7E
:10456000B0A1FF1FE09DFF1FA487FF1FA498FF1F9E
:10457000559AFF1F08A3FF1F2498010028980100E7
:10458000589AFF1F30980100A0860100209B01006F
:10459000C496FF1F2898FF1F2C9B0100349B01002D
:1045A0003C9B01008496FF1F449B01004C9B010033
:1045B000549B0100189B0100F8B500226C4B1A7047
:1045C0006C4807F053FF6C4A13686C490B60126823
:1045D000D31A6B4A1268934200F2C780694B1B786A
:1045E00013F0FF0F0AD1684B1B7813F0FF0F42D076
:1045F00025E0644B1B7813F0FF0F1BD0634C23683E
:104600005B68204662490222984720460AF0B0F8CB
:104610005C4B1A7882F001021A7000225A4B1A7011
:10462000544807F023FF40F6B832554B1A60FFF7A5
:10463000ABFEF8BD544B1B7813F0FF0F1FD0534C4B
:1046400023685B68204653490422984720460AF0B5
:104650008FF84D4B1A7882F001021A700022494BF4
:104660001A70444807F002FF40F6B832444B1A6013
:1046700000F0A4F8F8BD484F484D05F118063B7806
:1046800013F0FF0F15D0414C23685B682046444966
:104690000522984720460AF06BF83B7883F0010327
:1046A0003B700023374A1370374A13703D4A344B2E
:1046B0001A60304C204600210A4607F0E1FE2368CC
:1046C0005B6820463849032298472046052100228E
:1046D00007F0D6FE95F8603033B1204623685B685A
:1046E00032490B22984705E0224803685B6830494D
:1046F0000A2298471F4C20460021012207F0C0FEE5
:1047000023685B6820462B49062298472046A96803
:104710000A2200230AF050F820460021022207F066
:10472000AFFE23685B68204623490622984720464F
:10473000E9680A2200230AF03FF8204600210322FC
:1047400007F09EFE30460DF09FFB024623685B6833
:10475000204631469847084B1A68084B1B68D21A06
:10476000074B1B689A427FF644AF00F027F8F8BD6C
:104770001098FF1FAC98FF1FB0A1FF1FE09DFF1F07
:10478000A487FF1FA498FF1F559AFF1F08A3FF1FB0
:104790002498010028980100589AFF1FC496FF1F13
:1047A00030980100A08601005C9B0100609B010025
:1047B0006C9B0100789B0100809B01002DE9F0417A
:1047C00000225C4B1A705C4807F050FE5B4A13688D
:1047D0005B490B601268D31A5A4A1268934200F27E
:1047E000A580594B1B7813F0FF0F0AD1574B1B784C
:1047F00013F0FF0F47D029E0534B1B7813F0FF0F46
:104800001FD0534C23685B682046524902229847C8
:10481000204609F0ADFF4C4B1A7882F001021A7065
:1048200000224A4B1A70444807F020FE40F6B83286
:10483000444B1A600122484B1A70FFF7BDFEBDE8D9
:10484000F081424B1B7813F0FF0F20D0404C2368BF
:104850005B682046414904229847204609F088FFBA
:104860003A4B1A7882F001021A700022364B1A7005
:10487000314807F0FBFD40F6B832324B1A6000F0C9
:104880007DF8BDE8F081364E314FDFF8EC803378AB
:1048900013F0FF0F14D03B685B6838464146052291
:1048A0009847384609F064FF337883F0010333708A
:1048B0000023254A1370254A13702A4A214B1A6097
:1048C0001D4C204600210A4607F0DAFD23685B688C
:1048D000204625490B22984720460021012207F057
:1048E000CFFD224D28460DF0CFFA024623685B68C3
:1048F00020462946984723685B6820461C490122C8
:10490000984720460021022207F0BAFD23685B6821
:10491000204618490C229847084B1A68084B1B6818
:10492000D21A084B1B689A427FF666AF00F026F851
:10493000BDE8F0811098FF1FAC98FF1FB0A1FF1FCA
:10494000E09DFF1FA487FF1FA498FF1F559AFF1F1C
:1049500008A3FF1F24980100A598FF1F28980100B5
:10496000589AFF1FA0860100889B0100389FFF1FF7
:10497000749A0100949B0100309801002DE9F041E8
:1049800084B0564B1B781BB9554B1A68554B1A60AF
:10499000FCF74EFCFCF71AFE002101226B4608F0E2
:1049A000B9F92520FCF7FCFD0021022202AB08F03A
:1049B000B1F901224C4B1A704C4807F057FD484A98
:1049C00013684B490B604FF47A704A4908601268CB
:1049D000D31A834200F26181414B1B68464A126838
:1049E0001A44464B1A60464B1B7813F0FF0F17D141
:1049F000444B1B7813F0FF0F33D1434B1B7813F05C
:104A0000FF0F00F08B804AE0354B1A683A4B1B6869
:104A10001A443A4B1A603A4B1B7813F0FF0F1BD025
:104A20003A4C23685B682046394902229847204661
:104A300009F09EFE324B1A7882F001021A700022B1
:104A4000304B1A70294807F011FD40F6B832294B57
:104A50001A60FFF7B3FE20E12A4B1B7813F0FF0F1B
:104A600018D02A4C23685B6820462A4904229847BC
:104A7000204609F07DFE234B1A7882F001021A705D
:104A800000221F4B1A704FF4FA721A4B1A6000F092
:104A9000E5FB02E11C4B1B7813F0FF0F42D01B4CCF
:104AA00023685B6820461C4905229847204609F088
:104AB0005FFE154B1A7882F001021A700023114A2A
:104AC00013700F4A1370094807F0D0FC40F6B83253
:104AD000084B1A6000F018FBDFE000BF9C98FF1F36
:104AE000B0A1FF1F9898FF1F1098FF1FAC98FF1FE1
:104AF000E09DFF1FA487FF1F009FFF1FA898FF1FB7
:104B0000A498FF1F559AFF1F579AFF1F08A3FF1F66
:104B10002498010028980100F0980100604CDFF80B
:104B2000C481604D204600210A4607F0A9FC236895
:104B30005B68204641460322984723685B6820460D
:104B40002946012298472368574F5B68204639461B
:104B50000522984723685B6820462946012298472A
:104B60002368524E5B682046314603229847204610
:104B70000021012207F084FC23685B6820464C4931
:104B80000322984723685B682046294601229847FC
:104B900023685B68204639460522984723685B688E
:104BA000204629460122984723685B682046314603
:104BB0000322984720460021022207F061FC3D4B6A
:104BC00093F8606023685B6820463B4A3B49002EAF
:104BD00018BF11460422984720460421022207F0FC
:104BE0004FFC07F089F9FCF7DDFB23685B68204682
:104BF00033490122984707F089F9FCF7D3FB236872
:104C00005B6820462F490322984720460D21022247
:104C100007F036FC23685B6820462B49072298473B
:104C200020460021032207F02BFC23685B68204606
:104C300026490422984720460421032207F020FC3D
:104C400068460DF021F9024623685B6820466946F4
:104C5000984723685B6820461D49012298472046F3
:104C60000A21032207F00CFC02A80DF00DF9024600
:104C700023685B68204602A9984723685B68204642
:104C8000144901229847144B1A68144B1B68D21A16
:104C9000134B1B689A427FF6B7AE04B0BDE8F081B3
:104CA000AC98FF1F80990100EC930100F493010080
:104CB000F8930100C496FF1F98930100A093010090
:104CC000749A010054990100A49B0100949601007C
:104CD000409B01009C960100B0A1FF1FE09DFF1FBB
:104CE000A487FF1FE0930100F8B50022564B1A700D
:104CF000564807F0BBFB564A136856490B601268CA
:104D0000D31A554A1268934200F29D80534B1B7888
:104D100013F0FF0F0AD1524B1B7813F0FF0F42D054
:104D200028E04E4B1B7813F0FF0F1ED04D4C23682C
:104D30005B6820464C4902229847204609F018FD3E
:104D4000464B1A7882F001021A700022444B1A7006
:104D50003E4807F08BFB40F6B8323F4B1A60012209
:104D6000394B1A70FFF70AFEF8BD3D4B1B7813F064
:104D7000FF0F1BD03B4C23685B6820463B49042255
:104D80009847204609F0F4FC354B1A7882F001026E
:104D90001A700022314B1A704FF4FA722E4B1A60BF
:104DA00000F070F8F8BD294C314F324E20460021FA
:104DB0000A4607F065FB23685B68204639460522F2
:104DC000984720460021012207F05AFB23685B68C0
:104DD0002046314607229847274D2046D5F8001136
:104DE0000A22002309F0E8FC20460021022207F0F5
:104DF00047FB23685B6820462049072298472046E6
:104E0000D5F804110A22002309F0D6FC204600211F
:104E1000032207F035FB23685B6820461849082207
:104E20009847FCF72DFA014620460A22002309F094
:104E3000C3FC074B1A68074B1B68D21A064B1B684A
:104E40009A427FF66EAFF8BD1098FF1FAC98FF1F17
:104E5000B0A1FF1FE09DFF1FA487FF1FA498FF1FA5
:104E6000559AFF1F08A3FF1F2498010028980100EE
:104E7000AC9B0100B49B0100C496FF1FBC9B0100CA
:104E8000C49B0100F0B583B00022834B1A70834CA1
:104E90002368834E3360834D2B685B6828468249C4
:104EA0001C2298473068814BA3FB00208009804B6F
:104EB00083FB00610144491183FB01230B44CA17A2
:104EC000C2EB63137B4A82FB0362DE17C6EBA202CE
:104ED000794E3260A1EB011600EB8600774E306010
:104EE000A3EB031001EB800175480160A2EB820087
:104EF00003EBC0037348036000912846724909F030
:104F00004DFC724807F0B2FA2368714A13602268B8
:104F1000D31A704A1268934200F2BC806E4B1B7821
:104F200013F0FF0F0AD16D4B1B7813F0FF0F45D024
:104F300025E0694B1B7813F0FF0F1BD0594C2368F9
:104F40005B682046664902229847204609F010FC1B
:104F5000614B1A7882F001021A7000225F4B1A70BE
:104F60005A4807F083FA40F6B8325A4B1A60FFF7F6
:104F7000BBFE8FE0594B1B7813F0FF0F21D0494C3B
:104F800023685B682046574904229847204609F069
:104F9000EFFB524B1A7882F001021A7000224E4B3E
:104FA0001A704A4807F062FA40F6B832494B1A6064
:104FB0000122394B1A70FFF7E1FC6BE0434C4A4F7A
:104FC0003D4E204600210A4607F05AFA23685B68E6
:104FD00020463946032298472046316809F028FCCC
:104FE00023685B6820464149022298472046354B9A
:104FF000196809F01DFC23685B6820463C490222C1
:10500000984720462E4B196809F012FC23685B680C
:10501000204638490222984720460021012207F005
:105020002FFA23685B682046334906229847334DA0
:10503000204629690A22002309F0BEFB20460021F0
:10504000022207F01DFA23685B6820462C490622DD
:1050500098472046E9680A22002309F0ADFB204664
:105060000021032207F00CFA23685B6820462549DB
:105070000A2298472046A9680A22002309F09CFBCF
:10508000064B1A68124B1B68D21A124B1B689A42C5
:105090007FF64FAF03B0F0BD1098FF1FB0A1FF1F08
:1050A000F89EFF1F08A3FF1FD09B0100D34D621085
:1050B00089888888ABAAAA2A349AFF1FC096FF1F46
:1050C000589FFF1FB49BFF1FF09B0100AC98FF1F70
:1050D000E09DFF1FA487FF1FA498FF1F559AFF1F85
:1050E0002498010028980100109C0100149C0100E4
:1050F000189C01001C9C0100209C01001C9FFF1FAC
:10510000289C0100309C010070B50022474B1A70AA
:10511000474807F0ABF9474A136847490B601268E4
:10512000D31A464A12689A427CD3454B1B7813F037
:10513000FF0F0AD1434B1B7813F0FF0F45D028E037
:105140003F4B1B7813F0FF0F1ED03F4C23685B686A
:1051500020463E4902229847204609F009FB384B79
:105160001A7882F001021A700022364B1A70304809
:1051700007F07CF940F6B832304B1A6001222B4B15
:105180001A70FFF7FBFB70BD2E4B1B7813F0FF0F5F
:105190001ED02D4C23685B6820462C49022298477C
:1051A000204609F0E5FA274B1A7882F001021A70BE
:1051B0000022234B1A704FF4FA72204B1A6001221E
:1051C0001A4B1A70FFF7DAFB70BD194C204E214DB7
:1051D000204600210A4607F053F923685B68204601
:1051E00031460922984720460021012207F048F95C
:1051F00023685B6820462946042298472046002100
:10520000022207F03DF923685B6820461249052217
:105210009847084B1A68084B1B68D21A074B1B6843
:105220009A428DD9FFF7AAFB70BD00BF1098FF1FEF
:10523000AC98FF1FB0A1FF1FE09DFF1FA487FF1FB9
:10524000A498FF1F559AFF1F08A3FF1F2498010071
:105250003C9C0100489C0100509C010070B501225B
:105260008D4B1A708D48002107F000F88C4B1C689C
:105270008C4B1868FCF7B6F88B4B1B7813B3201ACD
:105280008A4C84FB0014C017C0EBA414884D85FB26
:1052900004352544E317C3EB6515864E30460F21D0
:1052A000032207F0EDF82846FCF78CF833685B68BA
:1052B0003046814901229847A5EB051004EB800098
:1052C000FCF770F8774B1868FCF78CF8744B1B6888
:1052D000984280F0C180794B1B7813F0FF0F1FD0EC
:1052E000774C23685B68204676490222984720461F
:1052F00009F03EFA714B1A7882F001021A7000230D
:10530000714A1370714A1370714A1370694807F03B
:10531000ADF84FF47A726F4B1A60FFF74FFA70BD19
:10532000694B1B7813F0FF0F1FD0654C23685B6837
:105330002046694904229847204609F019FA624B31
:105340001A7882F001021A700023604A13705B4AD7
:1053500013705F4A1370574807F088F84FF47A7259
:105360005C4B1A60FFF7C0FC70BD594B1B7813F003
:10537000FF0F19D0524C23685B682046574905221D
:105380009847204609F0F4F9514B1A7882F001024F
:105390001A7000214D4B1970484B19704A4B197007
:1053A0001A2007F03DFF70BD484B1B7813F0FF0F2C
:1053B0001FD0434C23685B68204649490522984723
:1053C000204609F0D5F9414B1A7882F001021A7093
:1053D00000243D4B1C70394B1C70364807F046F8D2
:1053E0003B4B1C704FF47A723A4B1A60FFF78CFEFD
:1053F00070BDFBF72FFF50B33A4B1C683A4B1D684A
:10540000FBF716FF394B1A68394941F8224001323F
:10541000274CA4FB02014909C1EB0111A2EB810257
:105420001A60FBF7ABFE334B1860334B1A683349F5
:1054300041F822500132A4FB02146409C4EB0414A5
:10544000A2EB84021A60FBF7BFFE2D4B18601348D5
:10545000002106F00BFF70BD194C23685B682046E5
:1054600028490A229847FBF70BFF014620460A22EB
:10547000002309F0A1F9204609F07AF91D4B1868BC
:105480000BF05CFA04461E4B18680BF057FA014605
:105490002046FCF7B3FA70BD9C98FF1F90A0FF1F39
:1054A000009FFF1F9898FF1F1098FF1FD34D621099
:1054B00089888888AC98FF1F749A0100A498FF1F00
:1054C00008A3FF1F24980100559AFF1F579AFF1F3A
:1054D000589AFF1FA487FF1F2898010030980100E9
:1054E000F09801002898FF1F8496FF1F4C9AFF1F19
:1054F000C898FF1F2C98FF1F509AFF1FEC9DFF1F9D
:105500003098FF1F589C0100F0B585B000258B4BEB
:105510001D708B4C204606F0A9FF204629462A46DE
:1055200006F0AEFF23685B6820468649092298474B
:1055300020462946012206F0A3FF23685B68204627
:1055400081490F229847814804F022F960B1804CCC
:1055500023685B6820467F490D229847204609F062
:1055600007F97A4804F0E8F878487B49502203F0BC
:10557000FFFFB8B1764C23685B6820467749092263
:105580009847204609F0F4F8704C23685B68204681
:1055900073494E229847204609F0EAF8204609F060
:1055A000E7F809E06A4C23685B6820466D491122E0
:1055B0009847204609F0DCF8644C012502E02846B3
:1055C00007F0A4FE204604F0E3F820B1204604F0E2
:1055D00011F80028F3D05D4C634E644D07E020467F
:1055E00004F012F8C1B23170284609F091FA204651
:1055F00004F0CEF80028F2D1204603F0FBFF00288B
:10560000EDD168465A4909F05BFA5848694609F0F5
:10561000B9FA0446684609F007FA6CB94C4C23689D
:105620005B68204653491D229847204609F0A0F8A0
:105630000122514B1A7010E0454C23685B682046EC
:105640004E4902229847204609F092F800224A4B20
:105650001A701A20012107F0E3FD3C4804F098F885
:1056600060B93B4C204609F083F823685B6820460C
:1056700043490E229847204609F07AF8334804F04F
:105680005BF8404A136840490B601268D31A3F4ADE
:105690001268934200F2D6803D4B1B7813F0FF0F47
:1056A0000AD13C4B1B7813F0FF0F7BD027E0384B1F
:1056B0001B7813F0FF0F1DD0254C23685B68204634
:1056C000354902229847204609F052F8304B1A78A3
:1056D00082F001021A7000232E4A13702F4A1370B1
:1056E000174806F0C3FE40F6B832284B1A60FDF7A3
:1056F00027FDA9E0274B1B7813F0FF0F54D0144C63
:1057000023685B682046264904229847204609F012
:105710002FF8204B1A7882F001021A7000231C4ADD
:1057200013701E4A1370064806F0A0FE40F6B83209
:10573000164B1A60FDF798FE86E000BF1098FF1F19
:10574000AC98FF1F649C0100709C0100B096FF1F85
:1057500008A3FF1F84940100589F01005C9701007B
:10576000809C0100B8970100B899FF1F389AFF1F6D
:10577000CC970100F4970100FC9EFF1F1C9B0100C9
:1057800014980100B0A1FF1FE09DFF1FA487FF1F19
:10579000A498FF1F559AFF1F24980100579AFF1FD6
:1057A00028980100294F2A4E3B7813F0FF0F15D09F
:1057B000284C23685B6820462749052298472046E5
:1057C00008F0D6FF3B7883F001033B700023234AA7
:1057D0001370234A1370234A234B1A60234C20462C
:1057E00000210A4606F04CFE23685B6820462049EB
:1057F0000A22984720460021022206F041FE1D4B56
:105800001D7834461C4B1D4A002D0CBF15461D4605
:105810000FCD0FC495E8030044F8040B2170304607
:105820000CF032FB0246114801684C683146A04733
:10583000134B1A68134B1B68D21A0B4B1B689A4206
:105840007FF635AFFDF77CFC05B0F0BD589AFF1F21
:105850008896FF1F08A3FF1F30980100A498FF1F20
:10586000559AFF1FA0860100A487FF1FAC98FF1F59
:10587000D09C0100FC9EFF1FAC980100C498010061
:10588000B0A1FF1FE09DFF1F2DE9F04385B000256B
:105890006D4B1D706D4C204606F0E8FD20462946F4
:1058A0002A4606F0EDFD23685B682046684907221A
:1058B0009847684B1B78FBB967484FF4165106F0C0
:1058C000A1F90320012107F0DDFC0320294607F0A0
:1058D000A7FC642007F01AFD0320012107F0A0FCBB
:1058E0000120FBF789FD18B901225C4B1A7003E017
:1058F00001225B4B1A704EE0594B1B78002B4AD1AA
:10590000524C20460821002206F0BAFD23685B684D
:1059100020465449042298476846534909F0D0F874
:10592000684652490C22002309F002F94FF496749C
:105930004F4D2B19A3F596732046197807F04AF9B5
:105940000134B4F5167FF4D1484D28460CF09CFA8A
:105950000246484C23685B682046294698474FF426
:10596000FA6007F0D3FC1A20012107F059FC204609
:1059700008F0FEFE23685B6820463F490D229847E9
:10598000204608F0F5FE684609F04EF8344B1B78C7
:10599000002B00F06581394A136839490B601268A1
:1059A000D31A384A1268934200F25A81364B1B7858
:1059B00013F0FF0F0AD1354B1B7813F0FF0F6BD09C
:1059C00025E0314B1B7813F0FF0F1BD0294C2368C7
:1059D0005B6820462E4902229847204608F0C8FE00
:1059E000294B1A7882F001021A700022274B1A7094
:1059F000164806F03BFD40F6B832224B1A6000F024
:105A000095F959E1214B1B7813F0FF0F48D0194C41
:105A100023685B6820461F4904229847204608F007
:105A2000A7FE1A4B1A7882F001021A700022164B58
:105A30001A70064806F01AFD40F6B832114B1A608B
:105A4000FDF716F838E100BF1098FF1FAC98FF1F54
:105A5000DC9C0100FC95FF1FBC9DFF1F9D98FF1F54
:105A6000489AFF1FE49C0100EC9C0100CC97FF1FAB
:105A7000C496FF1F08A3FF1FF89C0100B0A1FF1FE1
:105A8000E09DFF1FA487FF1FA498FF1F559AFF1FCB
:105A90002498010028980100894F8A4EDFF88482FB
:105AA0003B7813F0FF0F14D033685B6830464146F3
:105AB00005229847304608F05BFE3B7883F00103EF
:105AC0003B700023804A1370804A1370804A814BD8
:105AD0001A60814B1B78002B74D1804C2046082122
