:1000000000800020BD01000095D1000059D1000002
:1000100059D1000059D1000059D1000059D1000038
:1000200059D1000059D1000059D1000095D10000EC
:1000300095D1000059D1000095D1000049D10000B0
:1000400095D1000095D1000095D1000095D1000018
:1000500095D1000095D1000095D1000095D1000008
:1000600095D1000095D1000095D1000095D10000F8
:1000700095D1000095D1000095D1000095D10000E8
:1000800095D1000095D1000095D1000095D10000D8
:1000900095D1000095D1000095D1000095D10000C8
:1000A00089C4000099C4000095D1000095D10000DA
:1000B00095D1000095D1000095D1000095D10000A8
:1000C00095D1000095D1000095D1000095D1000098
:1000D00095D1000095D1000095D1000095D1000088
:1000E00095D1000095D1000095D1000095D1000078
:1000F00095D10000D9FA000095D100003D02010021
:1001000095D10000B907010095D1000095D10000FC
:1001100095D1000095D1000095D1000095D1000047
:1001200095D1000095D1000095D1000095D1000037
:1001300095D1000095D1000095D1000095D1000027
:1001400095D1000095D1000095D1000095D1000017
:1001500041EB000059EB000071EB000089EB00005F
:1001600095D1000061DB000095D1000095D1000021
:1001700095D1000095D1000095D1000095D10000E7
:1001800095D1000095D1000095D1000095D10000D7
:1001900095D1000095D1000095D1000095D10000C7
:1001A00095D1000095D1000095D1000095D10000B7
:1001B00095D1000095D1000095D10000574B4CF22D
:1001C000205210B51A804DF628121A8000BF00BFC9
:1001D0000CF0E4FF524B4FF010621A60514A9A60E3
:1001E000514ADA60A3F53043203B1A6812F480725A
:1001F00004D14E490A604FF4A8521A604C4B1A7849
:10020000110703D51A7842F008021A70494B4A4C7C
:100210004A482A221A704A4A00239918A14203D256
:10022000195899500433F8E7464B474900228B424E
:1002300002D243F8042BFAE74448454900235A58B0
:100240001A500433B3F5DE7FF9D1424B424A802184
:1002500003F8011B9342FBD1404B3C4A1A60404BD0
:100260008A221A70A3F5805324225A70A0221A7091
:100270009A799207FCD59A79D406FCD4394A9379B5
:1002800003F00C03082B374BF9D103221A714022DB
:100290005A719A799006FCD5324A9179314B4906C8
:1002A000FBD5314A314911600221516020221A7078
:1002B0009A7902F00C020C2AFAD12D4B2D4A1A60C1
:1002C0002D4B2E4A1A6000225A60072243F8042C54
:1002D0002B4AC3F80C2D62B60DF002FB134B1B68C2
:1002E000DA0705D527480DF031FA274B274A1A605F
:1002F000274B1B785B0609D5234C244A236893427D
:1003000004D120480DF022FA0023236011F038FBBD
:100310000CF04AFF0EF0E0FFFEE700BF0E200540A4
:1003200030800440823F04000100002B14D00340C1
:1003300002D0074000E00740E895FF1FD8B5010054
:100340006087FF1FE895FF1FD4A9FF1F0082FF1FD2
:100350000000000000E400E05FE400E008ED00E0E1
:100360000050064000400640448004400000030165
:1003700004800440C010050014E000E0FF76010096
:100380000000202039F71D581CE00340A5C3945AF3
:1003900000F00740FFFFFFFFFFFFFFFFFFFFFFFF32
:1003A000FFFFFFFFFFFFFFFFFFFFFFFFFFFFFFFF5D
:1003B000FFFFFFFFFFFFFFFFFFFFFFFFFFFFFFFF4D
:1003C000FFFFFFFFFFFFFFFFFFFFFFFFFFFFFFFF3D
:1003D000FFFFFFFFFFFFFFFFFFFFFFFFFFFFFFFF2D
:1003E000FFFFFFFFFFFFFFFFFFFFFFFFFFFFFFFF1D
:1003F000FFFFFFFFFFFFFFFFFFFFFFFFFFFFFFFF0D
:10040000FFFFFFFFFFFFFFFFFFFFFFFFDEF9FFFF23
:1004100010B5054C237833B9044B13B10448AFF33E
:1004200000800123237010BDE895FF1F000000002D
:10043000D0B5010008B5064B1BB106480649AFF31D
:1004400000800648036813B1054B03B1984708BD07
:1004500000000000D0B50100EC95FF1FE895FF1FDC
:100460000000000038B504460D46084612F0ACFA0C
:10047000024623685B682046294698470546204681
:100480000EF096FC284438BD10B4016042608360D1
:10049000019BC360029B03615DF8044B704700BF82
:1004A00070B500F59A7604460D1A2046295D0CF0C9
:1004B00029FE0134B442F8D14FF49A7070BD00BFE8
:1004C000F8B50746406800214FF49A7211F0C0FD5C
:1004D0007D6805F59A762C46013404F22B10401BFA
:1004E0000CF0FAFD04F8010CB442F5D1134C23686A
:1004F0005B68204612491C22984720460EF058FCA3
:100500007B681A680F4B9A4216D023685B682046B6
:100510000D491422984720460EF04AFC78680021C5
:100520004FF49A7211F094FD7B68064A1A604FF4FA
:1005300096707968FFF7B4FFF8BD00BFE4A7FF1F0E
:10054000A09701000DF0FE5AC09701002DE9F04F71
:1005500083B005460E46B14C23685B682046B0491F
:1005600008229847304612F02FFA024623685B684B
:1005700020463146984720460EF01AFCE868A94903
:1005800032462B6911F0E6FF2E68EC68204612F027
:100590001BFA024633685B68304621469847286854
:1005A00003681B680D21984740F60A5428680368C1
:1005B0009B6898470028F9D028680368DB6898474B
:1005C000A04205D028680368DB6898470D28EDD164
:1005D000E86800212A6911F03BFD00242646A04668
:1005E0000127286803689B68984750B1741CD5F8A8
:1005F0000C9028680368DB68984709F806002646CF
:10060000444638460DF056F92B69B34203D0013405
:10061000B4F57A7FE5DB002E00F0FB840024DFF8E0
:1006200024B2A246E96801EB040E002304E0013382
:10063000DBB22A69A24207D001340A1912F8012C50
:100640000A2AF4D1274600E0274600220EF80320AC
:100650009EF80020002A00F0BD84232A00F0BA840E
:10066000022B40F2B784002204E00132D1B28B4267
:1006700000F0B084D1B21EF802002028F5D009287D
:10068000F3D088468B4200F0A5844FF0000C0CE0BC
:10069000202A03D002F0FB02092A01D180F800C011
:1006A0000131C9B28B4200F095840EEB01001EF8B7
:1006B00001203D2AECD18B4200F08C844A1CD2B23E
:1006C00000200EF8010004E00132D2B2934200F0A3
:1006D00081841EF802102029F6D00929F4D0934213
:1006E00000F07884F0440EEB02094046594611F0C0
:1006F000FFFF08BB484611F021F910F0B9FE814612
:10070000D5F80480D8F85400494611F099F800282B
:1007100040F06084C8F85490DFF80081D8F80030C9
:100720005B68404640491E22984740460EF040FB19
:100730004FF0010A00F04EBC40463C4911F0D8FF92
:1007400008BB484611F0FAF810F092FE8146D5F841
:100750000480D8F85C00494611F072F8002840F097
:100760003984C8F85C90DFF8B480D8F800305B6852
:1007700040462F491E22984740460EF019FB4FF085
:10078000010A00F027BC40462A4911F0B1FFF8B930
:100790006B68D3F80480484611F0D0F8804500F02B
:1007A0001984D5F80480484611F0C8F8C8F8040048
:1007B000DFF86880D8F800305B6840461E49122296
:1007C000984740460EF0F4FA4FF0010A00F002BCE0
:1007D00040461A4911F08CFF002835D16B68D3F8D8
:1007E0001080484611F0AAF8804500F0F383D5F850
:1007F0000480484611F0A2F8C8F81000DFF81C8009
:10080000D8F800305B6840460D49192298474046A9
:100810000EF0CEFA4FF0010ADCE300BFE4A7FF1FA1
:10082000D8970100E4970100F8970100189801009B
:100830001C9801003C980100449801005898010060
:1008400060980100F49701004046A54911F050FF5F
:10085000F0B96B68D3F81480484611F06FF8804502
:1008600000F0B883D5F80480484611F067F8C8F85E
:100870001400DFF89082D8F800305B684046994950
:100880001922984740460EF093FA4FF0010AA1E36F
:100890004046954911F02CFFF0B96B68D3F80880F9
:1008A000484611F04BF8804500F09483D5F8048059
:1008B000484611F043F8C8F80800DFF84882D8F835
:1008C00000305B68404689491322984740460EF045
:1008D0006FFA4FF0010A7DE34046854911F008FFA9
:1008E000F0B96B68D3F80C80484611F027F88045C2
:1008F00000F07083D5F80480484611F01FF8C8F85E
:100900000C00DFF80082D8F800305B684046794977
:100910001422984740460EF04BFA4FF0010A59E373
:100920004046754911F0E4FEE0B96B6803F1180820
:100930004046494611F0DCFE002800F04B8340465B
:10094000494611F0E3FFDFF8BC81D8F800305B685E
:1009500040466A491322984740460EF029FA4FF064
:10096000010A37E34046664911F0C2FEB0B96B6830
:1009700093F85080484610F0E1FF804500F02A834C
:10098000D5F80480484610F0D9FF88F850005D483B
:100990005D49FFF767FD4FF0010A1BE340465B49E5
:1009A00011F0A6FEB0B96B6893F85880484610F075
:1009B000C5FF804500F00E83D5F80480484610F04E
:1009C000BDFF88F858004F485149FFF74BFD4FF0E5
:1009D000010AFFE240464F4911F08AFEA0B96B6858
:1009E00003F130084046494611F082FE002800F02D
:1009F000F1824046494611F089FF42484649FFF7D7
:100A000031FD4FF0010AE5E24046444911F070FE25
:100A1000A0B96B6803F140084046494611F068FEF2
:100A2000002800F0D7824046494611F06FFF354854
:100A30003B49FFF717FD4FF0010ACBE24046394929
:100A400011F056FEB0B96B6893F86080484610F01C
:100A500075FF804500F0BE82D5F80480484610F04E
:100A60006DFF88F8600027482F49FFF7FBFC4FF027
:100A7000010AAFE240462D4911F03AFEA0B96B6879
:100A800003F161084046494611F032FE002800F0AB
:100A9000A1824046494611F039FF1A482449FFF720
:100AA000E1FC4FF0010A95E24046224911F020FE98
:100AB000002843D16B6803F175084046494611F0A0
:100AC00017FE002800F086824046494611F01EFFBE
:100AD0000C481949FFF7C6FC4FF0010A7AE200BF43
:100AE0007C98010084980100A0980100A89801005A
:100AF000BC980100C4980100DC980100E098010056
:100B0000F4980100E4A7FF1FF89801001C99010068
:100B10002099010044990100489901006099010061
:100B2000649901007C99010080990100A09901005D
:100B3000A4990100BC990100C09901004046A14957
:100B400011F0D6FDA0B96B6803F18908404649460B
:100B500011F0CEFD002800F03D824046494611F0DC
:100B6000D5FE99489949FFF77DFC4FF0010A31E223
:100B70004046974911F0BCFDB0B96B68D3F88C8042
:100B8000484610F0DBFE804500F02482D5F8048052
:100B9000484610F0D3FEC8F88C008B488D49FFF70B
:100BA00061FC4FF0010A15E240468B4911F0A0FDAF
:100BB000B0B96B68D3F89080484610F0BFFE80450E
:100BC00000F00882D5F80480484610F0B7FEC8F857
:100BD00090007D488149FFF745FC4FF0010AF9E19B
:100BE00040467F4911F084FDB0B96B6893F894805A
:100BF000484610F0A3FE804500F0EC81D5F8048053
:100C0000484610F09BFE88F894006F487549FFF73E
:100C100029FC4FF0010ADDE14046734911F068FDFF
:100C2000B0B96B68D3F89880484610F087FE8045CD
:100C300000F0D081D5F80480484610F07FFEC8F857
:100C4000980061486949FFF70DFC4FF0010AC1E1C6
:100C50004046674911F04CFDA0B96B6803F19C0850
:100C60004046494611F044FD002800F0B38140465B
:100C7000494611F04BFE54485E49FFF7F3FB4FF035
:100C8000010AA7E140465C4911F032FDA0B96B684A
:100C900003F19F084046494611F02AFD002800F064
:100CA00099814046494611F031FE47485349FFF7C4
:100CB000D9FB4FF0010A8DE14046514911F018FD72
:100CC000A0B96B6803F1AF084046494611F010FD2A
:100CD000002800F07F814046494611F017FE3A484F
:100CE0004849FFF7BFFB4FF0010A73E14046464910
:100CF00011F0FEFCA0B96B6803F1BF0840464946FD
:100D000011F0F6FC002800F065814046494611F0DC
:100D1000FDFD2D483D49FFF7A5FB4FF0010A59E1C4
:100D200040463B4911F0E4FCA0B96B6803F1CF08E1
:100D30004046494611F0DCFC002800F04B8140465B
:100D4000494611F0E3FD20483249FFF78BFB4FF095
:100D5000010A3FE14046304911F0CAFCA0B96B6876
:100D600003F1D7084046494611F0C2FC002800F0C4
:100D700031814046494611F0C9FD13482749FFF724
:100D800071FB4FF0010A25E14046254911F0B0FC06
:100D9000002849D16B6893F8DF80484610F0CEFDFB
:100DA000804500F01781D5F80480484610F0C6FD54
:100DB00088F8DF0004481B49FFF754FB4FF0010A95
:100DC00008E100BFD8990100E4A7FF1FE0990100E6
:100DD000F8990100FC990100209A0100249A010071
:100DE0003C9A0100449A0100689A01006C9A010043
:100DF000809A0100849A0100A49A0100AC9A010033
:100E0000C89A0100CC9A0100EC9A0100F09A010006
:100E1000109B0100149B0100349B0100389B0100D2
:100E2000589B01005C9B01004046804911F060FC2A
:100E3000B0B96B68D3F8FC80484610F07FFD804560
:100E400000F0C880D5F80480484610F077FDC8F857
:100E5000FC0077487749FFF705FB4FF0010AB9E03E
:100E60004046754911F044FCB0B96B6893F8E080D6
:100E7000484610F063FD804500F0AC80D5F8048052
:100E8000484610F05BFD88F8E00069486B49FFF7C1
:100E9000E9FA4FF0010A9DE04046694911F028FC4B
:100EA000A0B96B6803F1E1084046494611F020FC07
:100EB000002800F08F804046494611F027FD5C482D
:100EC0006049FFF7CFFA4FF0010A83E040465E49E0
:100ED00011F00EFC98B96B6803F1E40840464946EE
:100EE00011F006FC002875D04046494611F00EFD71
:100EF0004F485649FFF7B6FA4FF0010A6AE04046FC
:100F0000534911F0F5FB98B96B6803F58A784046B0
:100F1000494611F0EDFB00285CD04046494611F0EF
:100F2000F5FC43484B49FFF79DFA4FF0010A51E0A9
:100F30004046494911F0DCFB98B96B6803F58478A9
:100F40004046494611F0D4FB002843D0404649466C
:100F500011F0DCFC36484149FFF784FA4FF0010AF2
:100F600038E040463E4911F0C3FB90B96B6803F589
:100F700090784046494611F0BBFB58B3404649467D
:100F800011F0C4FC2A483749FFF76CFA4FF0010A08
:100F900020E04046344911F0ABFBD8B9A8680021E5
:100FA000142211F055F8D5F8089009F114030193B3
:100FB000C84608F1010808F1C700C9EB000018F89D
:100FC000011C0CF09FF8019B9845F2D11848274965
:100FD000FFF748FABE423FF625AB154C23685B6825
:100FE000204623490A22984720460DF0E1FEBAF137
:100FF000000F18D023685B6820461E491E229847C0
:1010000020460DF0D5FE4FF496706968FFF748FA58
:1010100009E0074C23685B68204615490A22984777
:1010200020460DF0C5FE03B0BDE8F08F7C9B0100AB
:10103000E4A7FF1F809B01009C9B0100A09B010077
:10104000D09B0100C49B0100E09B0100D49B0100E8
:10105000F49B0100E89B0100049C0100F89B010047
:10106000149C0100189C0100289C0100309C010088
:10107000509C01005C9C010008B50BF0E9FF08BD25
:10108000014A024B1A6070470400FA050CED00E0BB
:10109000024B1A6801321A60704700BFC097FF1FE9
:1010A000024B1A6801321A60704700BF1096FF1F8A
:1010B0000122014B1A707047959BFF1F0122014BC3
:1010C0001A7070473498FF1F0122014B1A70704745
:1010D000969BFF1F0122014B1A707047979BFF1FC1
:1010E0000122014B1A707047989BFF1F08B50CF046
:1010F00027FB08BD10B504460DF016FE204610BDB6
:1011000010B50446024B036009F05CFC204610BD9C
:10111000B8AC0100F8B5154C23685B68204614494B
:101120001722984720460DF043FE03251C24012773
:10113000FA26204639460CF019FB204639460CF0B9
:1011400047FB30460CF0B6FB204600210CF040FB7C
:1011500030460CF0AFFB013DEBD140F6B8300CF05F
:10116000A9FB044A044B1A60F8BD00BFE4A7FF1FA7
:101170007C9C01000400FA050CED00E010B50F495D
:101180000B1FEC31002053F8042F10448B42FAD18E
:1011900010F06AF904460A4910F0BEF901464FF012
:1011A0007E5010F0AFF80146204610F069FA05496C
:1011B00010F066FA10F09CFB10BD00BF7C98FF1F7A
:1011C000B2C5FC350000A04010B50F490B1FEC3133
:1011D000002053F8042F10448B42FAD110F044F948
:1011E00004460A4910F098F901464FF07E5010F07D
:1011F00089F80146204610F043FA054910F040FAFC
:1012000010F076FB10BD00BFBCA0FF1FB2C5FC35BF
:101210000000A0400278012907DD03460139084497
:1012200013F8011F4A408342FAD11046704700BFAD
:1012300082B0064B1B680193019A054B1A6000238C
:10124000044A1360044A136002B070478CA6FF1F63
:101250009CA2FF1FC097FF1F1096FF1F82B0094B73
:101260001B6801930198084B1B68834288BF00F1FB
:10127000FF30C01A054B1A68904234BF002001208D
:1012800002B070478CA6FF1F9CA2FF1F6887FF1F3C
:1012900010B582B0012010F09BFB044610F0A0FBBB
:1012A00001A8001B02B010BD2DE9F0478CB00C4620
:1012B0009246002112F058FE06460F4620460021B5
:1012C00012F052FE04460D463046394600220023F5
:1012D0000FF068FF60B930463946002200230FF056
:1012E00061FF40B907F100431F464FF0530804E087
:1012F0004FF04E0801E04FF05308304627F0004110
:101300000FF064FF81460FF061FC02460B46304649
:1013100039460FF00DFB0022244B0FF0BDFC0FF0FF
:101320009DFF0221042206AB0BF096FF20462946C2
:10133000002200230FF036FF58B92046294600222C
:1013400000230FF02FFF30B905F100431D4657264B
:1013500002E0452600E05726204625F000410FF028
:1013600035FF07460FF032FC02460B462046294661
:101370000FF0DEFA00220D4B0FF08EFC0FF06EFF27
:1013800009AC0221042223460BF066FF06AB009352
:10139000CDF8048002970394049650461921044A1C
:1013A0004B4611F0A3F80CB0BDE8F08700004E40AA
:1013B000949C010010B50446092804DC0448036825
:1013C0001B6830219847024821460DF051FD10BDA1
:1013D0006098FF1F10B50446092804DC0448036820
:1013E0001B6820219847024821460DF041FD10BDA1
:1013F0006098FF1F82B0054B1B680193019B9842C8
:10140000C3EB000038BFC04302B070478CA6FF1F7B
:10141000F8B5074600240E4D0A260134284609F087
:10142000F9F940B1284609F009FA002F0CBF3C2316
:101430003E23834205D030460CF03CFAB4F5FA7FE7
:10144000EBD1B4F5FA7FACBF00200120F8BD00BF9E
:101450008CA0FF1F10B54B4B1B7813F0200F09D049
:10146000494C23685B68204648492E22984720460D
:101470000DF09EFC434B1B7813F0080F09D0424C33
:1014800023685B68204642491922984720460DF0A0
:101490008FFC3C4B1B7813F0040F09D03A4C2368A7
:1014A0005B6820463B491B22984720460DF080FC94
:1014B000344B1B7813F0020F09D0334C23685B6860
:1014C000204635492422984720460DF071FC334BC5
:1014D0001B7813F0800F09D02B4C23685B682046E3
:1014E0002F491B22984720460DF062FC2B4B1B789E
:1014F00013F0400F09D0244C23685B68204629492B
:101500001F22984720460DF053FC244B1B7813F004
:10151000200F09D01C4C23685B68204622492022FA
:10152000984720460DF044FC1C4B1B7813F0040F29
:1015300009D0154C23685B6820461C49292298472E
:1015400020460DF035FC154B1B7813F0080F09D021
:101550000D4C23685B682046154926229847204693
:101560000DF026FC0D4B1B7813F0020F09D0064C32
:1015700023685B6820460F492522984720460DF0D6
:1015800017FC10BD01F00740E4A7FF1FA89C010055
:10159000D89C0100F49C0100109D010000F0074060
:1015A000389D0100549D0100749D0100989D01002B
:1015B000C49D0100EC9D010008B5C0B20BF0AEFC6B
:1015C0000FF056FF044910F05BF804490FF0A4FF38
:1015D000034910F055F808BD00C07F449A99993F1F
:1015E0008C2EBA3DF0B589B0704C20460BF0D2F984
:1015F000204603A90BF084FA20460BF093FA20460C
:1016000003A901220BF0B0FA70B920460BF08AFA58
:10161000674C23685B682046664918229847204635
:101620000DF0C6FB6448BFE09DF80C30102B09D0CC
:10163000282B13D05E4803685B68604918229847DE
:101640005D48B1E05A4C23685B6820465C49102233
:10165000984720460DF0ACFB01270AE0544C236864
:101660005B68204657491022984720460DF0A0FBA2
:1016700000274E4C20460BF08DF9204603A90BF0B5
:101680003FFA2046442100220BF008FA40F2EE20F7
:101690000CF010F920460BF07DF9204603A90BF061
:1016A0002FFA2046BE2100220BF0F8F90DF11304A9
:1016B00007AE3E4D28460BF013FA04F8010FB44272
:1016C000F8D19DF815301D029DF81440002F48D028
:1016D0009DF81B20102A66D19DF81A00C0F10C005D
:1016E00045EA04031BB2DB0023F00F03184400B2E9
:1016F0000FF0BEFE4FF076510FF00EFF05462C4C5A
:1017000023685B68204630491022984728460FF02E
:101710006FFA02460B460226009620460DF0B4FBF7
:1017200023685B68204629490A22984728462849A9
:101730000FF0F2FE4FF084410FF0E6FD0FF058FA83
:1017400002460B46009620460DF09EFB23685B6820
:10175000204620490B22984720460DF029FB2846B9
:1017600022E012480BF0DEF945EA04000FF080FE9B
:101770004FF076510FF0D0FE05460D4C23685B68A4
:10178000204611491022984728460FF031FA0246A8
:101790000B460221009120460DF076FB20460DF00D
:1017A00007FB284600E0002009B0F0BDD497FF1FDA
:1017B000E4A7FF1F149E010000007AC4309E0100C0
:1017C0004C9E0100609E0100749E0100889E0100F5
:1017D0006666E63F949E010070B582B0124A1368B7
:1017E0000093009B11490B6012680192019AD31A71
:1017F0000F4A126893420FD80E4E0B4D0C463078AC
:1018000001210BF0B3FF2B680193019A2368D31ACF
:10181000074A12689342F2D9064B187800210BF060
:10182000A5FF02B070BD00BF8CA6FF1FB0A0FF1FB8
:10183000A887FF1F8487FF1F08B5FFF7CDFF72B68B
:10184000044B4AF202621A804BF280421A8062B65E
:1018500008BD00BF0C20054038B5002425462046B1
:1018600029460BF04FFC0134B4F5006FF7D10F4C53
:1018700023685B6820460E491822984720460DF0E1
:1018800097FA0C4C2046002101220AF023FF23681E
:101890005B6820460849112298474FF47A700CF093
:1018A00009F8064A064B1A6038BD00BFE4A7FF1FBF
:1018B000A89E01006098FF1FC49E01000400FA0565
:1018C0000CED00E070B501461A4D00242B4643F89C
:1018D000044B6C60043343F8044B43F8044B43F867
:1018E000044B43F8044B43F8044B43F8044B43F8D0
:1018F000044B43F8044B43F8044B1C60E3232B7068
:101900000623AB70EC23EB7031232B734E226A73EA
:10191000AB733423EB73084E30467B2206F0AEFDEA
:1019200030462946302206F0F1FD304606F0E8FD4B
:10193000204670BD1C9CFF1F3898FF1F2DE9F04307
:1019400085B0454B1A6801321A60444B1B78002B56
:101950007DD0434C204606F019FE0028FADC414CAD
:1019600023685B68204640491422984720460DF0C2
:101970001FFA23685B6820463C490C2298473C4D7F
:10198000284611F021F8024623685B682046294664
:10199000984720460DF00CFA364B1B680193019DC9
:1019A000344CDFF8EC80DFF8C8902D4F31E048462A
:1019B000FFF788FF43F6972625E0384606F0E6FD58
:1019C0002F2820DD274C23685B6820462A491422F3
:1019D000984720460DF0ECF9284C2148214630224A
:1019E00006F0BCFD94F8282094F829301B0443EA43
:1019F000026294F82B30134394F82A2043EA02231E
:101A00001F48184424E023680293029B5B1BB342E7
:101A1000D3D923680393039B5B1B4345C7D9114C60
:101A200023685B68204617491322984720460DF02B
:101A3000BFF9154C2046002103220AF04BFE236813
:101A40005B682046114913229847002000E00020DF
:101A500005B0BDE8F08300BF889EFF1FA087FF1F71
:101A60003898FF1FE4A7FF1FD89E0100F09E0100D9
:101A70007087FF1F8CA6FF1F009F01001C9CFF1F8B
:101A80008081557C189F01006098FF1F2C9F0100EA
:101A9000DF9304002DE9F04190B00746364C3748FB
:101AA00021460DF067FB364821460DF063FB354BB0
:101AB0001B680093009D344CDFF8C8800A2602E0C2
:101AC00030460BF0F7FE204606F026FC30B9D8F879
:101AD00000300193019B5B1BBB42F1D32A4C294E82
:101AE000DFF8AC800BE0204606F02AFCC1B288F893
:101AF000001023480DF084FB33680293029D2046BA
:101B000006F00AFC28B133680393039B5D1BAF42C8
:101B1000E9D804A81D490DF0F3FA194804A90DF0FD
:101B2000A9FB044604A80DF09FFAB4F1FF3F1FD0B3
:101B300008A816490DF0E4FA114D284608A90DF041
:101B400099FB044608A80DF08FFA0CA82946621DDF
:101B500004F10D030DF094FB084C20460CA90DF088
:101B600001FB0CA80DF080FA20460DF0ADFB00E063
:101B7000002010B0BDE8F0816CA60100EC97FF1FBB
:101B80009897FF1F8CA6FF1F609EFF1F409F0100BC
:101B90007099FF1F70B500F1140604460D1A204617
:101BA000295D0BF0AFFA0134B442F8D1142070BDB6
:101BB0002DE9F04FA3B0814688467A4B9A680B9284
:101BC000D3F898000FF054FC49460FF043FEB8B12B
:101BD0000A251C240127FA26204639460BF0C6FDAB
:101BE000204639460BF0F4FD30460BF063FE2046EC
:101BF00000210BF0EDFD30460BF05CFE013DEBD11A
:101C00000122694B1A70674C4FF07E50616D0FF0E6
:101C100037FD0146654B186048460FF07DFC0646CF
:101C2000484600210A4614AB0BF016FBD4F800011D
:101C30000FF01EFC014648460FF02AFE70B14846E0
:101C40000FF056FEC4F80001594C23685B6820462B
:101C500058490F22984720460DF0AAF8544C2368A3
:101C60005B6820465449082298474E4F2046D7F8D3
:101C700000110A2200230DF0BFF820460DF098F85D
:101C80004FF07E50F96D0FF0FBFC4C4B1860414655
:101C90000FF042FC0546404600210A4618AB0BF007
:101CA000DBFAD7F804010FF0E3FB014640460FF0E2
:101CB000EFFD68B140460FF01BFEC7F80401236832
:101CC0005B6820463E490F22984720460DF070F889
:101CD000374C23685B6820463A49082298472046DB
:101CE000304BD3F804110A2200230DF085F820466A
:101CF0000DF05EF8FFF776FC0021012210AB0BF02F
:101D0000ABFA2520FFF758FC0021022212AB0BF0A2
:101D1000A3FA2D4C20460AF0D3FC204600210A46A7
:101D20000AF0D8FC23685B682046284903229847BC
:101D3000484627490FF0A2FD002851D048462449C3
:101D40000FF09EFC234F042103223B460BF084FA44
:101D5000214C20463946042210F0C0FE204610F0E7
:101D600033FE0138235C2E2B01D1002222541A4C61
:101D7000204610F029FE0246134F3B685B68384648
:101D800021469847134C154B93E803002060A1802F
:101D9000204610F019FE02463B685B683846214633
:101DA00098473CE04496FF1FA897FF1F3896FF1FF7
:101DB000E4A7FF1F589F0100689F01006C99FF1F57
:101DC000749F0100849F01006098FF1F909F010095
:101DD00000007A441496FF1F7897FF1F949F01001C
:101DE0009F4C484600210A4623460BF035FA204610
:101DF00010F0EAFD02469B4F3B685B68384621467F
:101E00009847994B93E803002060A180204610F08A
:101E1000DBFD02463B685B68384621469847914C9B
:101E200030460EF0E5FE02460B46022100912046A8
:101E30000DF02AF823685B6820468C4903229847F6
:101E40002046002101220AF045FC23685B682046F9
:101E5000874903229847404686490FF00FFD002826
:101E600033D0404683490FF00BFC7D4E0421032202
:101E700033460BF0F1F9804C20463146042210F035
:101E80002DFE204610F0A0FD0138235C2E2B01D141
:101E900000222254784C204610F096FD0246714EE6
:101EA00033685B683046214698476D4C734B93E826
:101EB00003002060A180204610F086FD02463368B2
:101EC0005B683046214698471EE0654C404600213D
:101ED0000A4623460BF0C0F9204610F075FD024675
:101EE000604E33685B683046214698475E4B93E806
:101EF00003002060A180204610F066FD0246336892
:101F00005B68304621469847564C28460EF070FED6
:101F100002460B460225009520460CF0B5FF2368CB
:101F20005B682046514903229847204600212A46F3
:101F30000AF0D0FB524B93F860404A4803685B6854
:101F4000504A5149002C18BF1146042298474C4C66
:101F50004E4D04F1300004F140012A46FFF7A4F988
:101F600008F0C6FE804608F0B9FE074608F0ACFE51
:101F7000834608F08BFE824608F092FE814608F008
:101F800099FE434ECDF800B0CDF804A0CDF80890EE
:101F9000039030463F4942463B4610F0DBFA3E4F45
:101FA000A368009614AA01920295D4F89020039297
:101FB00038463A493A4A10F0CDFA384610F004FD56
:101FC0000446384B186000233B54781C2146FFF729
:101FD00021F90246344B18700F2805D838462044A2
:101FE000324910F0B7FA04E02B482044304910F091
:101FF000B1FA294D284610F0E7FC02462D4C236823
:102000005B6820462946984720460CF0D1FE2A4DB1
:102010001B4AD3681E49009118A901911B490291DE
:10202000D2F89020039228461C491D4A10F092FADB
:10203000284610F0C9FC0446204B186000232B549E
:10204000681C2146FFF7E6F802461D4B18700F2862
:1020500038D828462044154910F07CFA37E000BFF4
:102060001496FF1F6098FF1F9C9F0100A49F010012
:10207000A89F010000007A447897FF1F949F0100F9
:102080004496FF1F489F0100509F0100ACA1FF1F15
:10209000709EFF1FAC9F01009C9BFF1FCC9F010007
:1020A000E89F01000C96FF1FD4A1FF1FF09F0100C5
:1020B000F89F0100E4A7FF1F10A2FF1F3496FF1F27
:1020C000949BFF1F8F4820448F4910F043FA8D4D99
:1020D0008E4B1F682F448E4B1E788E4CD4F8049084
:1020E0008D4BD3F80C80D3F808A0FFF7D1F88B4BB9
:1020F0000093CDF8049010AB029312AB0393CDF88C
:102100001080CDF814A0069004F584740794844BD5
:102110001B680893384683493246834B10F01AFAFD
:10212000284610F051FC0246804C23685B6820462C
:102130002946984720460CF03BFE7D4B1B78002B30
:1021400033D07C4D284610F03FFC02467A4C236881
:102150005B6820462946984720460CF029FE284611
:1021600010F032FC0246754E33685B6830462946F3
:102170009847644D284610F027FC024623685B68A8
:1021800020462946984720460CF012FE284610F0BB
:102190001BFC024633685B68304629469847684F07
:1021A000DFF8DC91DFF8DC812BE0664C20460D2166
:1021B00002220AF08FFA2368634D5B6820462946A5
:1021C000072298471CA829460CF09AFF57481CA9DB
:1021D0000CF0C8FD1C2001210BF0C8FA1C200121C5
:1021E0000BF0F6FAFA200BF065FB1C2000210BF037
:1021F000EFFA1A2001210BF0B9FA1CA80CF034FFF9
:10220000CDE705F073FE012803D005F06FFE03282B
:1022100007D120974D4B5B6821934D4820A905F0CD
:102220004FFE4C4805F0CCFF60B1404C23685B6822
:10223000204649490D22984720460CF0B9FD4548F3
:1022400006F0A4F8394C23685B68204643490A220B
:10225000984720460CF0ACFD3E48414B196850228F
:1022600005F0CEFF002800F08F8023685B682046D1
:102270003C490922984720460CF09AFD00213A4B30
:102280005970304802220AF025FA224B93F8605028
:102290002C4C23685B682046344A3549002D18BF12
:1022A00011460422984723685B68204631490E2274
:1022B0009847314D174CA368009314AB0193D4F8A1
:1022C0009030029328462D4904F1400204F1300376
:1022D00010F040F9284610F077FB00232B542846D5
:1022E00010F072FB0246114E33685B683046294697
:1022F000984730460CF05CFD94F86030002B00F0FD
:10230000B0809DE010A2FF1FF89F01003496FF1FD0
:10231000D4A1FF1F4496FF1FECA1FF1F24A00100C2
:10232000889EFF1FFC9F010020A00100E4A7FF1F63
:10233000889BFF1F9C9BFF1F8CA0FF1F0098FF1F07
:10234000D8B001006098FF1F2CA0010094A2FF1FCD
:102350008887FF1F609EFF1F34A0010044A001007A
:102360009487FF1F50A00100E897FF1F489F0100BE
:10237000509F010070A001007499FF1F80A0010010
:102380000CED00E00400FA05844A53780133DBB217
:102390005370834A1268934205DB40F6B8300BF065
:1023A00089FAC9F800807F4C20460D2102220AF0EC
:1023B00091F923685B6820467B49052298477B4E4C
:1023C000F3680133F3607A4D2B685B6828467949DE
:1023D0000A22984728460CF0EBFCC8203146FFF74C
:1023E000D9FB23685B682046734901229847284639
:1023F00072490CF0B7FC1C2001210BF0B7F91C202E
:1024000001210BF0E5F9FA200BF054FA1C20002111
:102410000BF0DEF91A2001210BF0A8F920465F4BE2
:1024200059780A2200230CF0E7FC654B1B680D93DA
:102430000D9A644B1A6040F6B8300BF03BFAE0E6B8
:10244000614803685B68614924229847584C2368B7
:102450005B6820465E491B22984720460CF0A8FC8A
:102460000FE0594803685B685A4920229847504C4E
:1024700023685B68204658491B22984720460CF089
:1024800097FC564D284610F09FFA02464E4C2368A2
:102490005B6820462946984723685B682046504978
:1024A0000922984720460CF083FC23685B6820468D
:1024B0004C491822984720460CF07AFC23685B6848
:1024C0002046494905229847484B1D68284610F088
:1024D0007BFA024623685B682046294698472046D7
:1024E0000CF066FC23685B6820464149102298473F
:1024F000404D284610F068FA014620460A22002383
:102500000CF07AFC20460CF053FC23685B682046F4
:1025100039491E22984720460CF04AFC20460CF010
:1025200047FC284610F050FA024623685B682046B4
:102530002946984720460CF03BFC43F69820FFF7CD
:10254000A9FA2E4B1860002864D1194C23685B68E7
:1025500020462B490922984720460CF029FC294D9A
:102560002B6801332B6023685B68204626491522BF
:102570009847204629680CF07BFC20460CF018FC9C
:102580002A68074B1B689A4258DB4FF4FA600BF03D
:1025900091F91E4A1E4B1A6050E000BFE897FF1FDA
:1025A0008087FF1F6098FF1F5CA00100ECA1FF1F48
:1025B000E4A7FF1F64A0010060A20100A0A3FF1F09
:1025C0008CA6FF1F2498FF1F609EFF1FFCA0010028
:1025D00024A1010040A1010064A101005C96FF1F3D
:1025E00080A101008CA10100A8A101009487FF1F18
:1025F000B0A101007499FF1FC4A101000896FF1F3C
:10260000E4A10100D0A1FF1FF0A101000400FA0520
:102610000CED00E07C4C23685B6820467B49192266
:10262000984720467A4B19680A2200230CF0E4FBF5
:1026300020460CF0BDFB0022764B1A60724C2368DA
:102640005B68204674490D22984720460CF0B0FB89
:10265000724805F0B5FD58B123685B6820466E49A5
:102660000D22984720460CF0A3FB6C4805F08EFE27
:10267000654C23685B68204669490A2298472046D2
:102680000CF096FB6548674B1968502205F0B8FDC1
:1026900000284CD023685B6820466349092298478C
:1026A00020460CF085FB0021604B597060480222E7
:1026B0000AF010F85F4B93F860505D4C23685B683C
:1026C00020465D4A5D49002D18BF114604229847F7
:1026D00023685B6820465A490E229847594D554C4D
:1026E000E368009318AB0193D4F890300293284626
:1026F000554904F1400204F130030FF02BFF284646
:1027000010F062F900232B54284610F05DF90246C0
:102710003D4E33685B6830462946984730460CF09A
:1027200047FB94F86030002B00F0A6805AE03F4A47
:1027300053780133DBB25370444A1268934206DB8C
:1027400040F6B8300BF0B6F8414A424B1A60384CAC
:1027500020460D21022209F0BDFF23685B68204658
:102760003D49052298471CA83C490CF0C9FC236848
:102770005B6820463A490122984723481CA90CF07F
:10278000F1FA1C2001210AF0F1FF1C2001210BF0BD
:102790001FF8FA200BF08EF81C2000210BF018F81F
:1027A000C8203049FFF7F6F91A2001210AF0DEFFB0
:1027B00020461E4B59780A2200230CF01DFB05F021
:1027C00095FB40F6B8300BF075F8214A214B1A60A2
:1027D000254B1B680E930E9A244B1A601CA80CF014
:1027E00043FC9AE30D4803685B682149242298471B
:1027F000054C23685B6820461E491B2298472046EB
:102800000CF0D6FA48E000BFE4A7FF1F08A20100C1
:102810000896FF1FD0A1FF1F34A00100609EFF1F7C
:1028200044A001009487FF1F50A00100E897FF1FFC
:102830006098FF1F4496FF1F489F0100509F0100B2
:102840002CA201004C9CFF1F80A001008087FF1F6D
:102850000400FA050CED00E05CA0010024A20100D8
:1028600060A20100ECA1FF1F8CA6FF1F2498FF1F90
:10287000FCA0010024A101004D4803685B684D499C
:10288000202298474C4C23685B6820464B491B220A
:10289000984720460CF08CFA494D284610F094F8E1
:1028A0000246434C23685B682046294698472368C4
:1028B0005B68204643490922984720460CF078FA85
:1028C00023685B68204640491822984720460CF050
:1028D0006FFA23685B6820463C49052298473C4BC9
:1028E0001D68284610F070F8024623685B68204691
:1028F0002946984720460CF05BFA23685B6820461F
:10290000344910229847344D284610F05DF80146AE
:1029100020460A2200230CF06FFA20460CF048FAF9
:1029200023685B6820462D491E22984720460CF0FC
:102930003FFA20460CF03CFA284610F045F80246D3
:1029400023685B6820462946984720460CF030FAF9
:1029500043F69820FFF79EF8214B186000284DD1D0
:10296000154C23685B6820461E490922984720467B
:102970000CF01EFA1C4D2B6801332B6023685B683A
:1029800020461A4915229847204629680CF070FA0B
:1029900020460CF00DFA2A68154B1B689A4241DB61
:1029A0004FF4FA600AF086FF124A134B1A6039E0BE
:1029B000609EFF1F40A10100E4A7FF1F64A101006A
:1029C0005C96FF1F80A101008CA10100A8A101005D
:1029D0009487FF1FB0A101004C9CFF1FC4A1010000
:1029E0002C98FF1FE4A10100D0A1FF1FF0A101005E
:1029F0008087FF1F0400FA050CED00E09B4C236864
:102A00005B6820469A49192298472046994B1968D5
:102A10000A2200230CF0F0F920460CF0C9F900223C
:102A2000954B1A60954C20460B21022209F052FE6C
:102A300023685B6820469249092298478B4C23689B
:102A40005B6820468F490D22984720460CF0B0F96C
:102A50001A2000210AF08AFE8B4805F0B1FB58B11C
:102A600023685B68204687490D22984720460CF072
:102A70009FF9854805F08AFC7C4C23685B682046FA
:102A800082490A22984720460CF092F97E48804BF2
:102A90001968502205F0B4FB002800F08A802368F2
:102AA0005B6820467B490922984720460CF080F954
:102AB000794B1B680F930F9A784B1A600021784B63
:102AC00059706E48022209F005FE764B93F860506B
:102AD0006A4C23685B682046734A7449002D18BF0E
:102AE00011460422984723685B68204670490F22EC
:102AF00098476C4D6C686F4BD3F80C909E68FEF74E
:102B0000C7FB6D4F0DF1400812AB0093CDF8049058
:102B10000296039005F584730493684B1B68059334
:102B200038466749224643460FF014FD4F4C236850
:102B30005B68204663490822984738460FF044FFF7
:102B4000024623685B6820463946984720460CF0C9
:102B50002FF95D4E304600214FF400720FF078FAE5
:102B60000B9A02F108030093CDF80480D5F8903059
:102B7000029303973046554905F1400205F13003B1
:102B80000FF0E8FC30460FF01FFF002333543046AF
:102B90000FF01AFF024623685B68204631469847CB
:102BA00020460CF005F995F86030002B00F09E806F
:102BB0004AE03B4D6B7801336B70304C20460D2161
:102BC000022209F087FD23685B6820464049052200
:102BD0009847384EF3680133F360244F3B685B68D5
:102BE00038463C490A22984738460CF0E1F8C8209C
:102BF0003146FEF7CFFF23685B6820463649012245
:102C000098471C2001210AF0B1FD1C2001210AF087
:102C1000DFFDFA200AF04EFE1C2000210AF0D8FD4C
:102C20001A2001210AF0A2FD204669780A22002319
:102C30000CF0E2F805F05AF940F6B8300AF03AFE26
:102C4000264A274B1A6068E10F4803685B682549EC
:102C500024229847054C23685B68204622491B22A2
:102C6000984720460CF0A4F850E000BFE4A7FF1FEF
:102C70003CA201002C98FF1FD0A1FF1F6098FF1FEE
:102C800058A2010034A00100609EFF1F44A0010073
:102C90009487FF1F50A001008CA6FF1F2498FF1FE0
:102CA000E897FF1F4496FF1F489F0100509F0100B7
:102CB00064A20100ECA1FF1FA0A2FF1F889EFF1FBE
:102CC00074A20100E4A201004C9CFF1FF0A20100CD
:102CD0005CA0010064A0010060A201000400FA05EC
:102CE0000CED00E0FCA0010024A101008C48036869
:102CF0005B688C49202298478B4C23685B68204690
:102D00008A491B22984720460CF052F8884D2846E5
:102D10000FF05AFE0246824C23685B682046294623
:102D2000984723685B6820468249092298472046D5
:102D30000CF03EF823685B6820467F4918229847CC
:102D400020460CF035F823685B6820467B49052255
:102D500098477B4B1D6828460FF036FE02462368D5
:102D60005B6820462946984720460CF021F82368E6
:102D70005B682046734910229847734D28460FF030
:102D800023FE014620460A2200230CF035F8204697
:102D90000CF00EF823685B6820466C491E229847A9
:102DA00020460CF005F820460CF002F828460FF0FB
:102DB0000BFE024623685B6820462946984720465A
:102DC0000BF0F6FF43F69820FEF764FE604B1860A8
:102DD00038BB554C23685B6820465E4909229847FA
:102DE00020460BF0E5FF5C4D2B6801332B60236818
:102DF0005B682046594915229847204629680CF0FF
:102E000037F820460BF0D4FF2A68554B1B689A42CE
:102E10001BDB4FF4FA600AF04DFD524A524B1A6028
:102E200013E0414C23685B682046504918229847BC
:102E30002046474B19680A2200230BF0DDFF20468D
:102E40000BF0B6FF0022444B1A60494C20460B2180
:102E5000022209F03FFC23685B68204645490922AD
:102E60009847314D2B685B68284643490D229847A7
:102E700028460BF09DFF20460021032209F02AFC82
:102E800023685B6820463D49042298472046042178
:102E9000032209F01FFC10A80FF096FD02462368DC
:102EA0005B68204610A9984723685B682046344930
:102EB0000122984720460A21032209F00BFC12A8A0
:102EC0000FF082FD024623685B68204612A99847EE
:102ED00023685B6820462B4901229847204604213D
:102EE000022209F0F7FB07F0D1FEFEF763FA236830
:102EF0005B68204624490122984707F0D1FEFEF77F
:102F000059FA23685B682046204903229847204BE2
:102F10001B681C931C9A1F4B1A6023B0BDE8F08FEE
:102F2000609EFF1F40A10100E4A7FF1F64A10100F4
:102F30005C96FF1F80A101008CA10100A8A10100E7
:102F40009487FF1FB0A101004C9CFF1FC4A101008A
:102F50003098FF1FE4A10100D0A1FF1FF0A10100E4
:102F60008087FF1F0400FA050CED00E064A3010058
:102F70006098FF1F58A2010034A0010080A3010047
:102F800028A4010088A30100449F0100A8A5010016
:102F90008CA6FF1F2498FF1F70B501228D4B1A705D
:102FA0008D48002108F040F88C4B1C688C4B186849
:102FB000FEF720FA8B4B1B7813B3201A8A4C84FB44
:102FC0000014C017C0EBA414884D85FB04352544BC
:102FD000E317C3EB6515864E30460F21032209F037
:102FE00079FB2846FEF7F6F933685B68304681497D
:102FF00001229847A5EB051004EB8000FEF7DAF9F3
:10300000774B1868FEF7F6F9744B1B68984280F00E
:10301000C180794B1B7813F0FF0F1FD0774C2368CA
:103020005B68204676490222984720460BF0C0FE96
:10303000714B1A7882F001021A700023714A1370E2
:10304000714A1370714A1370694809F039FB4FF4E3
:103050007A726F4B1A6000F0B1FA70BD694B1B7841
:1030600013F0FF0F1FD0654C23685B682046694949
:103070000422984720460BF09BFE624B1A7882F0A0
:1030800001021A700023604A13705B4A13705F4A92
:103090001370574809F014FB4FF47A725C4B1A60B6
:1030A00003F054F970BD594B1B7813F0FF0F19D082
:1030B000524C23685B6820465749052298472046B2
:1030C0000BF076FE514B1A7882F001021A70002143
:1030D0004D4B1970484B19704A4B19701A200AF061
:1030E00045FB70BD484B1B7813F0FF0F1FD0434CBE
:1030F00023685B68204649490522984720460BF023
:1031000057FE414B1A7882F001021A7000243D4BA1
:103110001C70394B1C70364809F0D2FA3B4B1C70BE
:103120004FF47A723A4B1A6003F030FB70BDFEF731
:1031300095F850B33A4B1C683A4B1D68FEF778F887
:10314000394B1A68394941F822400132274CA4FB17
:1031500002014909C1EB0111A2EB81021A60FEF7DD
:103160000DF8334B1860334B1A68334941F822503D
:103170000132A4FB02146409C4EB0414A2EB840220
:103180001A60FEF721F82D4B18601348002107F054
:103190004BFF70BD194C23685B68204628490A2202
:1031A0009847FEF775F8014620460A2200230BF0E7
:1031B00023FE20460BF0FCFD1D4B18680EF054F961
:1031C00004461E4B18680EF04FF901462046FEF7E4
:1031D000EFFC70BD2898FF1FE4A4FF1F5C98FF1F41
:1031E0002498FF1FA897FF1FD34D621089888888F5
:1031F0006098FF1F449F01003498FF1FE4A7FF1F42
:103200008CA30100959BFF1F979BFF1F989BFF1F9F
:10321000A487FF1F90A3010098A30100A0A30100B1
:10322000C097FF1F1096FF1F8C9BFF1F7C98FF1FEE
:10323000C497FF1F909BFF1FBCA0FF1FC897FF1FD5
:10324000A8A301002DE9F04389B05A4B1B782BB994
:10325000594B1B680093009A584B1A60FDF7E8FF22
:10326000FEF7C0F90021012204AB09F0F5FF25208B
:10327000FEF7A2F90021022206AB09F0EDFF0122C0
:103280004F4B1A704F4809F01BFA4B4A13680193D1
:10329000019B4D490B604FF47A704C4908601268ED
:1032A0000392039AD31A834200F26481424B1B6853
:1032B0000293029B464A12681A44464B1A60464BD8
:1032C0001B7813F0FF0F13D1444B1B7813F0FF0F43
:1032D00048D02EE0384B1B680293029A3C4B1B6887
:1032E0001A443C4B1A603C4B1B7813F0FF0F1BD069
:1032F0003B4C23685B6820463A49022298472046A7
:103300000BF056FD344B1A7882F001021A7000223D
:10331000324B1A702B4809F0D3F940F6B8322B4BD8
:103320001A6000F04BF925E12C4B1B7813F0FF0FCE
:103330001DD02B4C23685B6820462B4904229847FC
:1033400020460BF035FD254B1A7882F001021A70E9
:103350000022214B1A704FF4FA721C4B1A60FFF7CF
:103360001BFE07E1DFF88880164CDFF8889098F89C
:10337000003013F0FF0F3FD0194C23685B682046E4
:103380001A490522984720460BF012FD184B1A786F
:1033900082F001021A700023104A13700E4A137053
:1033A000084809F08DF940F6B832084B1A6003F06E
:1033B000EDF9DFE02898FF1F8CA6FF1F2498FF1F60
:1033C000A897FF1F6098FF1FB0A0FF1FA487FF1FD3
:1033D0005C98FF1FFC97FF1F3498FF1F959BFF1FF2
:1033E000E4A7FF1F8CA3010090A30100A0A301008C
:1033F000979BFF1F909F0100204600210A4609F07D
:1034000069F923685B682046494603229847236888
:103410005A4D5B6820462946012298472368584F39
:103420005B68204639460522984723685B6820463A
:103430002946012298472368524E5B682046314650
:103440000322984720460021012209F043F923680E
:103450005B6820464C490322984723685B682046F6
:1034600029460122984723685B6820463946052291
:10347000984723685B6820462946012298472368BD
:103480005B682046314603229847204600210222ED
:1034900009F020F93D4B93F8605023685B682046A3
:1034A0003B4A3C49002D18BF11460422984720464C
:1034B0000421022209F00EF907F0E8FBFDF77AFF7C
:1034C00023685B68204634490122984707F0E8FBEF
:1034D000FDF770FF23685B68204630490322984758
:1034E00020460D21022209F0F5F823685B6820468A
:1034F0002B490722984720460021032209F0EAF8C9
:1035000023685B6820462749042298472046042107
:10351000032209F0DFF804A80FF056FA02462368E8
:103520005B68204604A9984723685B6820461E49CB
:103530000122984720460A21032209F0CBF806A869
:103540000FF042FA024623685B68204606A99847B6
:1035500023685B682046154901229847144B1B6875
:103560000393039A134B1B68D21A134B1B689A429E
:103570007FF6B0AE09B0BDE8F08300BFB4A3010090
:103580009C9F0100A49F0100A89F01004496FF1F7B
:10359000489F0100509F0100449F0100A8A5010021
:1035A000B8A3010080A3010028A4010088A30100A2
:1035B0008CA6FF1FB0A0FF1FA487FF1F2DE9F041BD
:1035C00082B000225E4B1A705E4809F079F85E4ABC
:1035D00013680093009B5D490B6012680192019A89
:1035E000D31A5B4A1268934200F2A580594B1B78AC
:1035F00013F0FF0F0AD1584B1B7813F0FF0F45D083
:1036000028E0544B1B7813F0FF0F1ED0534C236857
:103610005B68204652490222984720460BF0C8FBBF
:103620004C4B1A7882F001021A7000224A4B1A7031
:10363000444809F045F840F6B832454B1A6001227B
:10364000484B1A7000F0A0F877E0434B1B7813F05A
:10365000FF0F1FD0414C23685B682046424904227B
:10366000984720460BF0A4FB3B4B1A7882F00102EE
:103670001A700022374B1A70324809F021F840F6D0
:10368000B832334B1A60FFF7DDFD56E0374E334F4B
:10369000DFF8F080337813F0FF0F14D03B685B68DD
:1036A000384641460522984738460BF081FB33786F
:1036B00083F0010333700023264A1370264A1370E7
:1036C0002B4A234B1A601F4C204600210A4609F062
:1036D00001F823685B68204626490B22984720465C
:1036E0000021012208F0F6FF234D28460FF06CF967
:1036F000024623685B6820462946984723685B6832
:1037000020461E490122984720460021022208F047
:10371000E1FF23685B68204619490C2298470A4B51
:103720001B680193019A094B1B68D21A084B1B684E
:103730009A427FF666AFFFF785FD02B0BDE8F081E3
:10374000A897FF1F6098FF1F8CA6FF1FB0A0FF1F48
:10375000A487FF1F3498FF1F959BFF1FE4A7FF1F3F
:103760008CA301005898FF1F90A30100989BFF1F96
:10377000A0860100C0A3010000A2FF1F449F01001A
:10378000CCA3010098A30100F0B583B00022704BD8
:103790001A70704808F094FF6F4A13680093009BFA
:1037A0006E490B6012680192019AD31A6C4A126832
:1037B000934200F2C9806B4B1B7813F0FF0F0AD1C4
:1037C000694B1B7813F0FF0F42D025E0654B1B7847
:1037D00013F0FF0F1BD0654C23685B6820466449DB
:1037E0000222984720460BF0E3FA5E4B1A7882F0EB
:1037F00001021A7000225C4B1A70564808F060FFF4
:1038000040F6B832564B1A6000F0C8F89EE0564BAE
:103810001B7813F0FF0F1FD0544C23685B682046C1
:1038200054490422984720460BF0C2FA4E4B1A78AE
:1038300082F001021A7000224A4B1A70454808F0C3
:103840003FFF40F6B832464B1A60FFF7B7FE7DE007
:10385000494F4A4D05F118063B7813F0FF0F15D07C
:10386000424C23685B68204645490522984720461C
:103870000BF09EFA3B7883F001033B700023394A3A
:103880001370394A13703F4A354B1A60314C204649
:1038900000210A4608F01EFF23685B6820463A496B
:1038A0000322984720460521002208F013FF95F8CF
:1038B000603033B1204623685B6834490B22984757
:1038C00005E0244803685B6831490A229847214C87
:1038D00020460021012208F0FDFE23685B68204697
:1038E0002C49062298472046A9680A2200230BF09B
:1038F00083FA20460021022208F0ECFE23685B6870
:1039000020462549062298472046E9680A220023D6
:103910000BF072FA20460021032208F0DBFE30464D
:103920000FF052F8024623685B68204631469847FC
:10393000094B1B680193019A084B1B68D21A084B6C
:103940001B689A427FF642AFFFF738FE03B0F0BD26
:10395000A897FF1F6098FF1F8CA6FF1FB0A0FF1F36
:10396000A487FF1F3498FF1F959BFF1FE4A7FF1F2D
:103970008CA3010090A30100989BFF1F4496FF1F9A
:1039800098A30100A0860100DCA30100E0A30100D0
:10399000ECA30100F8A3010000A40100F0B583B07E
:1039A0000022764B1A70764808F08AFE754A136832
:1039B0000093009B74490B6012680192019AD31A1C
:1039C000724A1268934200F2D580714B1B7813F053
:1039D000FF0F0AD16F4B1B7813F0FF0F42D025E089
:1039E0006B4B1B7813F0FF0F1BD06B4C23685B688D
:1039F00020466A490222984720460BF0D9F9644BC9
:103A00001A7882F001021A700022624B1A705C4828
:103A100008F056FE40F6B8325C4B1A6000F0DEF853
:103A2000AAE05C4B1B7813F0FF0F1ED05A4C2368A2
:103A30005B6820465A490422984720460BF0B8F9A3
:103A4000544B1A7882F001021A700022504B1A70FF
:103A50004B4808F035FE40F6B8324C4B1A60FFF781
:103A600093FE89E04F4D4C4E4F4F2B7813F0FF0FD4
:103A700014D033685B683046394605229847304693
:103A80000BF096F92B7883F001032B700023404A4A
:103A90001370404A1370454A3C4B1A60384C20461C
:103AA00000210A4608F016FE23685B68204640495C
:103AB0000B22984720460021012208F00BFE3D4BC7
:103AC00093F85030A3B13C4B1B6853B92046236890
:103AD0005B683A49072298471A20012109F046FEFF
:103AE0000CE0274803685B6835490722984705E0E2
:103AF000234803685B683349052298472048002122
:103B0000022208F0E7FD2B4B93F85030A3B12E4B67
:103B10001B6853B91A4803685B682C490722984709
:103B20001A20012109F022FE0CE0154803685B68A9
:103B300027490722984705E0114803685B68254933
:103B4000052298470E4C20460021032208F0C2FDB2
:103B500023685B682046204906229847094B1B686A
:103B60000193019A084B1B68D21A084B1B689A42B2
:103B70007FF636AFFFF708FE03B0F0BDA897FF1F32
:103B80006098FF1F8CA6FF1FB0A0FF1FA487FF1F18
:103B90003498FF1F959BFF1FE4A7FF1F8CA3010014
:103BA00090A30100989BFF1F98A30100A08601002D
:103BB00008A401004496FF1FC097FF1F14A4010032
:103BC0001CA4010024A401001096FF1F2CA40100D6
:103BD00034A401003CA4010044A401002DE9F041FB
:103BE00082B00022814B1A70814808F069FD814A39
:103BF00013680093009B80490B6012680192019A40
:103C0000D31A7E4A1268934200F2EB807C4B1B78F9
:103C100013F0FF0F0AD17B4B1B7813F0FF0F42D03C
:103C200025E0774B1B7813F0FF0F1BD0764C2368F1
:103C30005B68204675490222984720460BF0B8F889
:103C40006F4B1A7882F001021A7000226D4B1A70C5
:103C5000674808F035FD40F6B832684B1A6000F04E
:103C6000EFF8C0E0674B1B7813F0FF0F20D0664CD5
:103C700023685B68204666490422984720460BF07B
:103C800097F8604B1A7882F001021A7000225C4BA0
:103C90001A70574808F014FD40F6B832574B1A60B6
:103CA000FFF77CFE9FE0DFF894815A4D05F1CF07C6
:103CB00098F8003013F0FF0F17D0534C23685B685F
:103CC000204655490522984720460BF071F898F890
:103CD000003083F0010388F800300023484A137055
:103CE000484A13704D4A454B1A60414C204600210A
:103CF0000A4608F0EFFC23685B6820464849082222
:103D0000984795F8582095F850301A4206D020462A
:103D100023685B6843490422984705E034480368F8
:103D20005B68414906229847314C20460021012218
:103D300008F0D0FC23685B6820463C490322984782
:103D4000686D0DF0AFFD014620460BF091F8236839
:103D5000374E5B68204631460922984738460EF0B8
:103D600033FE024623685B68204639469847204662
:103D70000021022208F0AEFC23685B6820462D4932
:103D800003229847E86D0DF08DFD014620460BF0AB
:103D90006FF823685B68204631460922984705F191
:103DA000D70630460EF010FE024623685B682046B8
:103DB0003146984720460021032208F08BFC2368F7
:103DC0005B6820461C49062298470A4B1B680193F2
:103DD000019A094B1B68D21A084B1B689A427FF65E
:103DE00020AFFFF7DBFD02B0BDE8F081A897FF1F11
:103DF0006098FF1F8CA6FF1FB0A0FF1FA487FF1FA6
:103E00003498FF1F959BFF1FE4A7FF1F8CA30100A1
:103E100090A301004496FF1F98A30100A086010013
:103E20004CA4010058A4010060A4010068A4010092
:103E30006CA4010078A4010044A40100989BFF1F1A
:103E40002DE9F04182B000228D4B1A708D4808F0A8
:103E500037FC8D4A13680093009B8C490B601268F5
:103E60000192019AD31A8A4A1268934200F2C980D9
:103E7000884B1B7813F0FF0F0AD1874B1B7813F088
:103E8000FF0F42D025E0834B1B7813F0FF0F1BD0B0
:103E9000824C23685B68204681490222984720466D
:103EA0000AF086FF7B4B1A7882F001021A7000221A
:103EB000794B1A70734808F003FC40F6B832744B23
:103EC0001A6000F003F9D8E0734B1B7813F0FF0F72
:103ED00020D0724C23685B682046724904229847C0
:103EE00020460AF065FF6C4B1A7882F001021A70C6
:103EF0000022684B1A70634808F0E2FB40F6B832C3
:103F0000634B1A60FFF76AFEB7E0DFF8BC81664ECC
:103F100006F1400798F8003013F0FF0F17D05F4C00
:103F200023685B68204661490522984720460AF0CD
:103F30003FFF98F8003083F0010388F80030002339
:103F4000544A1370544A1370594A514B1A604D4CDD
:103F5000204600210A4608F0BDFB23685B68204626
:103F600054490C22984720460021012208F0B2FB58
:103F700023685B68204650490422984738460EF073
:103F800023FD024623685B68204639469847204651
:103F90000021022208F09EFB23685B682046474907
:103FA0000422984706F1300528460EF00DFD024622
:103FB00023685B6820462946984720460021032253
:103FC00008F088FB23685B6820463D490422984737
:103FD0002046D6F890100A2200230AF00DFF23682D
:103FE0005B682046374901229847274B1B6801939D
:103FF000019A264B1B68D21A254B1B689A427FF602
:1040000042AF264C23685B6820462B490422984720
:10401000254D05F1400630460EF0D6FC02462368D9
:104020005B6820463146984720460AF0C1FE236867
:104030005B68204621490422984705F13006304646
:104040000EF0C2FC024623685B6820463146984762
:1040500020460AF0ADFE23685B682046184904221A
:1040600098472046D5F890100A2200230AF0C4FE93
:1040700020460AF09DFEFFF7B1FD02B0BDE8F081D9
:10408000A897FF1F6098FF1F8CA6FF1FB0A0FF1FFF
:10409000A487FF1F3498FF1F959BFF1FE4A7FF1FF6
:1040A0008CA3010090A301004496FF1F98A3010078
:1040B000A08601007CA401008CA4010094A401004E
:1040C0009CA401007C9A0100989BFF1FF0B583B06F
:1040D00000225D4B1A705D4808F0F2FA5C4A1368E2
:1040E0000093009B5B490B6012680192019AD31AFE
:1040F000594A1268934200F2A280584B1B7813F081
:10410000FF0F0AD1564B1B7813F0FF0F42D025E06A
:10411000524B1B7813F0FF0F1BD0524C23685B6887
:10412000204651490222984720460AF041FE4B4B57
:104130001A7882F001021A700022494B1A70434823
:1041400008F0BEFA40F6B832434B1A6000F09EF811
:1041500077E0434B1B7813F0FF0F1ED0414C2368D0
:104160005B68204641490422984720460AF020FE19
:104170003B4B1A7882F001021A700022374B1A70FA
:10418000324808F09DFA40F6B832334B1A60FFF718
:1041900057FE56E0364D334E364F2B7813F0FF0F57
:1041A00014D033685B68304639460522984730465C
:1041B0000AF0FEFD2B7883F001032B700023274AC1
:1041C0001370274A13702C4A234B1A601F4C204649
:1041D00000210A4608F07EFA23685B6820462749DA
:1041E0000B22984720460021012208F073FA236829
:1041F0005B68204622490D22984720460021022272
:1042000008F068FA23685B6820461E491222984726
:1042100020460021032208F05DFA23685B682046EF
:104220001949122298470A4B1B680193019A094BBE
:104230001B68D21A084B1B689A427FF669AFFFF7DA
:10424000FFFD03B0F0BD00BFA897FF1F6098FF1FE0
:104250008CA6FF1FB0A0FF1FA487FF1F3498FF1F6D
:10426000959BFF1FE4A7FF1F8CA3010090A30100F3
:10427000989BFF1F98A30100A0860100A4A4010041
:10428000B0A40100C0A40100D4A40100F0B583B023
:1042900000226B4B1A706B4808F012FA6A4A1368D6
:1042A0000093009B69490B6012680192019AD31A2E
:1042B000674A1268934200F2BE80664B1B7813F087
:1042C000FF0F0AD1644B1B7813F0FF0F42D025E09B
:1042D000604B1B7813F0FF0F1BD0604C23685B68AA
:1042E00020465F490222984720460AF061FD594B5B
:1042F0001A7882F001021A700022574B1A70514846
:1043000008F0DEF940F6B832514B1A6000F0BEF802
:1043100093E0514B1B7813F0FF0F1FD04F4C2368D5
:104320005B6820464F490422984720460AF040FD2A
:10433000494B1A7882F001021A700022454B1A701C
:10434000404808F0BDF940F6B832414B1A60FFF71B
:10435000BDFE72E0444F454D05F19C063B7813F0DD
:10436000FF0F15D03D4C23685B682046404905226D
:10437000984720460AF01CFD3B7883F001033B7010
:104380000023344A1370344A13703A4A304B1A608F
:104390002C4C204600210A4608F09CF923685B68F3
:1043A000204635490F22984720460021012208F077
:1043B00091F923685B6820463049092298472046D6
:1043C00069680A2200230AF017FD20460021022214
:1043D00008F080F923685B6820462949092298473C
:1043E00030460EF0F1FA024623685B6820463146FB
:1043F000984720460021032208F06CF923685B6887
:1044000020462049092298472046D5F898100AF0FE
:104410002FFD23685B6820461B49032298470A4BFF
:104420001B680193019A094B1B68D21A084B1B6841
:104430009A427FF64DAFFFF749FE03B0F0BD00BFD3
:10444000A897FF1F6098FF1F8CA6FF1FB0A0FF1F3B
:10445000A487FF1F3498FF1F959BFF1FE4A7FF1F32
:104460008CA3010090A30100989BFF1F4496FF1F9F
:1044700098A30100A0860100E8A40100F8A40100AF
:1044800004A5010010A501001CA501002DE9F041C3
:1044900082B00025784B1D70784C204608F010F94A
:1044A000204629462A4608F015F923685B6820460D
:1044B00073491022984720462946012208F00AF93C
:1044C00023685B6820466F490B2298474FF47A7047
:1044D00009F0F0F9204608F0F3F86B4A13680093EE
:1044E000009B6A490B6012680192019AD31A684ACC
:1044F0001268934200F2BB80664B1B7813F0FF0FEB
:104500000AD1654B1B7813F0FF0F46D027E0614BB3
:104510001B7813F0FF0F1DD0604C23685B682046AA
:104520005F490222984720460AF042FC594B1A780C
:1045300082F001021A700023574A1370594A13700F
:104540004E4808F0BDF840F6B832514B1A6000F002
:10455000BDF88EE0504B1B7813F0FF0F21D04F4C6D
:1045600023685B68204650490422984720460AF099
:104570001FFC494B1A7882F001021A700023454A49
:104580001370484A13703D4808F09AF840F6B83264
:104590003F4B1A60FFF77AFE6BE0444E3F4FDFF867
:1045A0002881337813F0FF0F14D03B685B683846DE
:1045B00041460522984738460AF0FAFB337883F0E3
:1045C000010333700023334A1370334A1370384A9F
:1045D0002F4B1A6006F092FB284C204600210A4619
:1045E00008F078F823685B6820463249042298472F
:1045F00020460021012208F06DF823685B68204600
:104600002D490A22984720460021022208F062F82C
:104610002A4D28460EF0D8F9024623685B682046EA
:104620002946984720460021032208F053F82368C2
:104630005B68204622490522984706F027FBFCF7D5
:10464000B9FE23685B6820461E490122984706F0A0
:1046500027FBFCF7AFFE0C4B1B680193019A0B4B39
:104660001B68D21A0A4B1B689A427FF650AFFFF7BD
:104670000DFE02B0BDE8F081A897FF1F6098FF1FF4
:1046800020A5010034A501008CA6FF1FB0A0FF1FCC
:10469000A487FF1F3498FF1F959BFF1FE4A7FF1FF0
:1046A0008CA30100979BFF1F90A30100989BFF1F05
:1046B000A086010040A5010048A501007087FF1FEA
:1046C00054A50100449F010098A30100F0B585B0F6
:1046D00000224D4B1A704D4806F018FB06F00EFBF9
:1046E000022818D04A4C23685B68204649491B229F
:1046F000984720460AF05CFB474B9B68474AA2FB61
:104700000312520B4648474942F2107404FB12321E
:104710000DF020FF18E03E4C23685B6820464249BC
:104720002322984720460AF043FB06F0E1FA0546AB
:1047300006F0D4FA044606F0C7FA009038483B4920
:104740002A4623460DF006FF394807F0B9FF394ADB
:1047500013680293029B38490B6012680392039A14
:10476000D31A364A12689A42C0F0F080344B1B7854
:1047700013F0FF0F0AD1334B1B7813F0FF0F67D0F4
:1047800025E02F4B1B7813F0FF0F1BD0204C236824
:104790005B6820462C490222984720460AF008FB15
:1047A000274B1A7882F001021A700022254B1A70EA
:1047B0001F4807F085FF40F6B832204B1A6000F022
:1047C00093FBB6E11F4B1B7813F0FF0F43D0104C47
:1047D00023685B6820461D490422984720460AF05A
:1047E000E7FA184B1A7882F001021A700022144B73
:1047F0001A700F4807F064FF40F6B8320F4B1A608A
:10480000FFF744FE95E100BFA897FF1FED100000E1
:10481000E4A7FF1F5CA501004496FF1F5917B7D1FD
:1048200000A2FF1F78A5010088A50100ACA501002A
:104830006098FF1F8CA6FF1FB0A0FF1FA487FF1F5B
:104840003498FF1F959BFF1F8CA3010090A30100CC
:10485000664E674F674D337813F0FF0F14D03B68F7
:104860005B68384664490522984738460AF0A0FA42
:10487000337883F0010333700023604A1370604A79
:104880001370604A604B1A60604C204600210A4653
:1048900007F020FF23685B6820465D490A2298479D
:1048A00020460021012207F015FF23685B6820469F
:1048B00058490522984706F011FA014620460AF0A9
:1048C000D7FA23685B68204653490122984706F0CF
:1048D000FBF9014620460AF0CBFA204600210222CD
:1048E00007F0F8FE23685B6820464C49052298478C
:1048F00006F0CCF9FCF75EFD23685B68204648496A
:104900000122984706F0CCF9FCF754FD204600211F
:10491000032207F0DFFE23685B6820464149052239
:10492000984728460EF050F8024623685B682046F8
:10493000294698473C4B1B680393039A3B4B1B68E3
:10494000D21A314B1B689A427FF61BAF384B93F853
:1049500060304BB1264C23685B68204635492522E0
:10496000984720460AF024FA0122334B1A70334B41
:104970001B78002B36D1324B1B78002B32D0314BB9
:104980001A7031490B6913440B61C820FDF702F915
:104990002E4C2F4E2F4D23685B6820463146072250
:1049A000984728460EF010F8024623685B682046B8
:1049B0002946984720460D2105F04AFF0020FCF7C4
:1049C00027FD002848D10320002108F0CFFE6420F5
:1049D00008F070FF0320012108F0C8FE0120FCF759
:1049E00017FDD8E7FFF752FDA3E000BF989BFF1F1C
:1049F000E4A7FF1FE096FF1F98A301003498FF1F54
:104A0000959BFF1FA0860100A487FF1F6098FF1FD2
:104A1000C0A50100CCA50100B4A3010054A501006C
:104A2000449F0100D4A501008CA6FF1FB0A0FF1F6A
:104A30004496FF1FDCA501000496FF1F2898FF1F66
:104A4000889BFF1F3C96FF1FECA1FF1F8CA0FF1F40
:104A500004A6010000A2FF1F374C2546374E0FCE9B
:104A60000FC533682B6020460DF0AEFF0246344E72
:104A700033685B6830462146984720460DF0A4FF16
:104A80000246304D2B685B682846214698472046F1
:104A90002D490DF05FFD20460DF096FF02462B6874
:104AA0005B6828462146984728460AF081F9204647
:104AB0000DF08AFF024633685B683046214698470E
:104AC00022490A69CB6889680091204620490DF087
:104AD00041FD20460DF078FF024633685B683046A2
:104AE0002146984720460DF06FFF02462B685B6811
:104AF00028462146984728460AF05AF92046154983
:104B0000154A0DF027FD20460DF05EFF02462B688A
:104B10005B6828462146984728460AF049F920460E
:104B20000DF052FF024633685B68304621469847D5
:104B300058E705B0F0BD00BF1496FF1F0CA601009A
:104B40008CA0FF1FE4A7FF1FAC87FF1FECA1FF1F76
:104B500020A6010044A601004C97FF1FF0B587B0C6
:104B600000258D4B1D708D4C204607F0A9FD204679
:104B700029462A4607F0AEFD23685B68204688492F
:104B80000922984720462946012207F0A3FD236801
:104B90005B68204683490F229847834803F010FB47
:104BA00060B1824C23685B68204681490D2298479A
:104BB00020460AF0FDF87C4803F0E8FB7A487D497E
:104BC000502203F01DFBB8B1784C23685B68204687
:104BD00079490922984720460AF0EAF8724C23687E
:104BE0005B68204675494E22984720460AF0E0F857
:104BF00020460AF0DDF809E06C4C23685B6820462B
:104C00006F491122984720460AF0D2F8664C0125D8
:104C100002E0284608F04EFE204603F0D1FA20B10B
:104C2000204603F079FB0028F3D05F4C654E664DBB
:104C300007E0204603F084FBC1B2317028460AF039
:104C4000DFFA204603F0BCFA0028F2D1204603F038
:104C500063FB0028EDD102A85C490AF051FA5A48DA
:104C600002A90AF007FB044602A80AF0FDF96CB994
:104C70004E4C23685B68204655491D2298472046C4
:104C80000AF096F80122534B1A7010E0474C236843
:104C90005B68204650490222984720460AF088F86F
:104CA00000224C4B1A701A20012108F05FFD3E488B
:104CB00003F086FA60B93D4C20460AF079F8236883
:104CC0005B68204645490E22984720460AF070F856
:104CD000354803F05BFB424A13680093009B41494F
:104CE0000B6012680192019AD31A3F4A12689342EC
:104CF00000F2D8803D4B1B7813F0FF0F0AD13C4BDC
:104D00001B7813F0FF0F7BD027E0384B1B7813F094
:104D1000FF0F1DD0254C23685B68204635490222D1
:104D2000984720460AF044F8304B1A7882F0010286
:104D30001A7000232E4A13702F4A1370174807F079
:104D4000BFFC40F6B832284B1A6000F0CDF8ABE05B
:104D5000274B1B7813F0FF0F54D0144C23685B686B
:104D6000204626490422984720460AF021F8204B85
:104D70001A7882F001021A7000231C4A13701E4A2E
:104D80001370064807F09CFC40F6B832164B1A60C8
:104D9000FFF79CFC88E000BFA897FF1F6098FF1FEB
:104DA00088A6010094A60100609EFF1FE4A7FF1FD4
:104DB00034A00100DCAB0100A4A60100B0A60100F4
:104DC00000A701007099FF1F789BFF1F14A7010027
:104DD0003CA70100CCA1FF1F48A401005CA7010073
:104DE0008CA6FF1FB0A0FF1FA487FF1F3498FF1FD2
:104DF000959BFF1F8CA30100979BFF1F90A30100B1
:104E00002A4F2B4E3B7813F0FF0F15D0294C236807
:104E10005B682046284905229847204609F0C8FFCC
:104E20003B7883F001033B700023244A1370244A2B
:104E30001370244A244B1A60244C204600210A4651
:104E400007F048FC23685B68204621490A229847FE
:104E500020460021022207F03DFC1E4B1D783446FF
:104E60001D4B1E4A002D0CBF15461D460FCD0FC40D
:104E700095E8030044F8040B217030460DF0A4FDC2
:104E80000246124801684C683146A047144B1B6823
:104E90000193019A134B1B68D21A0B4B1B689A4261
:104EA0007FF633AF00F020F807B0F0BD989BFF1FEE
:104EB0001496FF1FE4A7FF1F98A301003498FF1F5B
:104EC000959BFF1FA0860100A487FF1F6098FF1F0E
:104ED0006CA70100CCA1FF1F58A6010070A601001D
:104EE0008CA6FF1FB0A0FF1F2DE9F04383B0002563
:104EF0004C4B1D704C4C204607F0E2FB20462946E7
:104F00002A4607F0E7FB23685B68204647491222E0
:104F10009847474A13680093009B46490B60126804
:104F20000192019AD31A444A1268934200F22681F0
:104F3000424B1B7813F0FF0F10D1414B1B7813F03D
:104F4000FF0F2ED13F4B1B7813F0FF0F00F0848032
:104F50004AE03A4B1B7813F0FF0F1DD03A4C236800
:104F60005B682046394902229847204609F020FF15
:104F7000324B1A7882F001021A700023304A137003
:104F8000304A1370284807F09BFB40F6B8322A4B92
:104F90001A6000F041F90AE1294B1B7813F0FF0F6A
:104FA0001DD0294C23685B68204629490422984774
:104FB000204609F0FDFE224B1A7882F001021A7099
:104FC00000231E4A13701F4A1370174807F078FB1E
:104FD00040F6B832184B1A60FFF7C0FDE7E0194BF6
:104FE0001B7813F0FF0F3CD0174C23685B682046FA
:104FF000184905229847204609F0DAFE114B1A7825
:1050000082F001021A7000230D4A13700B4A1370CC
:10501000054807F055FB41F28832074B1A60FFF74D
:105020009DFDC4E0A897FF1F6098FF1F88A701009F
:105030008CA6FF1FB0A0FF1FA487FF1F3498FF1F7F
:10504000959BFF1F979BFF1FE4A7FF1F8CA30100E9
:1050500090A30100A0A30100564FDFF8AC81DFF858
:10506000B4913B7813F0FF0F15D0D8F800305B688F
:105070004046494605229847404609F099FE3B784C
:1050800083F001033B7000234B4A13704B4A1370AB
:105090004B4A4C4B1A604C4C204600210A4607F004
:1050A00019FB23685B68204648491222984720462E
:1050B0000021012207F00EFB23685B68204644496B
:1050C00007229847434B1978434D2846434B444A9F
:1050D00000290CBF114619460DF018FC28460DF0AA
:1050E00073FC024623685B682046294698472046A1
:1050F0000021022207F0EEFA23685B682046394956
:1051000003229847384B1D6828460DF05DFC024687
:1051100023685B68204629469847204600210322E1
:1051200007F0D8FA23685B68204630490522984783
:105130002F4B1D78284E34462E4B2F4A002D0CBF86
:1051400015461D460FCD0FC495E8030044F8040B27
:10515000217030460DF038FC02461B4801684C684F
:105160003146A047254B1B680193019A244B1B68CD
:10517000D21A144B1B689A427FF6EBAE214B1B7878
:105180009BB9214C23685B68204620490D22984733
:105190001F4D28460DF018FC024623685B68204628
:1051A00029469847204609F003FEFFF78FFA03B01F
:1051B000BDE8F083989BFF1F3498FF1F959BFF1F4E
:1051C000A0860100A487FF1F6098FF1F88A7010029
:1051D0009CA7010090A2FF1F1496FF1F78A7010053
:1051E00080A70100A4A701009487FF1FA8A70100C2
:1051F000CCA1FF1F58A6010070A601008CA6FF1FBE
:10520000B0A0FF1F5898FF1FE4A7FF1FB0A7010021
:105210004C9EFF1F98A301002DE9F04194B000259A
:105220004B4B1D704B4C204607F04AFA204629464E
:105230002A4607F04FFA23685B6820464649142245
:105240009847464B1B78002B40F0CC8120462946DE
:10525000012207F03FFA23685B6820464049142288
:105260009847404C23685B6820463F491322984783
:105270003E4DAB1C0093EB1C01932B1D02936E1D46
:1052800003963B483B492A466B1C0DF089F923687D
:105290005B682046384902229847013DB046374FA7
:1052A000012623685B6820463946324698472046E7
:1052B00015F8011F1022002309F09EFD4545F0D18D
:1052C000284809F075FD29484EF660214FF47A62AE
:1052D00002F0DAFB40B92A4B08932A4B5B6809932A
:1052E000224808A902F0ECFD2748284B198803F052
:1052F000AFF8274805F00AFD05F07AFC08F026FA19
:10530000244BD3F8FC30002B50DD234A02FB03F181
:10531000914206DC032300932048214A002305F034
:105320009FFE104C23685B6820461E490E2298475A
:105330002046184BD3F8FC1009F09AFD23685B68EF
:105340002046194905229847204609F031FD43E0DF
:10535000A897FF1F6098FF1FC0A701005898FF1F64
:10536000D8A70100E4A7FF1FF0A701008887FF1F4F
:105370002897FF1F04A8010028A80100449F0100EE
:10538000D8B0010094A2FF1F3898FF1F9887FF1F15
:105390003D1900004496FF1F80510100E4A4FF1F47
:1053A000151100002CA801003CA80100954C2368B1
:1053B0005B68204694490E22984723685B68204624
:1053C00092490122984723685B682046904905224C
:1053D0009847204609F0ECFC8E4805F0A7FC8E4B60
:1053E0001B78002B40F0FE808C4C8D4B03F161024A
:1053F000226075336360002007F090FD09F0E8FD3E
:10540000022009F01BFE874E54F8203033607D4C9B
:1054100023685B682046844919229847834D2846B3
:1054200031680DF073FA28460DF0CEFA0246236873
:105430005B68204629469847204609F0B9FC236856
:105440005B6820467A49092298470AA802F0FAFDCB
:105450000A9B1B680AA821469847204609F0A8FC29
:105460006D4B1B78002B40F0BD8072484EF66021DA
:105470004FF47A6202F008FB38BB23685B68204671
:105480006D490B229847204609F092FC01246B4B92
:105490001C706B4B0C936B4B5B680D9365480CA9B0
:1054A00002F00EFD1C20214608F060F91C20214668
:1054B00008F08EF9FA2008F0FDF91C20002108F010
:1054C00087F91A20214608F051F95F485F495022B8
:1054D00002F096FEB8B14B4C23685B6820465C49ED
:1054E00009229847204609F063FC574C23685B6803
:1054F000204658494F229847204609F059FC20463B
:1055000009F056FC09E03F4C23685B68204652498D
:1055100011229847204609F04BFC4B4C0A2502E02B
:10552000284608F0C7F9204602F04AFE20B120467E
:1055300002F0F2FE0028F3D0434C484E484D07E0FD
:10554000204602F0FDFEC1B23170284609F058FE37
:10555000204602F035FE0028F2D1204602F0DCFEA3
:105560000028EDD10EA83F4909F0CAFD3C480EA91C
:1055700009F080FE04460EA809F076FD6CB9214CB6
:1055800023685B68204638491D229847204609F069
:105590000FFC0122354B1A7010E01A4C23685B682F
:1055A0002046334902229847204609F001FC002298
:1055B0002E4B1A701A20012108F0D8F8224802F068
:1055C000FFFD60B90F4C204609F0F2FB23685B68D1
:1055D000204628490E229847204609F0E9FB1A4840
:1055E00002F0D4FE01220C4B1A70234B1B68069369
:1055F000069A224B1A60224807F062F81E4F1F4E8F
:10560000204D06E1E4A7FF1F2CA8010044A80100DB
:105610003CA80100805101005898FF1FCC97FF1F44
:105620004496FF1F9487FF1F48A801001496FF1F90
:1056300064A801008887FF1F70A8010090A2FF1FC7
:10564000D8B0010094A2FF1F609EFF1FDCAB0100D9
:10565000A4A601007CA8010000A701007099FF1F0B
:10566000789BFF1F14A701003CA70100CCA1FF1FDE
:1056700048A401005CA701008CA6FF1FB0A0FF1F7B
:105680006098FF1FA487FF1F7C4B1B7813F0FF0F50
:105690001BD07B4C23685B6820467A4902229847DE
:1056A000204609F085FB754B1A7882F001021A70CA
:1056B0000022754B1A70754807F002F840F6B832B0
:1056C000734B1A6000F00AF9D4E06F4B1B7813F0AB
:1056D000FF0F1BD06A4C23685B6820466D4904228B
:1056E0009847204609F064FB674B1A7882F0010264
:1056F0001A700022614B1A70644806F0E1FF40F610
:10570000B832634B1A60FFF7EFFBB3E0624B1B78D4
:1057100013F0FF0F15D05A4C23685B6820465F4991
:1057200005229847204609F043FB5B4B1A7882F02C
:1057300001021A700023514A1370534A1370584BD8
:105740002B60524C204600210A4606F0C3FF236816
:105750005B682046534914229847204600210122C5
:1057600006F0B8FF504B1B78002B4CD123685B68C8
:1057700020464E490322984712A802F063FC129B70
:105780001B6812A82146984720460021022206F0F5
:10579000A1FF23685B682046454903229847454B93
:1057A000D3F8008040460DF00FF9024623685B688D
:1057B00020464146984720460021032206F08AFFF2
:1057C00023685B6820463C4903229847DFF8008144
:1057D0003A4A13785178009191780191D1780291E9
:1057E000117903915279049240461221344A0CF007
:1057F0007DFE40460DF0E8F8024623685B682046CF
:105800004146984705E0214803685B682D49062218
:1058100098473B680793079A3368D21A2B689A42D5
:105820007FF632AF284B1B789BB9154C23685B6819
:10583000204626490D229847254D28460DF0C4F8EC
:10584000024623685B68204629469847204609F0AF
:10585000AFFA0B4C23685B6820461E491D2298470F
:1058600020461D4B197809F003FB204609F0A0FAE9
:10587000FFF73AFB14B0BDE8F08100BF3498FF1F7A
:10588000E4A7FF1F8CA30100959BFF1F6098FF1FDB
:10589000A487FF1F90A30100989BFF1F98A30100FE
:1058A000A0860100C0A7010090A2FF1FCCA80100A4
:1058B000A4A701009487FF1FD0A801008887FF1FBD
:1058C000D4A80100F4A801005898FF1FB0A7010058
:1058D0004C9EFF1FFCA80100A087FF1F2DE9F0438D
:1058E00087B000256F4B1D706F4C204606F0E8FE18
:1058F000204629462A4606F0EDFE23685B682046CE
:105900006A49072298476A4B1B78FBB969484FF4EC
:10591000165105F037F80320012107F059FF032045
:10592000294607F023FF642007F0C4FF032001216C
:1059300007F01CFF0120FBF76BFD18B901225E4B3D
:105940001A7003E001225D4B1A704EE05B4B1B782E
:10595000002B4AD1544C20460821002206F0BAFE02
:1059600023685B68204656490422984702A8554997
:1059700009F0C6FB02A854490C22002309F050FC90
:105980004FF49674514D2B19A3F596732046197850
:1059900007F0B8FB0134B4F5187FF4D14A4D28461E
:1059A0000DF012F802464A4C23685B6820462946EF
:1059B00098474FF4FA6007F07DFF1A20012107F0A5
:1059C000D5FE204609F0F4F923685B68204641497A
:1059D0000D229847204609F0EBF902A809F044FB94
:1059E000364B1B78002B00F06B813B4A1368019308
:1059F000019B3A490B6012680292029AD31A384A04
:105A00001268934200F25C81364B1B7813F0FF0F53
:105A10000AD1354B1B7813F0FF0F6BD025E0314BCB
:105A20001B7813F0FF0F1BD0294C23685B682046BE
:105A30002E4902229847204609F0BAF9294B1A78D4
:105A400082F001021A700022274B1A70164806F0E5
:105A500037FE40F6B832224B1A6000F097F95BE14E
:105A6000214B1B7813F0FF0F48D0194C23685B685B
:105A700020461F4904229847204609F099F91A4BFD
:105A80001A7882F001021A700022164B1A7006482A
:105A900006F016FE40F6B832114B1A60FFF7BCFB59
:105AA0003AE100BFA897FF1F6098FF1F1CA90100E3
:105AB0000496FF1F8CA0FF1F3C96FF1F889BFF1FB3
:105AC00024A901002CA901004C97FF1F4496FF1F39
:105AD000E4A7FF1F38A901008CA6FF1FB0A0FF1F7D
